:020000040800F2
:10000000984A022071030008A1300008612D000801
:100010009D300008050B00083D5E00080000000050
:10002000000000000000000000000000B102000815
:10003000FF0C0008000000000D0300086F330008EB
:100040008B0300088B0300088B0300088B03000858
:100050008B0300088B0300088B0300088B03000848
:100060008B0300088B0300088B0300088B03000838
:100070008B0300088B0300088B0300088B03000828
:100080008B0300088B0300088B0300088B03000818
:100090008B0300088B0300088B0300088B03000808
:1000A0008B0300088B0300088B0300088B030008F8
:1000B0008B0300088B0300088B0300088B030008E8
:1000C0008B0300088B0300088B0300088B030008D8
:1000D0008B0300088B0300088B0300088B030008C8
:1000E0008B0300088B0300088B0300088B030008B8
:1000F0008B0300088B0300088B0300088B030008A8
:100100008B0300088B0300088B0300088B03000897
:100110008B0300088B0300088B0300088B03000887
:10012000110C00088B0300088B0300088B030008E8
:100130008B0300088B0300088B0300088B03000867
:100140008B0300088B0300088B0300088B03000857
:100150008B0300088B0300088B0300088B03000847
:100160008B0300088B030008B5300008A530000899
:100170008B030008C53000088B0300080000000056
:100180008B0300088B0300088B0300088B03000817
:100190008B0300088B0300088B0300088B03000807
:1001A0008B0300088B0300088B03000800F002F8A3
:1001B00000F06FF80AA090E8000C82448344AAF192
:1001C0000107DA4501D100F064F8AFF2090EBAE890
:1001D0000F0013F0010F18BFFB1A43F0010318477B
:1001E000B4880000F48800000A444FF0000C10F8B6
:1001F000013B13F0070408BF10F8014B1D1108BFA5
:1002000010F8015B641E05D010F8016B641E01F844
:10021000016BF9D113F0080F1EBF10F8014BAD1C94
:100220000C1B09D16D1E58BF01F801CBFAD505E0B2
:1002300014F8016B01F8016B6D1EF9D59142D6D30C
:1002400070470000103A24BF78C878C1FAD8520726
:1002500024BF30C830C144BF04680C607047000040
:100260000023002400250026103A28BF78C1FBD8BF
:10027000520728BF30C148BF0B607047782900F093
:100280005781002070471FB508F03CFB1FBD10B51B
:1002900010BD00F0DAFA1146FFF7F5FF05F0EFFDAB
:1002A00000F0F8FA03B4FFF7F2FF03BC00F000FB24
:1002B0002C4B19680868B0E8F04F80F30988BFF349
:1002C0006F8F4FF0000080F311887047000000002E
:1002D00008480068006880F308884FF0000080F349
:1002E000148862B661B6BFF34F8FBFF36F8F00DF24
:1002F00000BF00BF08ED00E0DFF80C00016841F42A
:1003000070010160704700BF88ED00E0EFF30980E5
:10031000BFF36F8F134B1A681EF0100F08BF20ED4C
:10032000108A20E9F04F106009B44FF0500080F3BC
:100330001188BFF34F8FBFF36F8F07F0A5F94FF010
:10034000000080F3118809BC19680868B0E8F04F14
:100350001EF0100F08BFB0EC108A80F30988BFF3BD
:100360006F8F7047A8000010EFF305807047000002
:100370000948804709480047FEE7FEE7FEE7FEE739
:10038000FEE7FEE7FEE7FEE7FEE7FEE70448054975
:10039000054A064B704700003D340008AD010008D7
:1003A000982A0220984A0220983A0220983A02207D
:1003B00053EA020C00F069802DE9F04B4FF0000683
:1003C000002B1FBFB3FA83F503FA05F424FA05F6F0
:1003D0005E4012BF1643B2FA82F502FA05F4C5F187
:1003E00020051EBF22FA05FC44EA0C04203556EA1B
:1003F000044C4FEA144418BF641C4FF000084FF03F
:100400000009904271EB030C39D3002919BFB1FAEE
:1004100081F701FA07F6B0FA80F700FA07F6C7F19C
:1004200020071EBF20FA07FC46EA0C062037B6FB61
:10043000F4FCA7EB0507103F07F01F0BCBF12006DC
:100440000CFA0BFB2CFA06F644BFB3460026202F0D
:10045000A4BF5E464FF0000B5BEA060C08BF4FF0EE
:10046000010B19EB0B09ABFB027C48EB0608C01B28
:1004700006FB02CC0BFB03CC71EB0C01C1E70B4676
:10048000024641464846BDE8F08B13B54FF00000E8
:100490004FF00001AFF30080BDE81C407047000042
:1004A0000FB41CB5074B06AA7B446946009005981B
:1004B00000F05FF90020694600F06EF91CBC5DF8A1
:1004C00014FB0000ED0200002DE9F0410E46044649
:1004D000002020622046E168884730B3252805D0F7
:1004E000D4E901219047206A401CF2E7E1682046E8
:1004F00000278847050018D0A5F14100192802D827
:1005000020354FF400673246294620462760FFF722
:10051000B5FE40B1012804D0F61D26F007060836C6
:10052000D8E7361DD6E72846DAE7206ABDE8F0812D
:1005300070B504460D4621461068AFF3008021884F
:10054000090502D50F4A7A4402E00E4A7A440E3277
:10055000002104F1240305E000F00F060009965D78
:100560005E54491C0028F7D120780023000704D5E9
:10057000702D02D009B1022311322046BDE870402F
:1005800000F098B88284000010B5431C02E010F817
:10059000011B71B18107FAD14FF0013202C88C1AE8
:1005A0008C4314EAC211F9D0C01A0A0603D0C01E47
:1005B00010BDC01A10BD0A0401D0801E10BD090272
:1005C000FCD0401E10BD032A40F2308010F0030C16
:1005D00000F0158011F8013BBCF1020F624498BF96
:1005E00011F801CB00F8013B38BF11F8013BA2F133
:1005F000040298BF00F801CB38BF00F8013B11F0AE
:10060000030300F0CE80083AC0F0088051F8043BA4
:10061000083A51F804CBA0E80810F5E7121D5CBFBA
:1006200051F8043B40F8043BAFF30080D20724BFED
:1006300011F8013B11F801CB48BF11F8012B24BF81
:1006400000F8013B00F801CB48BF00F8012B7047D0
:1006500002F0FF0343EA032242EA024200F0D5B867
:100660004FF0000200B5134694469646203922BF4B
:10067000A0E80C50A0E80C50B1F12001BFF4F7AF96
:10068000090728BFA0E80C5048BF0CC05DF804EB78
:10069000890028BF40F8042B08BF704748BF20F8E6
:1006A000022B11F0804F18BF00F8012B70477047E4
:1006B000704770472DE9F0470D469946924604462B
:1006C00000F124080168880604D5E06921F01001D2
:1006D000216000E00120A84201DD471B00E0002767
:1006E000A1697A1902EB0900081AA0612078C006F6
:1006F00002D42046AFF30080002608E0D4E90121AF
:100700001AF806009047206A401C761C20624E456D
:10071000F4DB2078C0060AD52046AFF3008006E05F
:10072000D4E9012130209047206A401C2062381E05
:10073000A7F10107F4DC07E0D4E9012118F805006E
:100740009047206A401C2062281EA5F10105F3DCB9
:100750002046AFF300802078000602D50220BDE8D5
:10076000F0870120FBE7000001694A1C026108785C
:10077000704700B58FB0CDE90131002105910549E1
:100780007944CDE9031011466846FFF79DFE0FB08E
:1007900000BD0000E5FFFFFF0A6802F8010B0A60D8
:1007A000704710B5203AC0F00B80B1E81850203ADD
:1007B000A0E81850B1E81850A0E81850BFF4F5AF01
:1007C0005FEA027C24BFB1E81850A0E8185044BF8B
:1007D00018C918C0BDE810405FEA827C24BF51F8F8
:1007E000043B40F8043B08BF7047D20728BF31F8EC
:1007F000023B48BF11F8012B28BF20F8023B48BF3D
:1008000000F8012B70474FF000020429C0F012805D
:1008100010F0030C3FF426AFCCF1040CBCF1020F36
:1008200018BF00F8012BA8BF20F8022BA1EB0C0188
:10083000FFF718BF5FEAC17C24BF00F8012B00F866
:10084000012B48BF00F8012B7047754600F02CF8CB
:10085000AE4605006946534620F00700854618B0AD
:1008600020B5FFF793FDBDE820404FF000064FF0A4
:1008700000074FF000084FF0000B21F00701AC46D5
:10088000ACE8C009ACE8C009ACE8C009ACE8C009F4
:100890008D46704710B50446AFF300802046BDE892
:1008A0001040FFF7FFBC000000487047344A0010BA
:1008B00001491820ABBEFEE7260002007047000089
:1008C00055494A6822F440324A604A6843681A43EC
:1008D0004A600268526822F4807203685A600268B3
:1008E0005368026943EA022203685A600268526848
:1008F00022F0407203685A600268526883681A43A3
:1009000003685A600268926822F4006203689A6081
:1009100002689268C3681A4303689A603F4B826A10
:100920009A4218D00268926822F0706203689A6056
:1009300002689268836A1A4303689A600268926840
:1009400022F0405203689A6002689268C36A1A43B0
:1009500003689A600BE00268926822F07062036894
:100960009A600268926822F0405203689A600268B6
:10097000926822F0020203689A6002689368027E1D
:1009800043EA420203689A602022125CA2B1026824
:10099000526842F4006203685A600268526822F4A6
:1009A000604203685A6002685368426A521E43EA12
:1009B000423203685A6005E00268526822F400621D
:1009C00003685A600268D26A22F470020368DA622D
:1009D0000268D36A828B521E43EA02520368DA62CB
:1009E0000268926822F4007203689A600268936851
:1009F00090F8302043EA422203689A6002689268C5
:100A000022F4806203689A6002689368426943EA4C
:100A1000822203689A607047002301400100000FA2
:100A2000F8B505460E4600272C4600BF082E00D01C
:100A300015E020787E2800D011E0A0788DF8000025
:100A4000E0788DF80100A088ADF8020000231A4676
:100A500069460448006805F009FB012700BF00BF94
:100A60003846F8BD20000020F0B5C3B005460E465C
:100A700014461F467C208DF800001E4800788DF833
:100A800001001C480078401C1A49087007F0A2FCBD
:100A900002908DF803608DF80250019441F2883184
:100AA0001548006805F024FB08BB14480068144989
:100AB00009680844009901600199416002998160C8
:100AC0000F4800680C300E4908600C4909680C4A50
:100AD0001268881822463946FFF775FD08480068F5
:100AE0002044074908600448006805F08BFB43B0C8
:100AF000F0BD0000100000202400002008000020AD
:100B00000C00002000BFFEE70346042B15D007DCD5
:100B10007BB1012B0ED0022B0DD0032B12D10BE099
:100B2000202B0BD0212B0AD0222B09D0232B09D12B
:100B300007E008E007E006E005E004E003E002E08B
:100B400001E000E000BF00BF0020704700207047B8
:100B500010B500220449054802F067FF0449034824
:100B600002F054FF002010BD9C1B0220C010022088
:100B70009C13022070B506460C461546012D02D086
:100B8000032D0ED108E031460C482268FFF71BFD0B
:100B900001200B49087005E030462168FFF740FF4F
:100BA00000E000BF00BF3146064802F02FFF294693
:100BB000044802F0FBFE002070BD00005801002038
:100BC00000000020C010022010B503460C46002192
:100BD000084610BD2DE9F04104460D461646002793
:100BE0000A48D0F8BC82D8F8140210B10120BDE840
:100BF000F0812A462146054802F017FF3146034896
:100C000002F0C5FF07463846F1E70000C010022099
:100C100010B5024800F0FAF910BD000008100220DB
:100C20000146087810381823B0FBF3F20848805CBE
:100C3000C865032A05D908686FF30900001D886597
:100C400003E008686FF309008865886D704700004D
:100C5000AC890008014600208A6A8B69CBB932B1A1
:100C6000012A0DD0022A03D0032A10D10EE000BFC2
:100C7000CB6A03F08073B3F1807F00D1012007E0DD
:100C8000CB6AB3F1C07F00D1012001E000E000BFDA
:100C900034E08B69B3F5005F1AD132B1012A07D075
:100CA000022A03D0032A11D10AE000BF01200EE07E
:100CB000CB6A03F08073B3F1807F00D1012006E09E
:100CC000CB6AB3F1C07F00D1012000E000BF15E086
:100CD00032B1012A05D0022A04D0032A0CD103E044
:100CE00000BF00BF012008E0CB6A03F08073B3F1BE
:100CF000807F00D1012000E000BF00BF7047704737
:100D000072B600BFFEE7000010B52C4454B10822B3
:100D10000549204602F026F80422034910313046E6
:100D200002F020F810BD00001E01002038B5024678
:100D30000020009000BF92F83C00012801D1022061
:100D400038BD012082F83C0000BF0868092816D988
:100D50001068C0680C780A3C04EB44050724AC40DA
:100D6000A0431468E0600C780A3C04EB44048868F3
:100D7000A0401468E46820431468E06013E0106841
:100D800000690C7804EB44050724AC40A0431468C8
:100D900020610C7804EB44048868A040146824693E
:100DA0002043146820614868072817D21068406BF8
:100DB0000C79641E04EB84051F24AC40A043146826
:100DC0006063088880B20C79641E04EB8404A04040
:100DD0001468646B20431468606331E048680D2830
:100DE00017D21068006B0C79E41F04EB84051F24F4
:100DF000AC40A04314682063088880B20C79E41FDB
:100E000004EB8404A0401468246B2043146820631E
:100E100016E01068C06A0C790D3C04EB84051F24B1
:100E2000AC40A0431468E062088880B20C790D3CA5
:100E300004EB8404A0401468E46A20431468E06270
:100E40001E4B1F4C1068A0420AD10868122807D117
:100E5000586820F400005860586840F480005860DA
:100E6000174C1068A04222D1164C0868A04202D04C
:100E7000086811281BD1586820F480005860586811
:100E800040F4000058600F4C0868A0420FD10E4893
:100E900000680E4CB0FBF4F000EB800040000090C6
:100EA00002E00098401E009000980028F9D100BF91
:100EB000002082F83C0000BF00BF41E70023014052
:100EC00000200140120000101400001040420F00EA
:100ED00070B5044600250CB9012070BD1549A06A03
:100EE000884200D000BF206C30B9204600F024F8C2
:100EF0000020606484F83C00206C00F0100088B989
:100F0000206C20F4885040F0020020642046FFF757
:100F1000D7FC00206064206C20F0020040F001004B
:100F2000206400E0012500BF002084F83C0000BFE1
:100F30002846D2E70100000F10B586B00446142100
:100F400001A8FFF78DFB2C492068884251D100BFD2
:100F5000002000902948006840F48060274908601C
:100F60000846006800F48060009000BF00BF00BF2A
:100F70000020009021481438006840F020001F49EC
:100F8000143908600846006800F02000009000BF97
:100F900000BF4FF4FF6001900320029000200390F7
:100FA00001A9174800F0DCF91648174908608005C8
:100FB0004860002114488160C1604FF48061016184
:100FC00049004161890081614911C16149020162A1
:100FD00004214162012181620021C162016300F0AC
:100FE00035F908B1FFF78CFE00BF0748A0638463A2
:100FF00000BF06B010BD000000220140443802408E
:10100000001402401064024008100220F8B50446A3
:10101000002000908C4800684FF41651B0FBF1F7A7
:10102000A56D2E6894F85C1008208840304098B177
:101030002068006800F0040070B12068006820F0AB
:1010400004002168086094F85C1008208840A860BB
:10105000606D40F00100606594F85C1001208840EC
:10106000304068B12068406900F0800040B194F8D9
:101070005C1001208840A860606D40F0020060654F
:1010800094F85C1004208840304068B12068006803
:1010900000F0020040B194F85C1004208840A86081
:1010A000606D40F00400606594F85C10102088408A
:1010B000304078B32068006800F0080050B394F81E
:1010C0005C1010208840A8602068006800F4802030
:1010D00080B12068006800F4002028B9206CC8B1F5
:1010E0002046216C884715E0A06C98B12046A16C81
:1010F00088470FE02068006800F4807028B92068F5
:10110000006820F0080021680860206C10B12046BB
:10111000216C884794F85C102020884030400028DB
:1011200065D02068006800F0100000285FD094F8B7
:101130005C1020208840A86094F83500052828D14C
:101140002068006820F01600216808602068406967
:1011500020F0800021684861206C08B9A06C28B19B
:101160002068006820F008002168086094F85C108E
:101170003F208840A860012084F8350000BF00208F
:1011800084F8340000BF206D10B12046216D8847DF
:10119000F8BD2068006800F4802080B120680068F5
:1011A00000F4002028B9606C10B12046616C8847BB
:1011B0001DE0E06BD8B12046E16B884717E020685E
:1011C000006800F4807068B92068006820F01000A2
:1011D00021680860012084F8350000BF002084F8F1
:1011E000340000BFE06B10B12046E16B8847606DB2
:1011F00038B3606D00F00100F0B1052084F83500CF
:101200002068006820F001002168086000BF009895
:10121000401C0090B84200D905E02068006800F04A
:1012200001000028F3D100BF012084F8350000BF81
:10123000002084F8340000BFE06C10B12046E16C5F
:10124000884700BFA4E70000140000102DE9F0411A
:101250000446002500F08CF9074614B90120BDE8CA
:10126000F081606A00B100BF022084F8350000BF41
:10127000002084F8340000BF2068006820F00100DE
:10128000216808600AE000F073F9C01B052805D941
:1012900020206065032084F83500E0E720680068BE
:1012A00000F001000028EED12068056821480540C3
:1012B000D4E901010843E1680843216908436169F1
:1012C0000843A1690843E1690843216A08430543CB
:1012D000606A042803D1D4E90B0108430543206860
:1012E00005602068456925F00705606A0543606A66
:1012F00004280DD1A06A0543E06A48B12046FFF7F3
:10130000A9FC28B140206065012084F83500A6E7DB
:10131000206845612046FFF783FC064694F85C1080
:101320003F208840B06000206065012084F83500CF
:10133000002094E73F8010F070B5044600F018F9E3
:1013400006462546681C10B104480078054400BFD5
:1013500000F00EF9801BA842FAD370BD40010020B6
:10136000F8B502460B460025002400200021E0E0ED
:10137000012606FA01F51E6806EA0504AC4274D19E
:101380001E7906F00306012E04D01E7906F003062E
:10139000022E13D190684F000326BE40B0434F0089
:1013A000DE68BE4030439060506801268E40B043F6
:1013B0001E79C6F300168E40304350601E7906F049
:1013C0000306032E09D0D0684F000326BE40B04369
:1013D0004F009E68BE403043D0601E7906F0030681
:1013E000022E13D1CF0802F1200656F827004E072F
:1013F000F70E0F26BE40B0434F07FF0E1E69BE40DA
:101400003043CF0802F1200646F8270010684F004D
:101410000326BE40B0431E7906F003064F00BE40CF
:10142000304310605E6806F44036002E1DD000BFC9
:1014300000260096414E366846F480463F4F3E6097
:101440003E46366806F48046009600BF00BF3C4E1C
:101450008F0856F827008E07370F0F26BE40B0437F
:10146000384EB24202D100262EE061E0364EB24242
:1014700001D1012628E0354EB24201D1022623E0F7
:10148000334EB24201D103261EE0324EB24201D1A8
:10149000042619E0304EB24201D1052614E02F4E49
:1014A000B24201D106260FE02D4EB24201D10726ED
:1014B0000AE02C4EB24201D1082605E02A4EB24283
:1014C00001D1092600E00A268F073F0FBE403043B6
:1014D0001B4E8F0846F82700244E3068A0435E68F4
:1014E00006F4801606B12043204E3060361D306869
:1014F000A0435E6806F4001606B120431B4E361D5D
:1015000030601A4E361F3068A0435E6806F400361D
:1015100006B12043154E361F3060361F3068A04399
:101520005E6806F4803606B12043104E083E3060F7
:10153000491C1029FFF41CAFF8BD000044380240DC
:101540000838014000000240000402400008024048
:10155000000C02400010024000140240001802403B
:10156000001C02400020024000240240083C0140D0
:1015700001480068704700003801002003480068F7
:101580000349097808440149086070473801002080
:101590004001002010B50D48006840F400700B4970
:1015A00008600846006840F48060086008460068EB
:1015B00040F480700860032000F0ACF80F2000F0C9
:1015C00007F800F02BF8002010BD0000003C02409E
:1015D00070B504460E4800784FF47A71B1FBF0F014
:1015E0000C490968B1FBF0F5284601F09FFB08B1F2
:1015F000012070BD102C07D200222146501E00F0A1
:101600004BF80548046001E00120F2E70020F0E714
:1016100040010020140000103C01002008B500BF6C
:10162000002000901148006840F480400F49086095
:101630000846006800F48040009000BF00BF00BF73
:1016400000200090081F006840F08050091F0860CB
:101650000846006800F08050009000BF00BF0022E4
:101660000F21901E00F018F808BD00004438024019
:101670000146084600280DDB00BF00BF00F01F0335
:1016800001229A4043099B0003F1E023C3F80021A3
:1016900000BF00BF00BF70472DE9F05F80460D46D8
:1016A0001646002704F0CCFB074639462A46334647
:1016B00001F00700C0F1070ABAF1040F02D94FF098
:1016C000040A01E0C0F1070AD14600F1040ABAF1A8
:1016D000070F02D24FF0000A01E0A0F1030AD4463E
:1016E0004FF0010A0AFA09FAAAF1010A0AEA020A03
:1016F0000AFA0CFA4FF0010B0BFA0CFBABF1010BE1
:101700000BEA030B4AEA0B042146404604F0A0FB17
:10171000BDE8F09F00BF00F00702064B19684FF6C6
:10172000FF031940044B0B4343EA0221014B1960AC
:1017300000BF70470CED00E00000FA05704702465C
:101740001068416200207047F0B5034615461868DE
:10175000446A21B944EA05401E68B06219E018687D
:10176000806A04EB1044002208E0186800F58270DB
:1017700050F8220004EB1044501CC2B2481E9042A4
:10178000F3D844EA0547186800F582704E1E40F809
:1017900026700020F0BD10B50446D4F8E00402F035
:1017A00065FE10BD70B504460D4605EBC50304F19A
:1017B000140101EB8301CA682946D4F8E00402F061
:1017C00050FD70BD70B504460D4605EBC50304F52C
:1017D000157101EB8301CA682946D4F8E00402F0D0
:1017E000C4FD70BD10B50446D4F8E00402F041FE1B
:1017F00010BD2DE9F04104460D4605F0800080281B
:1018000008D105F00F0000EBC00104F1140000EB5B
:10181000810607E005F00F0000EBC00104F515702C
:1018200000EB81063146206804F0CAF807463846C6
:10183000BDE8F08170B504460E4606F080008028B1
:101840000AD106F00F0000EBC00104F1140000EB18
:1018500081050120687009E006F00F0000EBC0016F
:1018600004F5157000EB81050020687006F00F008C
:10187000287000BF94F89404012801D1022070BDA3
:10188000012084F8940400BF2946206803F02CFC52
:1018900000BF002084F8940400BF00BFEFE770B5DC
:1018A00004460E4606F00F002179884201D9012036
:1018B00070BD06F0800080280AD106F00F0000EB12
:1018C000C00104F1140000EB81050120687009E0FB
:1018D00006F00F0000EBC00104F5157000EB810568
:1018E000002068700020A87006F00F00287000BF6C
:1018F00094F89404012801D10220D9E7012084F84A
:10190000940400BF2946206803F0ECFD00BF0020CE
:1019100084F8940400BF00BFCAE7024601F00F003C
:1019200000EBC00302F5157000EB830040697047BF
:101930002DE9F04705460E4690461F464FF0000938
:1019400006F0800080280AD106F00F0000EBC001ED
:1019500005F1140000EB81040120607009E006F03D
:101960000F0000EBC00105F5157000EB81040020AD
:10197000607006F00F002070C4F80880277160784E
:1019800008B120786083022F01D10020607100BF70
:1019900095F89404012802D10220BDE8F0870120C7
:1019A00085F8940400BF2146286803F0B1FA00BF0F
:1019B000002085F8940400BF4846EEE72DE9F04189
:1019C00005460E461746984606F00F0000EBC0018C
:1019D00005F5157000EB8104E760C4F81080002065
:1019E0006061607006F00F002070A879012800D1B6
:1019F000E761AA792146286803F008FE0020BDE8C7
:101A0000F08170B504460D4605F00F00217988423B
:101A100001D9012070BD05F0800080280AD105F0B1
:101A20000F0000EBC00104F1140000EB810601205F
:101A3000707007E005EBC50104F5157000EB810639
:101A4000002070700120B07005F00F00307000BFF2
:101A500094F89404012801D10220DBE7012084F8E6
:101A6000940400BF3146206803F083FD05F00F00A9
:101A700028B9A17904F29C42206803F0FBFC00BF66
:101A8000002084F8940400BF00BFC3E72DE9F041B3
:101A900005460E461746984606F00F0000EBC001BB
:101AA00005F1140000EB8104E760C4F81080002009
:101AB00060610120607006F00F002070A879012895
:101AC00000D1E761AA792146286803F09FFD002034
:101AD000BDE8F0812DE9FE4F0446D4F800B05E4623
:101AE000206804F04FF8002874D1206804F089F8C9
:101AF00008B9BDE8FE8F40F608008059C0F30D20FC
:101B0000C4F8D404206804F07CF800F00200022835
:101B100005D12068406900F0020021684861206812
:101B200004F06FF800F01000102845D1206880699B
:101B300020F0100021688861DBF8209009F00F0088
:101B400000EBC00104F5157000EB810AC9F34340B6
:101B500002281AD147F6F07009EA000030B3C9F341
:101B60000A125846DAF80C1004F050F8C9F30A11BA
:101B7000DAF80C000844CAF80C00C9F30A11DAF8C4
:101B800014000844CAF8140010E0C9F343400628C2
:101B90000CD1082204F29C41584604F037F8C9F3EE
:101BA0000A11DAF814000844CAF8140020688069A1
:101BB00040F0100021688861206804F022F800F4E9
:101BC0000020B0F5002F7BD10025206803F0E9FF4D
:101BD000029072E0E1E2029800F00100002868D073
:101BE000E9B2206804F000F8804608F0010048B12E
:101BF000012106F5306000EB451081602946204642
:101C000001F09AFA08F00800082809D1082106F521
:101C1000306000EB451081602946204601F05AFAF9
:101C200008F01000102805D1102106F5306000EBF7
:101C30004510816008F00200022824D1DBF814006E
:101C400000F08000802807D140F60400805940F45D
:101C5000806140F60400815105EBC50104F5157063
:101C600000EB810A9AF80300012806D100208AF8C7
:101C70000300E9B2204600F09BFA022106F530602D
:101C800000EB4510816008F02000202805D12021BC
:101C900006F5306000EB4510816008F40050B0F5A7
:101CA000005F06D14FF4005106F5306000EB45109F
:101CB00081606D1C029840080290029800288AD129
:101CC000206803F09EFF00F48020B0F5802F7DD1C6
:101CD000206803F05CFF029000259AE0029800F073
:101CE0000100002873D0E9B2206803F064FF804649
:101CF00008F00100F0B305F00F01012088400190C9
:101D000040F634008159019821EA000040F6340180
:101D10008851012106F5106000EB45108160A07923
:101D2000012824D105EBC50104F1140000EB81006A
:101D300005EBC502C16804F1140000EB8200806865
:101D4000014405EBC50204F1140000EB8200C16000
:101D50006DB905EBC50104F1140000EB81000069C9
:101D600028B904F29C420121206803F083FBE9B208
:101D7000204600E001E0FFF715FD08F00800082804
:101D800005D1082106F5106000EB4510816008F0D0
:101D90001000102805D1102106F5106000EB451049
:101DA000816008F04000402805D1402106F5106010
:101DB00000EB4510816008F0020002281DD1294681
:101DC000584603F0A2FE05EBC50101E025E01CE04A
:101DD00004F1140000EB810A9AF80300012806D1EF
:101DE00000208AF80300E9B2204600F0D8F9022169
:101DF00006F5106000EB4510816008F08000802837
:101E000003D12946204601F039FA6D1C029840089A
:101E10000290029800287FF461AF206803F0F1FE81
:101E200000F00040B0F1004F1CD140F60400805992
:101E300020F0010140F60400815194F8CC040128FF
:101E400007D1002084F8CC0400212046FFF776FC5F
:101E500002E0204600F0D6FA2068406900F0004019
:101E600021684861206803F0CCFE00F40060B0F502
:101E7000006F0ED140F60800805900F0010010B14B
:101E8000204600F017FB2068406900F400602168DC
:101E90004861206803F0B5FE00F48050B0F5805F23
:101EA0007ED140F60400805920F0010140F6040084
:101EB00081511021206803F028FE002732E04FF600
:101EC0007F3106F5106000EB4710816006F5106069
:101ED00000EB4710006820F4001106F5106000EBDD
:101EE000471001604FF67F3106F5306000EB471078
:101EF000816006F5306000EB4710006820F40011A7
:101F000006F5306000EB4710016006F5306000EB2D
:101F10004710006840F0006106F5306000EB4710A4
:101F200001607F1C2079B842C9D840F61C00805956
:101F300040F0011140F61C008151E07B70B1D6F8F1
:101F4000840840F00B01C6F8841840F6440080591C
:101F500040F00B0140F6440081510FE040F61400C0
:101F6000805942F22B01084340F614018851081FA2
:101F7000805940F00B014FF401608151D6F8000800
:101F800020F4FE60C6F80008A17904F29C422068A3
:101F900003F070FA2068406900F48050216800E086
:101FA00000E04861206803F02CFE00F40050B0F51A
:101FB000005F17D1206803F013F8206803F0CFFD0D
:101FC000E07100F053FB0090E2792068009903F083
:101FD0009FFE204600F0FEF92068406900F40050A2
:101FE00021684861206803F00CFE00F00800082812
:101FF00008D1204600F00DFA2068406900F0080082
:1020000021684861206803F0FCFD00F08000802812
:1020100018D1DBF8180020F08000CBF8180001255B
:102020000DE005EBC50104F5157000EB8100C078EB
:10203000012803D1E9B22046FFF7DBFB6D1C2079B4
:10204000A842EED8206803F0DCFD00F48010B0F563
:10205000801F2DD1012522E006F5106000EB451010
:10206000D0F8009005EBC50104F1140000EB8100ED
:102070000079012812D109F00040B0F1004F0DD1D4
:10208000012105EBC50204F1140000EB8200C170D0
:10209000E8B240F080012046FFF7ABFB6D1C2079D1
:1020A000A842D9D82068406900F4801021684861AE
:1020B000206803F0A6FD00F40010B0F5001F44D125
:1020C000012538E006F5306000EB4510D0F80090AF
:1020D00005EBC50104F5157000EB810000790128BE
:1020E00028D109F00040B0F1004F23D109F480302D
:1020F00094F8D41401F0010188421BD1012105EBB1
:10210000C50204F5157000EB8200C170DBF8180001
:1021100040F08000CBF81800DBF8140000F08000DD
:1021200040B940F60400805940F4007140F60400C4
:10213000815103E06D1C2079A842C3D800BF2068FC
:10214000406900F4001021684861206803F059FDDF
:1021500000F08040B0F1804F08D12046FFF71BFB14
:102160002068406900F0804021684861206803F0E1
:1021700048FD00F0040004280FD12068D0F8049036
:1021800009F00400042802D12046FFF72BFB206849
:10219000406840EA09002168486000BFA9E470B5C2
:1021A00004460D462946D4F8E00402F0DFF970BD7C
:1021B00070B504460D462946D4F8E00402F0FAF959
:1021C00070BDF8B504460CB90120F8BD266894F836
:1021D000950428B9002084F89404204600F0A0F863
:1021E000032084F89504B6F1A04F01D10021A1711C
:1021F000206803F037F9207C8DF8000094E80F0088
:1022000002F002FF20B1022084F895040120DCE7EF
:102210000021206803F02AFD20B1022084F89504F3
:102220000120D2E7002531E0012105EBC50204F1D0
:10223000140000EB8200417005EBC50104F11400AD
:1022400000F8215005EBC50100EB8100458300211A
:1022500005EBC50204F1140000EB8200017105EBEF
:10226000C50204F1140000EB8200816005EBC50299
:1022700004F1140000EB8200C16005EBC50204F11B
:10228000140000EB82000161681CC5B22079A842ED
:10229000CADC00252AE0002105EBC50204F5157013
:1022A00000EB8200417005EBC50104F5157000F8E4
:1022B0002150002105EBC50200EB8200017105EB06
:1022C000C50204F5157000EB8200816005EBC502C4
:1022D00004F5157000EB8200C16005EBC50204F542
:1022E000157000EB82000161681CC5B22079A8421C
:1022F000D1DC207C8DF8000094E80F0002F0BEFFD6
:1023000020B1022084F8950401205EE7002060746B
:10231000012084F89504206802F09EFF002054E715
:1023200010B586B00446142101A8FEF799F9264994
:102330002068884246D100BF0020009023480068F2
:1023400040F00200214908600846006800F00200E1
:10235000009000BF00BF4FF4404001900220029067
:1023600000200390032004900C20059001A9184838
:10237000FEF7F6FF00BF002000901448006840F010
:102380000050124908600846006800F000500090B4
:1023900000BF00BF002205214A20FFF77DF94A2037
:1023A000FFF766F9002205214B20FFF775F94B2056
:1023B000FFF75EF9002205214D20FFF76DF94D2052
:1023C000FFF756F906B010BD000004403038024057
:1023D0000004024070B504460125E07908B90025E3
:1023E00006E0E079022801D1012501E0FEF788FC32
:1023F0002946D4F8E00402F086F9D4F8E00402F0AB
:102400002DF970BD10B50446D4F8E00402F05CF973
:1024100010BD10B50446D4F8E00402F060F910BD18
:1024200070B504460D4600BF94F89404012801D10C
:10243000022070BD012084F8940400BF6574294611
:10244000206803F047FC00BF002084F8940400BF1C
:1024500000BFEEE710B5044604F29C41D4F8E00456
:1024600002F068F910BD70B50446256800BF94F805
:102470009404012801D1022070BD012084F8940445
:1024800000BFE86800F0400030B1607B012803D154
:10249000A86B40F48030A863206803F007FB206835
:1024A00002F0C8FE00BF002084F8940400BF00BF03
:1024B000E2E7000010B50446D4F8E00402F097F912
:1024C0002068D0F8000E40F001002168C1F8000E2D
:1024D000E07A28B10348006840F00600014908602E
:1024E00010BD000010ED00E070B504460D460CB9BB
:1024F000012070BD5848006800F00F00A84209D2C2
:1025000055490D700846006800F00F00A84201D040
:102510000120EEE7207800F0020002281DD120788B
:1025200000F00400042805D14C48006840F4E05055
:102530004A490860207800F00800082805D147487B
:10254000006840F46040454908604448006820F055
:10255000F000A168084341490860207800F00100BC
:10256000A8B36068012807D13C4808380068C0F368
:102570004040B8B90120BCE76068022802D060681A
:10258000032807D1354808380068C0F3406048B9CF
:102590000120AEE7314808380068C0F3400008B9B0
:1025A0000120A6E72D48006820F003006168084379
:1025B0002A490860FEF7DCFF064609E0FEF7D8FF6F
:1025C000801B41F28831884202D9032091E707E05D
:1025D0002248006800F00C006168B0EB810FEDD17B
:1025E0001D48006800F00F00A84209D91A490D7073
:1025F0000846006800F00F00A84201D0012078E7EB
:10260000207800F00400042807D11448006820F462
:10261000E050E168084311490860207800F00800A4
:10262000082808D10D48006820F46040216940EA7C
:10263000C1000A49086000F01FF808490968C1F3A1
:102640000311074A515CC840064908600648006803
:10265000FEF7BEFF00204CE7003C02400838024075
:10266000B4890008140000103C01002001480068F3
:1026700070470000140000102DE9F04700240025E9
:102680000026A1462548006800F00C0020B104286F
:1026900005D008283AD105E0DFF8849039E0DFF86A
:1026A000849036E01D48001F006800F03F041B487E
:1026B000001F006800F4800078B11A481749091F0C
:1026C0000968C1F38811A0FB01700146224600236E
:1026D0003846FDF76DFE05460EE011480F49091F0B
:1026E0000968C1F38811A0FB01700146224600234E
:1026F0003846FDF75DFE05460848001F0068C0F338
:102700000140401C4600B5FBF6F902E0DFF81090EE
:1027100000BF00BF4846BDE8F0870000083802400F
:102720000024F40040787D01F8B504460CB901207E
:10273000F8BD207800F00100002874D0F948006846
:1027400000F00C0004280DD0F648006800F00C00E2
:10275000082813D1F348001F006800F48000B0F58A
:10276000800F0BD1EF4808380068C0F340400028C4
:1027700059D06068002856D10120D9E700BF6068B1
:10278000B0F5803F08D1E7480838006840F4803051
:10279000E449083908601EE06068B0F5A02F0DD14B
:1027A000E0480838006840F48020DE4908390860B5
:1027B0000846006840F4803008600CE0D9480838CA
:1027C000006820F48030D74908390860084600685E
:1027D00020F48020086000BF606890B1FEF7C8FE5A
:1027E000054606E0FEF7C4FE401B642801D903201D
:1027F0009EE7CC4808380068C0F340400028F1D07C
:1028000011E0FEF7B5FE054606E0FEF7B1FE401BFF
:10281000642801D903208BE7C24808380068C0F358
:1028200040400028F1D1207800F0020002285FD15A
:10283000BC48006800F00C0058B1BA48006800F0CD
:102840000C0008281CD1B748001F006800F4800065
:10285000B0B9B44808380068C0F3400020B1E0685F
:10286000012801D0012063E7AE480838006820F055
:10287000F800216940EAC100AA490839086037E038
:10288000E06800B30120A8490860FEF771FE054624
:1028900006E0FEF76DFE401B022801D9032047E742
:1028A000A04808380068C0F340000028F1D09D48D7
:1028B0000838006820F0F800216940EAC100994911
:1028C0000839086014E0002097490860FEF750FEC0
:1028D000054606E0FEF74CFE401B022801D9032006
:1028E00026E7904808380068C0F340000028F1D17E
:1028F000207800F0080008282CD16069A8B10120D8
:102900008A490860FEF734FE054606E0FEF730FE11
:10291000401B022801D903200AE782486C30006876
:10292000C0F340000028F1D014E000207F49086087
:10293000FEF71EFE054606E0FEF71AFE401B0228C3
:1029400001D90320F4E677486C300068C0F34000FA
:102950000028F1D1207800F00400042870D100276D
:1029600070483830006800F0805090B900BF0020F7
:1029700000906C483830006840F080506949383128
:1029800008600846006800F08050009000BF00BF5B
:1029900001276748006800F48070B0B96448006897
:1029A00040F4807062490860FEF7E2FD054606E0EB
:1029B000FEF7DEFD401B022801D90320B8E65C4883
:1029C000006800F480700028F2D000BFA0680128E1
:1029D00008D154486830006840F00100514968311E
:1029E00008601DE0A06805280DD14E4868300068D9
:1029F00040F004004B49683108600846006840F028
:102A0000010008600CE047486830006820F00100D1
:102A10004449683108600846006820F004000860F6
:102A200000BFA068A8B1FEF7A3FD054609E0FEF7C8
:102A30009FFD401B41F28831884202D9032077E68E
:102A400026E0384868300068C0F340000028EED027
:102A500013E0FEF78DFD054608E0FEF789FD401BFB
:102A600041F28831884201D9032061E62D4868305F
:102A70000068C0F340000028EFD1012F07D129489A
:102A80003830006820F0805026493831086000BF97
:102A9000A069002845D02348006800F00C000828F1
:102AA0005DD0A069022845D100201F490866FEF7C5
:102AB0005FFD054606E0FEF75BFD401B022801D9DD
:102AC000032035E6174808380068C0F34060002846
:102AD000F1D1D4E907010843616A40EA811101227A
:102AE000A06AC2EB500041EA00412C20005D41EA9F
:102AF00000600C49091F086001200B490866FEF7B9
:102B000037FD054606E0FEF733FD401B022801D9DC
:102B100003200DE6034808380068C0F34060002831
:102B2000F1D049E00838024000004742800E474299
:102B300000700040002021490866FEF719FD054697
:102B400006E0FEF715FD401B022801D90320EFE542
:102B50001B480068C0F340600028F2D12CE0A06957
:102B6000012800D1E4E51648001D0668A069012887
:102B700020D006F48001E06981421BD106F03F01BC
:102B8000206A814216D147F6C0703040616AB0EBCE
:102B9000811F0FD106F440310122A06AC2EB500020
:102BA000B1EB004F06D106F070612C20005DB1EB57
:102BB000006F01D00120BBE50020B9E500004742CD
:102BC0000038024010B504460CB9012010BD606AFF
:102BD00038B96068B0F5827F00D105E00021E1617D
:102BE00002E0002121616161A06AB0F5005F00D1BF
:102BF00000BF94F8510028B9002084F85000204606
:102C000000F050F8022084F851002068006820F09D
:102C1000400021680860A08800F48270218901F4D6
:102C200004410843A18901F400610843217C01F0BB
:102C300002010843217D01F001010843218B01F4C9
:102C400000710843217F01F0380108432021095D0C
:102C500001F080010843218D01F4005108432168EF
:102C600008600421A06901EA104094F8241001F0E2
:102C70001001084321684860A06AB0F5005F03D1E5
:102C8000A08D80B2216808612068C06920F40060CE
:102C90002168C86100206065012084F8510000208F
:102CA00094E7000010B586B00446142101A8FDF792
:102CB000D7FC1B49206888422FD100BF002000901C
:102CC0001848006840F480501649086008460068BB
:102CD00000F48050009000BF00BF00BF00200090B3
:102CE00010481438006840F001000E49143908609B
:102CF0000846006800F00100009000BF00BFA0205F
:102D000001900220029000200390032004900520EF
:102D1000059001A90448FEF723FB06B010BD000092
:102D200000300140443802400000024070B50446C3
:102D30002546681EB0F1807F01D301200FE0681E98
:102D40004FF0E02148610F214FF0FF3003F080F891
:102D500000204FF0E021886107200861002070BD4D
:102D600000BFFEE730B50B46002100BF16E00A2485
:102D7000B4EB107F05D9302404EB107403F8114034
:102D800005E0412404EB10740A3C03F811400001F3
:102D900000254C00641C1D554C1CE1B29142E6DB41
:102DA00030BD00001FB500200090019002900390FC
:102DB0003B483C4908600020486000213948816058
:102DC000012101610021017680F82010C16236499D
:102DD00081620021C1600821C161012180F83010A9
:102DE0004161FEF775F808B1FDF78AFF06200090F3
:102DF000012001900620029069462A48FDF796FFBF
:102E000008B1FDF77DFF0720009002200190694680
:102E10002448FDF78BFF08B1FDF772FF05200090F5
:102E20000320019069461F48FDF780FF08B1FDF7B8
:102E300067FF04200090019069461A48FDF776FF6D
:102E400008B1FDF75DFF0F20009005200190694655
:102E50001448FDF76BFF08B1FDF752FF0E200090FC
:102E60000620019069460F48FDF760FF08B1FDF7A5
:102E700047FF092000900720019069460948FDF7A7
:102E800055FF08B1FDF73CFF08200090019069460E
:102E90000448FDF74BFF08B1FDF732FF1FBD0000EE
:102EA00000220140C00F02200100000F08B500BF42
:102EB000002000900A48006840F48000084908603B
:102EC0000846006800F48000009000BF00BF0022A8
:102ED00005213820FEF7E0FB3820FEF7C9FB08BDCE
:102EE0003038024010B5114803F033F9104908603A
:102EF000104A0421082003F06BF80F4908600F4ABC
:102F000000210F4803F0A5F90E4908600E4A002180
:102F10000E4803F09EF90E4908600E4A00210E4843
:102F200003F097F90D49086010BD0000948900086E
:102F3000240000207C89000820000020108900085F
:102F4000613300081400002034890008557300081C
:102F50001800002058890008257500081C00002072
:102F600008B500BF002000902448006840F004002D
:102F7000224908600846006800F00400009000BF85
:102F800000BF00BF002000900846006840F020000D
:102F900008600846006800F02000009000BF00BFF5
:102FA00000BF002000900846006840F080000860E4
:102FB0000846006800F08000009000BF00BF00BF1E
:102FC000002000900846006840F0010008600846B4
:102FD000006800F00100009000BF00BF00BF0020AB
:102FE00000900846006840F002000860084600684B
:102FF00000F00200009000BF00BF08BD3038024062
:1030000010B51148114908604FF4827048604FF4C0
:1030100000410E4881600911C16002210161002157
:1030200041614FF4007181610821C1610021016299
:1030300041624FF4005181620721C162FFF7C2FD76
:1030400008B1FDF75DFE10BD0030014068100220A0
:1030500010B501220D490E4801F0C0F808B1FDF786
:103060004FFE0C490A4801F003FC08B1FDF748FE89
:103070000949074800F0BEFC08B1FDF741FE0448CD
:1030800001F0F8FC08B1FDF73BFE10BDE0000020A8
:10309000C0100220240000100000001000BFFEE756
:1030A00000BFFEE710B50248FEF714FD10BD00009A
:1030B0005401001010B50248FEF70CFD10BD0000D1
:1030C0005401001010B50248FEF704FD10BD0000C9
:1030D000540100102DE9F04704460D462668374696
:1030E000D6F8408007F5306000EB4510D0F8089026
:1030F000104880450BD909F40040B0F5004F06D1C7
:103100004FF4004107F5306000EB45108160204628
:10311000FFF7A0F90748804508D9A079012805D113
:1031200004F29C420121206802F0A4F90020BDE8CD
:10313000F08700000A30544F2DE9F04705460C4651
:10314000D5F800904E46D9F840A006F5306000EB67
:103150004410D0F80880A879012855D108F008005B
:1031600008280FD1434882450BD908F40040B0F538
:10317000004F7BD14FF4004106F5306000EB441066
:10318000816073E008F02000202806D1202106F598
:10319000306000EB4410816068E008F028000028EF
:1031A00064D1344882450CD908F40040B0F5004F92
:1031B00007D14FF4004106F5306000EB4410816008
:1031C00054E004EBC40105F5157000EB810706F52A
:1031D000306000EB4410396A0069C0F31200081A2D
:1031E000786164B9386930B905F29C4201212868D8
:1031F00002F040F903E07969F8680844F860E1B248
:103200002846FEF7DFFA31E01B4882451BD108F45F
:103210000040B0F5004F07D14FF4004106F5306093
:1032200000EB4410816021E008F02000202805D147
:10323000202106F5306000EB44108160E1B22846A1
:10324000FEF7C0FA12E06CB904EBC40105F5157085
:1032500000EB8100006928B905F29C420021286832
:1032600002F008F9E1B22846FEF7ACFA0020BDE80A
:10327000F08700000A30544F0A31544F2DE9F84FBF
:1032800007460E46D7F80090C84606EBC60107F180
:10329000140000EB8104D4E90410884202D9012013
:1032A000BDE8F88FD4E90401451AA068A84200D20D
:1032B000A568E81C4FEA900A17E0D4E90401451A12
:1032C000A068A84200D2A568E81C4FEA900AB87925
:1032D000ABB2F2B200904846E16802F08DFDE068C2
:1032E0002844E06060692844606108F5106000EBE4
:1032F0004610806980B2504506D3D4E90410884254
:1033000002D220690028D8D1D4E9040188420ED81D
:1033100006F00F01012000FA01FB40F6340050F8DE
:10332000080020EA0B0040F6340141F808000020B4
:10333000B6E770B504462046FDF726F9401CC5B235
:1033400023462A4600210846FDF78EFB70BD30B5A6
:1033500001460A461378521C147843EA042030BD13
:10336000FFF776FE00BF012002F09DFDFBE710B5E0
:10337000FEF704F905F01EF8012801D004F080FAE8
:1033800010BD000000B593B0302107A8FDF768F923
:10339000142102A8FDF764F900BF00200190254820
:1033A000006840F08050234908600846006800F03B
:1033B0008050019000BF00BF00BF002001901E4858
:1033C000006820F4404040F480401B4908600846F3
:1033D000006800F44040019000BF00BF012007904A
:1033E0000004089002200D9041050E910F210F91CD
:1033F00090211091022111910521129107A8FFF748
:1034000093F908B1FDF77CFC0F2002900220039095
:10341000002004904FF4A05005904FF48050069087
:10342000032102A8FFF760F808B1FDF769FC13B0AB
:1034300000BD0000403802400070004003480068B2
:1034400040F47000014908607047000088ED00E01A
:103450002DE9F04104460D46D4F8C87204F53070E9
:10346000D4F8D41250F8210010B90320BDE8F0813F
:1034700004F53070D4F8D41250F8216005F00F0034
:1034800000EB800104F1140000EB8100406838B3C8
:1034900005F00F0000EB800104F1140000EB810047
:1034A000416805F00F0000EBC00207F1140000EBCB
:1034B00082008068B1FBF0F200FB121080B900219D
:1034C00005F00F0000EB800204F1140000EB820015
:1034D000416000231A462946204601F096F917E07C
:1034E0000020C6F8140204F53170D4F8D41250F854
:1034F0002100006960B1D6F8080204F53171D4F8F2
:10350000D42251F822102A460B6906F50471984717
:103510000020ABE770B504460E4604F53070D4F8D1
:10352000D41250F82150D4F8D41250F8210008B920
:10353000032070BD3146204600F0AEFFC5F80C02F6
:10354000D5F8040204F53171D4F8D42251F82210D0
:103550003246CB6805F5037198470020E9E7000083
:1035600070B504460D463B480178204600F066FEE3
:1035700000213848007800F00F0000EB800204F1D1
:10358000140000EB8200018233480178204600F0ED
:1035900055FE00213048007800F00F0000EB80025B
:1035A00004F5AA7000EB820001820321204600F09E
:1035B00045FE0021A4F860108321204600F03EFE65
:1035C0000021A4F8A0118421204600F037FE00213C
:1035D000A4F8B41121480178204600F02FFE002104
:1035E0001E48007800F00F0000EB800204F1140088
:1035F00000EB820001821948007800F00F0000EB18
:10360000800204F1140000EB8200418204F5307066
:10361000D4F8D41250F82100C8B104F53171D4F8AF
:10362000D42251F822104868804704F53071D4F84C
:10363000D42251F8220001F063FC002104F530701F
:10364000D4F8D42240F822100020C4F8BC02002094
:1036500070BD0000A3000010A4000010A500001021
:1036600070B5044604F53070D4F8D41250F82150E7
:103670000DB9032070BD04F53170D4F8D41250F8A0
:10368000210098B195F80002FF280FD095F801228B
:1036900095F8000204F53171D4F8D46251F826107F
:1036A0008B6829469847FF2085F800020020E1E753
:1036B00001460A20088001487047000018000010E9
:1036C0002DE9F041044682210D4800F059FC0546E1
:1036D00001210B4800F054FC06468121084800F007
:1036E0004FFC07460DB11020A8710EB14020B080EC
:1036F0000FB14020B880432020800148BDE8F08110
:10370000600000102DE9F041044682210E4800F0CF
:1037100037FC054601210C4800F032FC06468121A9
:10372000094800F02DFC07460DB11020A87116B114
:103730004FF40070B08017B14FF40070B880432090
:1037400020800148BDE8F081600000102DE9F041C3
:10375000044682210D4800F013FC054601210B4868
:1037600000F00EFC06468121084800F009FC0746DF
:103770000DB11020A8710EB14020B0800FB14020D3
:10378000B880432020800148BDE8F081600000102F
:1037900070B504460E464FF4077001F0B3FB0546C2
:1037A00045B9002104F53070D4F8D42240F8221035
:1037B000022070BD4FF407712846FCF751FF04F555
:1037C0003070D4F8D41240F82150D4F8D41250F804
:1037D0002100C4F8BC02207C00284ED14FF40073B5
:1037E00002226F480178204600F008FF01216C4852
:1037F000007800F00F0000EB800204F1140000EBF1
:10380000820001824B02022266480178204600F0C5
:10381000F5FE01216348007800F00F0000EB800204
:1038200004F5AA7000EB820001824B020222032100
:10383000204600F0E3FE0121A4F8A0114B02022271
:103840008321204600F0DAFE0121A4F860104B022B
:1038500002228421204600F0D1FE0121A4F8741038
:1038600010215148007800F00F0000EB800204F1B5
:10387000140000EB820041824DE04FF400730222FD
:1038800047480178204600F0B9FE012144480078FD
:1038900000F00F0000EB800204F1140000EB820046
:1038A00001824B0202223F480178204600F0A6FE2A
:1038B00001213C48007800F00F0000EB800204F585
:1038C000AA7000EB820001824B02022203212046F3
:1038D00000F094FE0121A4F8A0114B0202228321E2
:1038E000204600F08BFE0121A4F860104B0202225A
:1038F0008421204600F082FE0121A4F874101021DA
:103900002948007800F00F0000EB800204F1140059
:1039100000EB8200418208230322234801782046DD
:1039200000F06CFE01212048007800F00F0000EB51
:10393000800204F1140000EB820001820020C5F82F
:10394000040204F53171D4F8D42251F82210086829
:1039500080470020C5F81402C5F81802D5F8040203
:1039600008B9022025E7207C48B94FF400730D48C0
:1039700001782046D5F8042200F058FE0EE04023DE
:10398000084801782046D5F8042200F04FFE402375
:1039900003212046D5F8042200F048FE002008E765
:1039A000A3000010A4000010A500001070B504468C
:1039B0000E4604F53070D4F8D41250F82150D4F8E3
:1039C000D41250F8210008B9032070BD207C40B902
:1039D0004FF4007331462046D5F8042200F026FE4D
:1039E00006E0402331462046D5F8042200F01EFEB2
:1039F0000020EAE7024609B90320704702F531705A
:103A0000D2F8D43240F823100020F6E710B5024671
:103A100002F53070D2F8D44250F824300BB90320AC
:103A200010BDC3F804120020FAE730B503460C4677
:103A300003F53070D3F8D45250F8251009B903209B
:103A400030BDC1F80842C1F810220020F8E72DE986
:103A5000FC4105460C4605F53070D5F8D41250F8F7
:103A60002160002001900090804616B90320BDE837
:103A7000FC81207800F0600000283DD020287CD117
:103A8000E08868B3207800F08000B8B1E288607800
:103A900005F53171D5F8D4C251F82C108B68314638
:103AA0009847E088072801D9072000E0E08807460A
:103AB0003A463146284600F00DF91CE0607886F859
:103AC0000002E088402801D2E08800E0402086F82B
:103AD000010296F801223146284600F0DAF80AE0A1
:103AE000607805F53171D5F8D42251F82210002202
:103AF0008B682146984747E0607830B1012832D082
:103B00000A2813D00B282FD121E095F89C02032816
:103B100005D102226946284600F0DCF805E021467E
:103B2000284600F0AAF84FF0030824E095F89C021C
:103B3000032805D1012201A9284600F0CBF805E0B1
:103B40002146284600F099F84FF0030813E095F855
:103B50009C02032805D02146284600F08EF84FF03D
:103B6000030808E009E006E02146284600F085F851
:103B70004FF0030800BF00BF06E02146284600F0D2
:103B80007CF84FF0030800BF00BF40466FE72DE907
:103B9000F04105460E4605F53070D5F8D41250F8C0
:103BA0002140012714B90320BDE8F081D4F81402A4
:103BB000B0B90120C4F8140206F00F0000EB800237
:103BC00005F1140000EB8200D4F810124160314678
:103BD0002846D4F81032D4F8082200F016FE002748
:103BE0003846E1E770B504460D460026D4F8B80221
:103BF000294642682046904700B10326304670BDF2
:103C000070B504460D4694F89C02012804D00228A1
:103C100003D003280CD101E000BF00BF6888012851
:103C200005D10020C4F8A402204600F064F804E0A6
:103C30002946204600F021F800BF00BF70BD0246B3
:103C40000020704702460020704770B506460C46BB
:103C500015462B4622460021304600F0E7FC0020A6
:103C600070BD70B506460C4615462B46224600210F
:103C7000304600F0CAFD002070BD70B504460D4608
:103C80008021204600F091FD0021204600F08DFDAE
:103C900070BD70B504460E4615460320C4F8940264
:103CA0004FF4AC700551001D05512B4632460021E2
:103CB000204600F0BBFC002070BD10B50446052076
:103CC000C4F8940200231A461946204600F0AEFCC0
:103CD000002010BD70B504460E4615460220C4F8FB
:103CE0009402A561E5612B4632460021204600F092
:103CF0008CFD002070BD10B504460420C4F8940269
:103D000000231A461946204600F07FFD002010BD12
:103D100070B504460D46E888012804D0294620469F
:103D2000FFF7ABFF1EE094F89C02012804D00228A4
:103D300003D0032810D109E000BF0020A0600122B9
:103D400004F108012046FFF7C5FF0AE00122211D0A
:103D50002046FFF7BFFF04E029462046FFF78DFF0E
:103D600000BF00BF70BDF8B504460E4600200090AD
:103D70000027002570880012082871D2DFE800F0C3
:103D8000D6040C20D6D6B4C4207CD4F8B4120A6869
:103D9000694690470746D0E0207C40B9D4F8B80285
:103DA000816A6846884707460220787007E0D4F8A1
:103DB000B802C16A68468847074602207870BCE0AE
:103DC000B07803284DD005DC88B1012822D0022824
:103DD00079D132E0042857D0052868D0EE287AD16E
:103DE000D4F8B802816B6846884707467AE0D4F871
:103DF000B402406838B1207CD4F8B4124A686946ED
:103E00009047074605E031462046FFF736FF681C1D
:103E1000C5B267E0D4F8B402806838B1207CD4F829
:103E2000B4128A6869469047074605E03146204645
:103E3000FFF723FF681CC5B254E0D4F8B402C06891
:103E400038B1207CD4F8B412CA6869469047074656
:103E500005E031462046FFF710FF681CC5B241E07F
:103E600064E0D4F8B402006938B1207CD4F8B4120C
:103E70000A6969469047074605E031462046FFF744
:103E8000FCFE681CC5B22DE0D4F8B402406938B11C
:103E9000207CD4F8B4124A6969469047074605E089
:103EA00031462046FFF7E9FE681CC5B21AE0D4F897
:103EB000B402806940B1207CD4F8B4128A696946A2
:103EC0009047074606E006E031462046FFF7D5FE5C
:103ED000681CC5B206E031462046FFF7CEFE681CDE
:103EE000C5B200BF00BF28E0207C30B9D4F8B802CA
:103EF000416B68468847074605E031462046FFF794
:103F0000BCFE681CC5B218E0207C40B9D4F8B802E9
:103F1000016B6846884707460720787005E0314600
:103F20002046FFF7AAFE681CC5B206E031462046CF
:103F3000FFF7A3FE681CC5B200BF00BF05B1F8BD06
:103F4000F088C0B1BDF8000080B1F088BDF8001065
:103F5000884202DDBDF8000000E0F0880090BDF866
:103F6000002039462046FFF7B5FE07E031462046DF
:103F7000FFF783FE02E02046FFF7BDFE00BFDEE74D
:103F80002DE9F84105460F462C462E464FF0000815
:103F900070883178884218DD307800900FE06946EB
:103FA000204600F020F804466078052807D1A04696
:103FB00098F80200B84200D106E04FF0000870887F
:103FC000BDF800108842EADC00BF4046BDE8F88139
:103FD000014600200A4602E0431CD8B2521C137866
:103FE000002BF9D1704710B5024610460B880478B3
:103FF00023440B800378981810BD70B504460D4615
:1040000094F89C02012804D0022803D003281AD176
:1040100001E000BF00BFE888022804D029462046FE
:10402000FFF72BFE14E00120E060D4F8A40218B1E1
:10403000E06840F00200E060022204F10C0120463A
:10404000FFF748FE04E029462046FFF716FE00BFB2
:1040500000BF70BD2DE9F04107460D469046002493
:104060000FB9BDE8F0813E463046FFF7B1FF0221AF
:1040700001EB4000A8F8000098F800002855601CEB
:10408000C4B203202855601CC4B208E0307828551B
:10409000761C601CC4B200202855601CC4B2307865
:1040A0000028F3D100BFDCE70146002031B101292F
:1040B00006D0022906D0032908D105E0002007E038
:1040C000032005E0012003E0032001E0032000BFFE
:1040D00000BF704770B505460C462DB9224606490B
:1040E00006A0FFF7B7FF04E02246034903A0FFF74D
:1040F000B1FF014870BD00001401001057494E5532
:10410000534220436F6E666967000000024612202A
:1041100008800148704700000401002070B5054682
:104120000C462DB92246064906A0FFF793FF04E08E
:104130002246034903A0FFF78DFF014870BD000030
:104140001401001057494E55534220496E74657250
:104150006661636500000000024604200880014893
:10416000704700001801002070B505460C46224635
:10417000024903A0FFF76EFF004870BD1401001054
:1041800053544D6963726F656C656374726F6E69C9
:104190006373000070B505460C462DB922460649EA
:1041A00006A0FFF757FF04E02246034903A0FFF7EC
:1041B00051FF014870BD00001401001054414945F1
:1041C0005200000070B505460C461A202080FCF70E
:1041D0009BFD014870BD00001C0100202DE9F0414D
:1041E00004460D46164614B90320BDE8F0810020B0
:1041F000C4F8B802C4F8C402C4F8D0020DB1C4F8BF
:10420000B452012084F89C022670204600F04EF93A
:1042100007463846E9E72DE9F04104460D460026F9
:1042200000272946D4F8C802FDF739FB0646304678
:10423000FFF73AFF07463846BDE8F0812DE9F04127
:1042400004460D46002600272946D4F8C802FDF78B
:10425000F1FA06463046FFF727FF07463846BDE825
:10426000F0812DE9F04704460F469146002F56D1C4
:1042700004F11405D4F89402022846D1D5E90201CC
:1042800088420FD9D5E90201401AA8604946204664
:10429000AA68FFF7E6FC00231A461946204600F0FC
:1042A000C5F932E0D5E90210884217D1E96868689B
:1042B000884213D36868D4F8981288420ED200223C
:1042C00011462046FFF7CDFC0020C4F898020023D9
:1042D0001A461946204600F0A9F916E094F89C0207
:1042E00003280BD1D4F8B802C06838B10020C4F854
:1042F000D402D4F8B802C1682046884780212046FD
:1043000000F053FA2046FFF7D8FC94F8A00250B30F
:10431000204600F0D1FA002084F8A00223E047F004
:1043200080012046FFF78BFC0646FF2E1BD0D6B936
:1043300094F89C02032816D104F52E7050F826003C
:10434000406980B1C4F8D46204F52E7050F826009C
:1043500039464269204690478046B8F1000F02D0A6
:104360004046BDE8F0870020FBE72DE9F047054611
:104370000F4690464FF00009002F51D105F5AA765F
:10438000D5F8940203286FD1D6E90201884210D9EA
:10439000D6E90201401AB060D6E90201884201D292
:1043A000B06800E0F068024641462846FFF74DFC41
:1043B0005AE095F8AA0200F01F0020B1012804D0AD
:1043C000022812D109E0002411E040F2AE20415D44
:1043D0002846FFF737FC044609E040F2AE20415D75
:1043E0002846FFF72CFC044601E0002400BF00BF74
:1043F00094B995F89C0203280ED105F52E7050F85B
:104400002400006940B1C5F8D44205F52E7050F87B
:1044100024000169284688472846FFF76CFC23E002
:1044200007F07F012846FFF70AFC0446FF2C1BD04B
:10443000D4B995F89C02032810D105F52E7050F8D8
:104440002400806950B1C5F8D44205F52E7050F8AB
:10445000240039468269284690478146B9F1000F09
:1044600002D04846BDE8F0870020FBE70146002067
:10447000704770B504460025012084F89C02D4F8EA
:10448000B80238B12179D4F8B80242682046904782
:1044900000B10325284670BD70B504460D46294677
:1044A000D4F8C802FDF739FA70BD000010B5044613
:1044B0002078012838D11D48C0F8E044C4F8C8026B
:1044C0001B481A4908600620087102211748C1716B
:1044D000002181710221417200218172C172017338
:1044E0008173C1730174FDF76CFE08B1FCF708FC21
:1044F0004FF400710D48FDF722F9802200210B488E
:10450000FDF722F94FF4BA7201210848FDF71CF9B2
:104510004FF4BA7203210548FDF716F94FF4BA7249
:1045200004210248FDF710F9002010BD54010010CD
:104530000000044010B50246D2F8C83201F08000F5
:10454000802809D101F07F0000EBC00403F11400C2
:1045500000EB8400807810BD01F07F0000EBC00408
:1045600003F5157000EB84008078F4E770B504461D
:104570000D4604F52E70D4F8D41250F8210008B975
:10458000032070BD94F89C02032811D104F52E700D
:10459000D4F8D41250F82100006A48B104F52E7006
:1045A000D4F8D41250F821002946026A20469047D8
:1045B0000020E6E770B504460D4604F52E70D4F8E9
:1045C000D41250F8210008B9032070BD94F89C0261
:1045D000032811D104F52E70D4F8D41250F821001C
:1045E000406A48B104F52E70D4F8D41250F8210076
:1045F0002946426A204690470020E6E72DE9F04729
:1046000004460F4615461E464FF00008C1462B468D
:1046100032463946D4F8C802FDF78AF9804640464A
:10462000FFF742FD81464846BDE8F0872DE9F04797
:1046300004460D4616461F464FF00008C1463B464D
:1046400032462946D4F8C802FDF7B8F980464046FC
:10465000FFF72AFD81464846BDE8F08770B504465D
:104660000025012084F89C020020C4F894026060B8
:10467000C4F8A40284F8A002D4F8B80258B1D4F85F
:10468000B802406838B12179D4F8B80242682046AF
:10469000904700B103254023002211462046FFF732
:1046A000ADFF01214FF4B27001534021001F0151B1
:1046B0004023002280212046FFF7A0FF0121A18492
:1046C00040212162284670BD014691F89C020428D1
:1046D00003D191F89D0281F89C020020704710B52B
:1046E000044694F89C0203280BD1D4F8B80240B1D8
:1046F000D4F8B802C06920B1D4F8B802C169204624
:104700008847002010BD02461174002070472DE933
:10471000F04104460D46002600272946D4F8C80279
:10472000FDF77EFE06463046FFF7BEFC07463846DC
:10473000BDE8F08170B504460D46294604F2AA2072
:1047400000F07BF80120C4F894024FF42C70005B59
:10475000C4F8980294F8AA0200F01F0020B10128C2
:1047600009D0022815D10DE004F2AA21204600F05C
:1047700087F9064616E004F2AA21204600F010FB55
:1047800006460FE004F2AA21204600F0C9F90646C9
:1047900008E094F8AA0200F08001204600F005F835
:1047A000064600BF00BF304670BD2DE9F04104460B
:1047B0000D46002600272946D4F8C802FDF721F946
:1047C00006463046FFF770FC07463846BDE8F081E4
:1047D00070B5044600250026D4F8C802FDF743FE54
:1047E00005462846FFF760FC0646304670BD014688
:1047F00091F89C02042803D091F89C0281F89D0254
:10480000042081F89C02002070472DE9F0470446FF
:104810000D4616461F464FF00008C1463B4632463D
:104820002946D4F8C802FDF731F980464046FFF723
:104830003BFC81464846BDE8F08770B505460E460C
:10484000344620782870641C20786870641C2046E8
:10485000FEF77DFD6880641C641C2046FEF777FD32
:10486000A880641C641C2046FEF771FDE88070BDC2
:1048700038B504460D46002000900DB9032038BD20
:10488000C4F8B85204F52E70D4F8D41250F82100B0
:10489000C06A50B104F52E70D4F8D42250F822002A
:1048A000C16A68468847C4F8D002D4F8D802401CD0
:1048B000C4F8D8020020E2E701460020704770B536
:1048C00004460D46A88810BBE88800BB688880288D
:1048D0001DD2A87800F07F0694F89C02032804D12A
:1048E00029462046FFF7C9F915E084F89E62314653
:1048F0002046FFF70CFF2046FFF7FDF91EB102200E
:1049000084F89C0207E0012084F89C0203E0294619
:104910002046FFF7B2F970BD70B504460D4600267B
:10492000D4F8B80230B1D4F8B8022946026820465B
:1049300090470646304670BD70B504460E460025C9
:10494000B0783D49087008460078012805D93146FD
:104950002046FFF792F9032070BD94F89C020228CC
:1049600002D0032859D11FE033480078C0B1324843
:1049700000786060304801782046FFF7CDFF05469B
:104980003DB131462046FFF778F9022084F89C02B9
:1049900009E02046FFF7AFF9032084F89C0202E00B
:1049A0002046FFF7A8F943E02348007870B90220B9
:1049B00084F89C022048007860601F4801782046F7
:1049C000FFF710F92046FFF796F925E01A49097814
:1049D000606888421DD021792046FFF703F9164808
:1049E00000786060144801782046FFF795FF05467F
:1049F0005DB131462046FFF740F921792046FFF7A7
:104A0000F1F8022084F89C0206E02046FFF773F9D3
:104A100002E02046FFF76FF90AE031462046FFF733
:104A20002CF9054801782046FFF7DCF8032500BF84
:104A300000BF284690E700004101002070B5054600
:104A40000C466088012805D1C5F8A4022846FFF766
:104A500052F90EE06088022807D1A088001285F87C
:104A6000A0022846FFF747F903E021462846FFF752
:104A700004F970BD10B504462046FFF7A9FE10BD2D
:104A800070B505460C460026207800F0600050B155
:104A9000202802D040283BD100E000BF2146284614
:104AA00000F0DCF939E060780A282AD2DFE800F06B
:104AB0001A24291F290A0529150F21462846FFF720
:104AC00052F923E021462846FFF7F9FE1EE0214671
:104AD0002846FFF731FF064618E021462846FFF733
:104AE00017F913E021462846FFF787FA0EE0214622
:104AF0002846FFF7A3FF09E021462846FFF780F884
:104B000004E021462846FFF7B8F800BF00BF04E0E4
:104B100021462846FFF7B1F800BF00BF304670BD00
:104B20002DE9F04705460F464FF000093C793878EB
:104B300000F06000F8B1202802D040287DD100E0CC
:104B400000BF21462846FFF77AF80646FF2E11D00F
:104B500086B9C5F8D46205F52E7050F82600806835
:104B600040B105F52E7050F8260039468268284677
:104B70009047814610E1787800287AD001282FD01C
:104B800003286ED195F89C02022802D0032820D178
:104B900010E054B1802C08D021462846FFF705FECE
:104BA00080212846FFF701FE03E039462846FFF73B
:104BB00064F813E0788840B93CB1802C05D0F888BF
:104BC00018B921462846FFF7F0FD2846FFF793F86D
:104BD00004E039462846FFF750F800BF00BFD4E094
:104BE00095F89C02022802D003283BD110E054B172
:104BF000802C08D021462846FFF7D7FD8021284683
:104C0000FFF7D3FD03E039462846FFF736F82EE0DC
:104C1000788820BB04F07F0018B121462846FFF7B2
:104C2000FAFA2846FFF767F821462846FFF707F803
:104C30000646FF2E13D096B900E0A8E0C5F8D4626E
:104C400005F52E7050F82600806840B105F52E70ED
:104C500050F826003946826828469047814606E08B
:104C600007E08DE039462846FFF707F800BF00BF90
:104C70008BE095F89C02022802D0032879D126E027
:104C800034B1802C04D039462846FEF7F6FF75E093
:104C900004F08000802808D104F07F0000EB800140
:104CA00005F1140000EB810007E004F07F0000EB49
:104CB000800105F5AA7000EB810080460020C8F84D
:104CC0000000022241462846FFF704F856E004F0AF
:104CD000800080280ED104F00F0000EB800105F168
:104CE000140000EB8100008A98B939462846FEF787
:104CF000C4FF43E004F00F0000EB800105F5AA704B
:104D000000EB8100008A20B939462846FEF7B5FF3E
:104D100034E004F08000802808D104F07F0000EB2C
:104D2000800105F1140000EB810007E004F07F0032
:104D300000EB800105F5AA7000EB810080460CB104
:104D4000802C03D10020C8F800000CE02146284642
:104D5000FFF7F0FB20B10120C8F8000003E008E0F5
:104D60000020C8F80000022241462846FEF7B2FFA4
:104D700004E039462846FEF780FF00BF00BF04E08C
:104D800039462846FEF779FF00BF00BF04E03946E8
:104D90002846FEF772FF00BF00BF4846BDE8F08717
:104DA0002DE9F04106460D460027287800F0600006
:104DB00030B1202802D0402847D100E000BF00BF1A
:104DC00096F89C02012804D0022803D0032835D18C
:104DD00001E000BF00BF2879012822D82979304698
:104DE000FEF730FF0446FF2C14D09CB906F52E7058
:104DF00050F82400806858B1C6F8D44206F52E70E9
:104E000050F824002946826830469047074602E061
:104E1000032700E00327E88818B917B93046FEF7E2
:104E20006AFF2878C12804D12946304600F016F8D8
:104E300009E029463046FEF720FF04E029463046C7
:104E4000FEF71BFF00BF00BF04E029463046FEF717
:104E500014FF00BF00BF3846BDE8F081F8B5064634
:104E60000C46A088042802D005280ED106E0D6F80A
:104E7000B402C1696846884705460BE0D6F8B4021B
:104E8000016A68468847054604E021463046FEF739
:104E9000F4FEF8BD00BFBDF8000088B1E08878B12D
:104EA000E088BDF80010884202DDBDF8000000E097
:104EB000E0880090BDF8002029463046FEF70AFF42
:104EC00000BFE6E70146282008800148704700003F
:104ED0002800002001468E2008800148704700000D
:104EE0005000002010B50446224603490348FFF74E
:104EF000B1F8014810BD000014010010A489000899
:104F00007047000001460148704700003806001055
:104F100070B504460B4622461978587801282CD1E2
:104F200040F61C0080581D7805F00F060125B5409D
:104F3000ADB2284340F61C05A85002F5106000EB06
:104F40004110006800F40040F0BB1889C0F30A006B
:104F50001D7940EA854040EA815040F0805040F49D
:104F6000004002F5106505EB41152D68284302F558
:104F7000106505EB411528602DE040F61C008058B7
:104F80001D7805F00F060125B540144E06EA0545CB
:104F9000284340F61C05A85002F5306000EB411094
:104FA000006800F4004078B91889C0F30A001D7940
:104FB00040EA854040F0805040F4004002F5306502
:104FC00005EB41152D6800E005E0284302F530654A
:104FD00005EB41152860002070BD00000000FFFFB8
:104FE00001460A464FF410608058C30ADB024FF4B2
:104FF0001060835040F60400805840F4807340F6FF
:1050000004008350002070470FB470B504469DF82B
:105010001900012818D1A06B20F48030A063E0684B
:105020001B490840E060E06820F44010E0609DF813
:105030002000012803D1E06840F48010E0602046A1
:1050400000F028F8054613E0E06840F04000E0601A
:10505000204600F01FF805469DF81D0020B9A06B02
:1050600040F48030A06303E0A06B20F48030A063A4
:105070009DF81600012807D1A06840F00600A06046
:10508000A06840F02000A060284670BC5DF814FBCA
:10509000BFFFBDFF08B501460020009000BF00988B
:1050A000401C00900098B0F1706F01D9032008BD3A
:1050B000086900F000400028F1D000200090086945
:1050C00040F00100086100BF0098401C009000986B
:1050D000B0F1706F01D90320E9E7086900F0010021
:1050E0000028F1D100BFE2E770B504460B46224626
:1050F00019785878012848D102F5106000EB41106A
:10510000006800F00040B0F1004F17D102F51060C8
:1051100000EB4110006840F0006502F5106000EB04
:105120004110056002F5106000EB4110006840F08E
:10513000804502F5106000EB4110056040F63C0030
:1051400080581D7805F00F060125B540ADB2A84383
:1051500040F63C05A85040F61C0080581D7805F02C
:105160000F060125B540ADB2A84340F61C05A85076
:1051700002F5106000EB411000682B4D284002F54D
:10518000106505EB411528604BE002F5306000EB3F
:105190004110006800F00040B0F1004F17D102F557
:1051A000306000EB4110006840F0006502F53060AF
:1051B00000EB4110056002F5306000EB4110006823
:1051C00040F0804502F5306000EB4110056040F68C
:1051D0003C0080581D7805F00F060125B540134EA0
:1051E00006EA0545A84340F63C05A85040F61C00D9
:1051F0008558187800F00F060120B0400B4E06EAE3
:105200000040854340F61C00855002F5306000EBFD
:1052100041100068064D284002F5306505EB411548
:105220002860002070BD0000007833EC0000FFFF14
:105230000078F3EF01460A46D2F8000E20F0030092
:10524000C2F8000E40F60400805820F0020340F639
:10525000040083500020704701460A46D2F8000E31
:1052600020F00300C2F8000E40F60400805840F021
:10527000020340F604008350002070470FB4F0B5DD
:10528000054600272E46002405E0002105F5827022
:1052900040F82410641C0F2CF7D39DF82200A0B90D
:1052A00040F60400805940F0020140F604008151AC
:1052B000A86B40F40010A863A86B20F40020A8633A
:1052C000A86B20F48020A86307E0A86B20F40010EE
:1052D000A863A86B40F40020A8630020C6F8000E65
:1052E0009DF81D0001280CD19DF81B0020B900215C
:1052F000284600F004FD08E00121284600F0FFFCEC
:1053000003E00321284600F0FAFC1021284600F0B3
:10531000FCFB00B10127284600F0CFFB00B10127BC
:1053200000214FF401608151001D815140F61C00A5
:10533000815100242EE006F5106000EB4410006857
:1053400000F00040B0F1004F10D13CB94FF00061C7
:1053500006F5106000EB441001600DE04FF0904145
:1053600006F5106000EB4410016005E0002106F531
:10537000106000EB44100160002106F5106000EBA6
:10538000441001614FF67F3106F5106000EB4410C8
:105390008160641C9DF81800A042CCD800242EE047
:1053A00006F5306000EB4410006800F00040B0F1FA
:1053B000004F10D13CB94FF0006106F5306000EBB2
:1053C000441001600DE04FF0904106F5306000EBB5
:1053D0004410016005E0002106F5306000EB441048
:1053E0000160002106F5306000EB441001614FF6CA
:1053F0007F3106F5306000EB44108160641C9DF83D
:105400001800A042CCD84FF40160805920F480717C
:105410004FF4016081510020A8616FF08040686105
:105420009DF81A0018B9A86940F01000A861A86991
:105430000A490843A8619DF81E0018B1A86940F008
:105440000800A8619DF82200012803D1A869044939
:105450000843A8613846F0BC5DF814FB00383C8076
:10546000040000400146886820F0010088600020A8
:105470007047000070B503460C4619461D6C18486D
:10548000854209D94FF43060405800F00040B0F137
:10549000004F01D1002070BD0026C1F8106BD1F87B
:1054A000100B40F40026C1F8106BD1F8100B40F03F
:1054B0001806C1F8106BD1F8100B40F0C046C1F8C7
:1054C000106B012C09D1C1F8142B4FF430604058F7
:1054D00040F080264FF4306046500020DBE70000AB
:1054E0000A30544F30B504460B4622461978587896
:1054F00001281ED102F5106000EB4110006820F475
:10550000001502F5106000EB4110056018790328C2
:1055100002D0187902282AD102F5106000EB411060
:10552000006840F0805502F5106000EB4110056006
:105530001DE002F5306000EB4110006820F400151A
:1055400002F5306000EB411005601879032802D0A5
:10555000187902280BD102F5306000EB4110006889
:1055600040F0805502F5306000EB411005600020EE
:1055700030BD30B504460B462246197858780128CC
:1055800021D102F5106000EB4110006800F00040EE
:1055900060B959B102F5106000EB4110006820F0CD
:1055A000804502F5106000EB4110056002F51060C7
:1055B00000EB4110006840F4001502F5106000EBAC
:1055C0004110056020E002F5306000EB41100068FA
:1055D00000F0004060B959B102F5306000EB4110B5
:1055E000006820F0804502F5306000EB4110056056
:1055F00002F5306000EB4110006840F4001502F540
:10560000306000EB41100560002030BD2DE9F8430B
:1056100081460E4617464D463478707801287DD174
:10562000306920BB05F5106000EB44100069E349C8
:10563000084005F5106101EB4411086105F51060A3
:1056400000EB4410006940F4002105F5106000EB08
:105650004410016105F5106000EB44100069C10CB5
:10566000C90405F5106000EB441001616BE005F51D
:10567000106000EB44100069C10CC90405F510600E
:1056800000EB4410016105F5106000EB4410006967
:10569000CA49084005F5106101EB4411086194B94D
:1056A000B1683069884201D9B068306105F5106091
:1056B00000EB4410006940F4002105F5106000EB98
:1056C0004410016114E0B16830690844401EB0FB29
:1056D000F1F0BA49C94301EAC04005F5106101EB98
:1056E00044110969084305F5106101EB4411086193
:1056F00005F5106000EB441000693169C1F3120137
:10570000084305F5106101EB441108613079012867
:1057100019D105F5106000EB441000E093E000693A
:1057200020F0C04105F5106000EB4410016105F563
:10573000106000EB4410006940F0005105F5106066
:1057400000EB44100161012F36D1F06928B105F555
:10575000106000EB4410F1694161307901281ED1DD
:1057600040F60800405900F4807060B905F51060FB
:1057700000EB4410006840F0005105F5106000EBAC
:10578000441001600BE005F5106000EB4410006868
:1057900040F0805105F5106000EB4410016005F504
:1057A000106000EB4410006840F0044105F5106003
:1057B00000EB44100160FEE005F5106000EB4410C2
:1057C000006840F0044105F5106000EB44100160F2
:1057D000307901280FD030690028ECD040F6340031
:1057E0004059317801F00F0201219140084340F601
:1057F00034014851DFE040F60800405900F4807061
:1058000060B905F5106000EB4410006840F00051ED
:1058100005F5106000EB441001600BE005F5106029
:1058200000EB4410006840F0805105F5106000EB7B
:10583000441001600097308A83B232784846F1689C
:1058400000F0DAFAB7E005F5306000EB44100069CB
:10585000C10CC90405F5306000EB4410016105F589
:10586000306000EB441000695449084005F5306190
:1058700001EB4411086104BB306908B1B0683061C4
:10588000B068306205F5306000EB44100069316AA1
:10589000C1F31201084305F5306101EB44110861C1
:1058A00005F5306000EB4410006940F4002105F577
:1058B000306000EB4410016145E03069D0B905F576
:1058C000306000EB44100069B168C1F31201084375
:1058D00005F5306101EB4411086105F5306000EB1E
:1058E0004410006940F4002105F5306000EB4410DD
:1058F000016128E0B16830690844401EB0FBF1F056
:105900001FFA80F8B06800FB08F0306205F53060DF
:1059100000EB441000692949C94301EAC841084322
:1059200005F5306101EB4411086105F5306000EBCD
:1059300044100069316AC1F31201084305F5306172
:1059400001EB44110861012F07D1F06828B105F57A
:10595000306000EB4410F1684161307901281ED1BC
:1059600040F60800405900F4807060B905F53060D9
:1059700000EB4410006840F0005105F5306000EB8A
:10598000441001600BE005F5306000EB4410006846
:1059900040F0805105F5306000EB4410016005F5E2
:1059A000306000EB4410006840F0044105F53060C1
:1059B00000EB441001600020BDE8F883FFFF07E022
:1059C00078B503460024009400201A464C78012C38
:1059D00035D10C7802F5106505EB4414246804F009
:1059E0000044B4F1004F60D10C7805EB44142468F6
:1059F00044F000660C7805EB441426600C7805EB47
:105A00004414246844F080460C7805EB4414266066
:105A100000BF009C641C009442F21075009CAC42D4
:105A200001D901200AE00C7802F5106505EB441459
:105A3000246804F00044B4F1004FEAD035E00C785B
:105A400002F5306505EB4414246804F00044B4F119
:105A5000004F2AD10C7805EB4414246844F000660A
:105A60000C7805EB441426600C7805EB441424688C
:105A700044F080460C7805EB4414266000BF009C7F
:105A8000641C009442F21075009CAC4201D90120C4
:105A90000AE00C7802F5306505EB4414246804F044
:105AA0000044B4F1004FEAD000BF78BD01468868D9
:105AB00040F0010088600020704708B501460020D2
:105AC000009000BF0098401C00900098B0F1706FEB
:105AD00001D9032008BD086900F000400028F1D07A
