:020000040800F2
:1000000068CF01204D030008912100085920000805
:100010008D21000883060008614E000800000000E2
:100020000000000000000000000000008D02000839
:100030006D07000800000000E902000847240008DE
:1000400067030008670300086703000867030008E8
:1000500067030008670300086703000867030008D8
:1000600067030008670300086703000867030008C8
:1000700067030008670300086703000867030008B8
:1000800067030008670300086703000867030008A8
:100090006703000867030008670300086703000898
:1000A0006703000867030008670300086703000888
:1000B0006703000867030008670300086703000878
:1000C0006703000867030008670300086703000868
:1000D0006703000867030008670300086703000858
:1000E0006703000867030008670300086703000848
:1000F0006703000867030008670300086703000838
:100100006703000867030008670300086703000827
:100110006703000867030008670300086703000817
:100120006703000867030008670300086703000807
:1001300067030008670300086703000867030008F7
:1001400067030008670300086703000867030008E7
:1001500067030008670300086703000867030008D7
:100160006703000867030008A5210008952100081F
:1001700067030008B52100086703000800000000BD
:1001800067030008670300086703000867030008A7
:100190006703000867030008670300086703000897
:1001A00067030008670300086703000800F002F80F
:1001B00000F05CF80AA090E8000C82448344AAF1A5
:1001C0000107DA4501D100F051F8AFF2090EBAE8A3
:1001D0000F0013F0010F18BFFB1A43F0010318477B
:1001E0004C6D00006C6D00000A444FF0000C10F8DC
:1001F000013B13F0070408BF10F8014B1D1108BFA5
:1002000010F8015B641E05D010F8016B641E01F844
:10021000016BF9D113F0080F1EBF10F8014BAD1C94
:100220000C1B09D16D1E58BF01F801CBFAD505E0B2
:1002300014F8016B01F8016B6D1EF9D59142D6D30C
:10024000704700000023002400250026103A28BF34
:1002500078C1FBD8520728BF30C148BF0B60704738
:100260001FB506F035FE1FBD10B510BD00F0D0F96A
:100270001146FFF7F5FF04F032FE00F0EEF903B48B
:10028000FFF7F2FF03BC00F0F5F900002C4B1968F2
:100290000868B0E8F04F80F30988BFF36F8F4FF024
:1002A000000080F3118870470000000008480068D3
:1002B000006880F308884FF0000080F3148862B66D
:1002C00061B6BFF34F8FBFF36F8F00DF00BF00BF7A
:1002D00008ED00E0DFF80C00016841F470010160F6
:1002E000704700BF88ED00E0EFF30980BFF36F8F28
:1002F000134B1A681EF0100F08BF20ED108A20E97A
:10030000F04F106009B44FF0500080F31188BFF334
:100310004F8FBFF36F8F05F0D7FE4FF0000080F3D3
:10032000118809BC19680868B0E8F04F1EF0100F7A
:1003300008BFB0EC108A80F30988BFF36F8F704755
:10034000D0010020EFF30580704700000948804786
:1003500009480047FEE7FEE7FEE7FEE7FEE7FEE7A7
:10036000FEE7FEE7FEE7FEE704480549054A064BBF
:100370007047000015250008AD01000868AF012096
:1003800068CF012068BF012068BF012053EA020C3A
:1003900000F069802DE9F04B4FF00006002B1FBFE5
:1003A000B3FA83F503FA05F424FA05F65E4012BFAA
:1003B0001643B2FA82F502FA05F4C5F120051EBF14
:1003C00022FA05FC44EA0C04203556EA044C4FEAB4
:1003D000144418BF641C4FF000084FF0000990420D
:1003E00071EB030C39D3002919BFB1FA81F701FA77
:1003F00007F6B0FA80F700FA07F6C7F120071EBF2C
:1004000020FA07FC46EA0C062037B6FBF4FCA7EB03
:100410000507103F07F01F0BCBF120060CFA0BFB72
:100420002CFA06F644BFB3460026202FA4BF5E4632
:100430004FF0000B5BEA060C08BF4FF0010B19EB05
:100440000B09ABFB027C48EB0608C01B06FB02CC89
:100450000BFB03CC71EB0C01C1E70B460246414696
:100460004846BDE8F08B13B54FF000004FF0000197
:10047000AFF30080BDE81C407047032A40F2308093
:1004800010F0030C00F0158011F8013BBCF1020FD5
:10049000624498BF11F801CB00F8013B38BF11F856
:1004A000013BA2F1040298BF00F801CB38BF00F86D
:1004B000013B11F0030300F05780083AC0F00880B8
:1004C00051F8043B083A51F804CBA0E80810F5E7CE
:1004D000121D5CBF51F8043B40F8043BAFF30080B1
:1004E000D20724BF11F8013B11F801CB48BF11F826
:1004F000012B24BF00F8013B00F801CB48BF00F8F6
:10050000012B704702F0FF0343EA032242EA024252
:1005100000F05EB84FF0000200B5134694469646D0
:10052000203922BFA0E80C50A0E80C50B1F1200106
:10053000BFF4F7AF090728BFA0E80C5048BF0CC0B4
:100540005DF804EB890028BF40F8042B08BF704712
:1005500048BF20F8022B11F0804F18BF00F8012B84
:10056000704770477047704710B5203AC0F00B8055
:10057000B1E81850203AA0E81850B1E81850A0E8A7
:100580001850BFF4F5AF5FEA027C24BFB1E8185001
:10059000A0E8185044BF18C918C0BDE810405FEA71
:1005A000827C24BF51F8043B40F8043B08BF7047ED
:1005B000D20728BF31F8023B48BF11F8012B28BFF2
:1005C00020F8023B48BF00F8012B70474FF00002B3
:1005D0000429C0F0128010F0030C3FF49DAFCCF161
:1005E000040CBCF1020F18BF00F8012BA8BF20F8C3
:1005F000022BA1EB0C01FFF78FBF5FEAC17C24BF88
:1006000000F8012B00F8012B48BF00F8012B7047C0
:10061000754600F02BF8AE4605006946534620F0BB
:100620000700854618B020B5FFF79EFEBDE82040C4
:100630004FF000064FF000074FF000084FF0000B9E
:1006400021F00701AC46ACE8C009ACE8C009ACE851
:10065000C009ACE8C0098D46704710B50446AFF339
:1006600000802046BDE81040FFF709BE00487047F3
:1006700004AF012001491820ABBEFEE726000200AE
:10068000704700BFFEE70346042B15D007DC7BB1A3
:10069000012B0ED0022B0DD0032B12D10BE0202BFF
:1006A0000BD0212B0AD0222B09D0232B09D107E014
:1006B00008E007E006E005E004E003E002E001E016
:1006C00000E000BF00BF002070470020704700001E
:1006D00010B500220449054802F0C1F90449034855
:1006E00002F0AEF9002010BD2C570120504A012025
:1006F0002C4F012070B504460D46214607482A6854
:10070000FFF7BBFE0120064908702146054802F0AC
:1007100097F9044802F060F9002070BD50020020F3
:1007200000000020504A012010B503460C4600216D
:10073000084610BD2DE9F04104460D4600260A4842
:10074000D0F8BC72D7F8140210B10120BDE8F081D6
:100750002A462146044802F082F9034802F032FAA0
:1007600006463046F2E70000504A0120704772B654
:1007700000BFFEE710B52C4454B1082205492046BD
:1007800001F06CFC042203491031304601F066FC94
:1007900010BD0000FE00002070B5044600F018F9FE
:1007A00006462546681C10B104480078054400BF81
:1007B00000F00EF9801BA842FAD370BD340100206E
:1007C000F8B502460B460025002400200021E0E099
:1007D000012606FA01F51E6806EA0504AC4274D14A
:1007E0001E7906F00306012E04D01E7906F00306DA
:1007F000022E13D190684F000326BE40B0434F0035
:10080000DE68BE4030439060506801268E40B043A1
:100810001E79C6F300168E40304350601E7906F0F4
:100820000306032E09D0D0684F000326BE40B04314
:100830004F009E68BE403043D0601E7906F003062C
:10084000022E13D1CF0802F1200656F827004E07DA
:10085000F70E0F26BE40B0434F07FF0E1E69BE4085
:100860003043CF0802F1200646F8270010684F00F9
:100870000326BE40B0431E7906F003064F00BE407B
:10088000304310605E6806F44036002E1DD000BF75
:1008900000260096414E366846F480463F4F3E6043
:1008A0003E46366806F48046009600BF00BF3C4EC8
:1008B0008F0856F827008E07370F0F26BE40B0432B
:1008C000384EB24202D100262EE061E0364EB242EE
:1008D00001D1012628E0354EB24201D1022623E0A3
:1008E000334EB24201D103261EE0324EB24201D154
:1008F000042619E0304EB24201D1052614E02F4EF5
:10090000B24201D106260FE02D4EB24201D1072698
:100910000AE02C4EB24201D1082605E02A4EB2422E
:1009200001D1092600E00A268F073F0FBE40304361
:100930001B4E8F0846F82700244E3068A0435E689F
:1009400006F4801606B12043204E3060361D306814
:10095000A0435E6806F4001606B120431B4E361D08
:1009600030601A4E361F3068A0435E6806F40036C9
:1009700006B12043154E361F3060361F3068A04345
:100980005E6806F4803606B12043104E083E3060A3
:10099000491C1029FFF41CAFF8BD00004438024088
:1009A00008380140000002400004024000080240F4
:1009B000000C0240001002400014024000180240E7
:1009C000001C02400020024000240240083C01407C
:1009D00001480068704700002C01002003480068AF
:1009E0000349097808440149086070472C01002038
:1009F0003401002010B50D48006840F400700B4928
:100A000008600846006840F4806008600846006896
:100A100040F480700860032000F0ACF80F2000F074
:100A200007F800F02BF8002010BD0000003C024049
:100A300070B504460E4800784FF47A71B1FBF0F0BF
:100A40000C490968B1FBF0F5284601F0EBFA08B152
:100A5000012070BD102C07D200222146501E00F04C
:100A60004BF80548046001E00120F2E70020F0E7C0
:100A700034010020380100203001002008B500BFFB
:100A8000002000901148006840F480400F49086041
:100A90000846006800F48040009000BF00BF00BF1F
:100AA00000200090081F006840F08050091F086077
:100AB0000846006800F08050009000BF00BF002290
:100AC0000F21901E00F018F808BD000044380240C5
:100AD0000146084600280DDB00BF00BF00F01F03E1
:100AE00001229A4043099B0003F1E023C3F800214F
:100AF00000BF00BF00BF70472DE9F05F80460D4684
:100B00001646002704F0CCF9074639462A463346F4
:100B100001F00700C0F1070ABAF1040F02D94FF043
:100B2000040A01E0C0F1070AD14600F1040ABAF153
:100B3000070F02D24FF0000A01E0A0F1030AD446E9
:100B40004FF0010A0AFA09FAAAF1010A0AEA020AAE
:100B50000AFA0CFA4FF0010B0BFA0CFBABF1010B8C
:100B60000BEA030B4AEA0B042146404604F0A0F9C5
:100B7000BDE8F09F00BF00F00702064B19684FF672
:100B8000FF031940044B0B4343EA0221014B196058
:100B900000BF70470CED00E00000FA057047024608
:100BA0001068416200207047F0B50346154618688A
:100BB000446A21B944EA05401E68B06219E0186829
:100BC000806A04EB1044002208E0186800F5827087
:100BD00050F8220004EB1044501CC2B2481E904250
:100BE000F3D844EA0547186800F582704E1E40F8B5
:100BF00026700020F0BD10B50446D4F8E00402F0E1
:100C000053FC10BD70B504460D4605EBC50304F159
:100C1000140101EB8301CA682946D4F8E00402F00C
:100C20003EFB70BD70B504460D4605EBC50304F5EB
:100C3000157101EB8301CA682946D4F8E00402F07B
:100C4000B2FB70BD10B50446D4F8E00402F02FFCEE
:100C500010BD2DE9F04104460D4605F080008028C6
:100C600008D105F00F0000EBC00104F1140000EB07
:100C7000810607E005F00F0000EBC00104F51570D8
:100C800000EB81063146206803F0ACFE074638468B
:100C9000BDE8F08170B504460E4606F0800080285D
:100CA0000AD106F00F0000EBC00104F1140000EBC4
:100CB00081050120687009E006F00F0000EBC0011B
:100CC00004F5157000EB81050020687006F00F0038
:100CD000287000BF94F89404012801D1022070BD4F
:100CE000012084F8940400BF2946206803F00EFA1E
:100CF00000BF002084F8940400BF00BFEFE770B588
:100D000004460E4606F00F002179884201D90120E1
:100D100070BD06F0800080280AD106F00F0000EBBD
:100D2000C00104F1140000EB81050120687009E0A6
:100D300006F00F0000EBC00104F5157000EB810513
:100D4000002068700020A87006F00F00287000BF17
:100D500094F89404012801D10220D9E7012084F8F5
:100D6000940400BF2946206803F0CEFB00BF00209A
:100D700084F8940400BF00BFCAE7024601F00F00E8
:100D800000EBC00302F5157000EB8300406970476B
:100D90002DE9F04705460E4690461F464FF00009E4
:100DA00006F0800080280AD106F00F0000EBC00199
:100DB00005F1140000EB81040120607009E006F0E9
:100DC0000F0000EBC00105F5157000EB8104002059
:100DD000607006F00F002070C4F8088027716078FA
:100DE00008B120786083022F01D10020607100BF1C
:100DF00095F89404012802D10220BDE8F087012073
:100E000085F8940400BF2146286803F093F800BFDA
:100E1000002085F8940400BF4846EEE72DE9F04134
:100E200005460E461746984606F00F0000EBC00137
:100E300005F5157000EB8104E760C4F81080002010
:100E40006061607006F00F002070A879012800D161
:100E5000E761AA792146286803F0EAFB0020BDE893
:100E6000F08170B504460D4605F00F0021798842E7
:100E700001D9012070BD05F0800080280AD105F05D
:100E80000F0000EBC00104F1140000EB810601200B
:100E9000707007E005EBC50104F5157000EB8106E5
:100EA000002070700120B07005F00F00307000BF9E
:100EB00094F89404012801D10220DBE7012084F892
:100EC000940400BF3146206803F065FB05F00F0075
:100ED00028B9A17904F29C42206803F0DDFA00BF32
:100EE000002084F8940400BF00BFC3E72DE9F0415F
:100EF00005460E461746984606F00F0000EBC00167
:100F000005F1140000EB8104E760C4F810800020B4
:100F100060610120607006F00F002070A879012840
:100F200000D1E761AA792146286803F081FB0020FF
:100F3000BDE8F0812DE9FE4F0446D4F800B05E46CE
:100F4000206803F031FE002874D1206803F06BFEA6
:100F500008B9BDE8FE8F40F608008059C0F30D20A7
:100F6000C4F8D404206803F05EFE00F002000228FA
:100F700005D12068406900F00200216848612068BE
:100F800003F051FE00F01000102845D12068806960
:100F900020F0100021688861DBF8209009F00F0034
:100FA00000EBC00104F5157000EB810AC9F3434062
:100FB00002281AD147F6F07009EA000030B3C9F3ED
:100FC0000A125846DAF80C1003F032FEC9F30A117F
:100FD000DAF80C000844CAF80C00C9F30A11DAF870
:100FE00014000844CAF8140010E0C9F3434006286E
:100FF0000CD1082204F29C41584603F019FEC9F3B3
:101000000A11DAF814000844CAF81400206880694C
:1010100040F0100021688861206803F004FE00F4AD
:101020000020B0F5002F7BD10025206803F0CBFD18
:10103000029072E0E1E2029800F00100002868D01E
:10104000E9B2206803F0E2FD804608F0010048B1F3
:10105000012106F5306000EB4510816029462046ED
:1010600001F0E2F808F00800082809D1082106F587
:10107000306000EB451081602946204601F0A2F85F
:1010800008F01000102805D1102106F5306000EBA3
:101090004510816008F00200022824D1DBF814001A
:1010A00000F08000802807D140F60400805940F409
:1010B000806140F60400815105EBC50104F515700F
:1010C00000EB810A9AF80300012806D100208AF873
:1010D0000300E9B2204600F09BFA022106F53060D9
:1010E00000EB4510816008F02000202805D1202168
:1010F00006F5306000EB4510816008F40050B0F553
:10110000005F06D14FF4005106F5306000EB45104A
:1011100081606D1C029840080290029800288AD1D4
:10112000206803F080FD00F48020B0F5802F7DD191
:10113000206803F03EFD029000259AE0029800F03E
:101140000100002873D0E9B2206803F046FD804614
:1011500008F00100F0B305F00F0101208840019074
:1011600040F634008159019821EA000040F634012C
:101170008851012106F5106000EB45108160A079CF
:10118000012824D105EBC50104F1140000EB810016
:1011900005EBC502C16804F1140000EB8200806811
:1011A000014405EBC50204F1140000EB8200C160AC
:1011B0006DB905EBC50104F1140000EB8100006975
:1011C00028B904F29C420121206803F065F9E9B2D4
:1011D000204600E001E0FFF715FD08F008000828B0
:1011E00005D1082106F5106000EB4510816008F07C
:1011F0001000102805D1102106F5106000EB4510F5
:10120000816008F04000402805D1402106F51060BB
:1012100000EB4510816008F0020002281DD129462C
:10122000584603F084FC05EBC50101E025E01CE015
:1012300004F1140000EB810A9AF80300012806D19A
:1012400000208AF80300E9B2204600F0D8F9022114
:1012500006F5106000EB4510816008F080008028E2
:1012600003D12946204601F081F86D1C0298400800
:101270000290029800287FF461AF206803F0D3FC4D
:1012800000F00040B0F1004F1CD140F6040080593E
:1012900020F0010140F60400815194F8CC040128AB
:1012A00007D1002084F8CC0400212046FFF776FC0B
:1012B00002E0204600F0D6FA2068406900F00040C5
:1012C00021684861206803F0AEFC00F40060B0F5CE
:1012D000006F0ED140F60800805900F0010010B1F7
:1012E000204600F017FB2068406900F40060216888
:1012F0004861206803F097FC00F48050B0F5805FEF
:101300007ED140F60400805920F0010140F604002F
:1013100081511021206803F00AFC002732E04FF6CB
:101320007F3106F5106000EB4710816006F5106014
:1013300000EB4710006820F4001106F5106000EB88
:10134000471001604FF67F3106F5306000EB471023
:10135000816006F5306000EB4710006820F4001152
:1013600006F5306000EB4710016006F5306000EBD9
:101370004710006840F0006106F5306000EB471050
:1013800001607F1C2079B842C9D840F61C00805902
:1013900040F0011140F61C008151E07B70B1D6F89D
:1013A000840840F00B01C6F8841840F644008059C8
:1013B00040F00B0140F6440081510FE040F614006C
:1013C000805942F22B01084340F614018851081F4E
:1013D000805940F00B014FF401608151D6F80008AC
:1013E00020F4FE60C6F80008A17904F29C4220684F
:1013F00003F052F82068406900F48050216800E052
:1014000000E04861206803F00EFC00F40050B0F5E5
:10141000005F17D1206802F0F5FD206803F0B1FBF2
:10142000E07100F053FB0090E2792068009903F02E
:1014300081FC204600F0FEF92068406900F400506D
:1014400021684861206803F0EEFB00F008000828DE
:1014500008D1204600F00DFA2068406900F008002D
:1014600021684861206803F0DEFB00F080008028DE
:1014700018D1DBF8180020F08000CBF81800012507
:101480000DE005EBC50104F5157000EB8100C07897
:10149000012803D1E9B22046FFF7DBFB6D1C207960
:1014A000A842EED8206803F0BEFB00F48010B0F52F
:1014B000801F2DD1012522E006F5106000EB4510BC
:1014C000D0F8009005EBC50104F1140000EB810099
:1014D0000079012812D109F00040B0F1004F0DD180
:1014E000012105EBC50204F1140000EB8200C1707C
:1014F000E8B240F080012046FFF7ABFB6D1C20797D
:10150000A842D9D82068406900F480102168486159
:10151000206803F088FB00F40010B0F5001F44D1F0
:10152000012538E006F5306000EB4510D0F800905A
:1015300005EBC50104F5157000EB81000079012869
:1015400028D109F00040B0F1004F23D109F48030D8
:1015500094F8D41401F0010188421BD1012105EB5C
:10156000C50204F5157000EB8200C170DBF81800AD
:1015700040F08000CBF81800DBF8140000F0800089
:1015800040B940F60400805940F4007140F6040070
:10159000815103E06D1C2079A842C3D800BF2068A8
:1015A000406900F4001021684861206803F03BFBAB
:1015B00000F08040B0F1804F08D12046FFF71BFBC0
:1015C0002068406900F0804021684861206803F08D
:1015D0002AFB00F0040004280FD12068D0F8049002
:1015E00009F00400042802D12046FFF72BFB2068F5
:1015F000406840EA09002168486000BFA9E470B56E
:1016000004460D462946D4F8E00401F0C1FF70BD40
:1016100070B504460D462946D4F8E00401F0DCFF1D
:1016200070BDF8B504460CB90120F8BD266894F8E1
:10163000950428B9002084F89404204600F0A0F80E
:10164000032084F89504B6F1A04F01D10021A171C7
:10165000206802F019FF207C8DF8000094E80F004C
:1016600002F0E4FC20B1022084F895040120DCE7BC
:101670000021206803F00CFB20B1022084F89504BF
:101680000120D2E7002531E0012105EBC50204F17C
:10169000140000EB8200417005EBC50104F1140059
:1016A00000F8215005EBC50100EB810045830021C6
:1016B00005EBC50204F1140000EB8200017105EB9B
:1016C000C50204F1140000EB8200816005EBC50245
:1016D00004F1140000EB8200C16005EBC50204F1C7
:1016E000140000EB82000161681CC5B22079A84299
:1016F000CADC00252AE0002105EBC50204F51570BF
:1017000000EB8200417005EBC50104F5157000F88F
:101710002150002105EBC50200EB8200017105EBB1
:10172000C50204F5157000EB8200816005EBC5026F
:1017300004F5157000EB8200C16005EBC50204F5ED
:10174000157000EB82000161681CC5B22079A842C7
:10175000D1DC207C8DF8000094E80F0002F0A0FDA1
:1017600020B1022084F8950401205EE70020607417
:10177000012084F89504206802F080FD002054E7E1
:1017800010B586B00446142101A8FEF7C3FE264911
:101790002068884246D100BF00200090234800689E
:1017A00040F00200214908600846006800F002008D
:1017B000009000BF00BF4FF4404001900220029013
:1017C00000200390032004900C20059001A91848E4
:1017D000FEF7F6FF00BF002000901448006840F0BC
:1017E0000050124908600846006800F00050009060
:1017F00000BF00BF002205214A20FFF77DF94A20E3
:10180000FFF766F9002205214B20FFF775F94B2001
:10181000FFF75EF9002205214D20FFF76DF94D20FD
:10182000FFF756F906B010BD000004403038024002
:101830000004024070B504460125E07908B900258E
:1018400006E0E079022801D1012501E0FEF78FFFD3
:101850002946D4F8E00401F068FFD4F8E00401F070
:101860000FFF70BD10B50446D4F8E00401F03EFF50
:1018700010BD10B50446D4F8E00401F042FF10BDDD
:1018800070B504460D4600BF94F89404012801D1B8
:10189000022070BD012084F8940400BF65742946BD
:1018A000206803F029FA00BF002084F8940400BFE8
:1018B00000BFEEE710B5044604F29C41D4F8E00402
:1018C00001F04AFF10BD70B50446256800BF94F8CA
:1018D0009404012801D1022070BD012084F89404F1
:1018E00000BFE86800F0400030B1607B012803D100
:1018F000A86B40F48030A863206803F0E9F8206802
:1019000002F0AAFC00BF002084F8940400BF00BFCE
:10191000E2E7000010B50446D4F8E00401F079FFD6
:101920002068D0F8000E40F001002168C1F8000ED8
:10193000E07A28B10348006840F0060001490860D9
:1019400010BD000010ED00E070B504460D460CB966
:10195000012070BD5848006800F00F00A84209D26D
:1019600055490D700846006800F00F00A84201D0EC
:101970000120EEE7207800F0020002281DD1207837
:1019800000F00400042805D14C48006840F4E05001
:101990004A490860207800F00800082805D1474827
:1019A000006840F46040454908604448006820F001
:1019B000F000A168084341490860207800F0010068
:1019C000A8B36068012807D13C4808380068C0F314
:1019D0004040B8B90120BCE76068022802D06068C6
:1019E000032807D1354808380068C0F3406048B97B
:1019F0000120AEE7314808380068C0F3400008B95C
:101A00000120A6E72D48006820F003006168084324
:101A10002A490860FEF7DCFF064609E0FEF7D8FF1A
:101A2000801B41F28831884202D9032091E707E008
:101A30002248006800F00C006168B0EB810FEDD126
:101A40001D48006800F00F00A84209D91A490D701E
:101A50000846006800F00F00A84201D0012078E796
:101A6000207800F00400042807D11448006820F40E
:101A7000E050E168084311490860207800F0080050
:101A8000082808D10D48006820F46040216940EA28
:101A9000C1000A49086000F01FF808490968C1F34D
:101AA0000311074A515CC8400649086006480068AF
:101AB000FEF7BEFF00204CE7003C02400838024021
:101AC000086F00083801002030010020014800683C
:101AD00070470000380100202DE9F0470024002560
:101AE0000026A1462548006800F00C0020B104281B
:101AF00005D008283AD105E0DFF8849039E0DFF816
:101B0000849036E01D48001F006800F03F041B4829
:101B1000001F006800F4800078B11A481749091FB7
:101B20000968C1F38811A0FB017001462246002319
:101B30003846FEF72BFC05460EE011480F49091FF9
:101B40000968C1F38811A0FB0170014622460023F9
:101B50003846FEF71BFC05460848001F0068C0F326
:101B60000140401C4600B5FBF6F902E0DFF810909A
:101B700000BF00BF4846BDE8F087000008380240BB
:101B80000024F40040787D01F8B504460CB901202A
:101B9000F8BD207800F00100002874D0F9480068F2
:101BA00000F00C0004280DD0F648006800F00C008E
:101BB000082813D1F348001F006800F48000B0F536
:101BC000800F0BD1EF4808380068C0F34040002870
:101BD00059D06068002856D10120D9E700BF60685D
:101BE000B0F5803F08D1E7480838006840F48030FD
:101BF000E449083908601EE06068B0F5A02F0DD1F7
:101C0000E0480838006840F48020DE490839086060
:101C10000846006840F4803008600CE0D948083875
:101C2000006820F48030D749083908600846006809
:101C300020F48020086000BF606890B1FEF7C8FE05
:101C4000054606E0FEF7C4FE401B642801D90320C8
:101C50009EE7CC4808380068C0F340400028F1D027
:101C600011E0FEF7B5FE054606E0FEF7B1FE401BAB
:101C7000642801D903208BE7C24808380068C0F304
:101C800040400028F1D1207800F0020002285FD106
:101C9000BC48006800F00C0058B1BA48006800F079
:101CA0000C0008281CD1B748001F006800F4800011
:101CB000B0B9B44808380068C0F3400020B1E0680B
:101CC000012801D0012063E7AE480838006820F001
:101CD000F800216940EAC100AA490839086037E0E4
:101CE000E06800B30120A8490860FEF771FE0546D0
:101CF00006E0FEF76DFE401B022801D9032047E7EE
:101D0000A04808380068C0F340000028F1D09D4882
:101D10000838006820F0F800216940EAC1009949BC
:101D20000839086014E0002097490860FEF750FE6B
:101D3000054606E0FEF74CFE401B022801D90320B1
:101D400026E7904808380068C0F340000028F1D129
:101D5000207800F0080008282CD16069A8B1012083
:101D60008A490860FEF734FE054606E0FEF730FEBD
:101D7000401B022801D903200AE782486C30006822
:101D8000C0F340000028F1D014E000207F49086033
:101D9000FEF71EFE054606E0FEF71AFE401B02286F
:101DA00001D90320F4E677486C300068C0F34000A6
:101DB0000028F1D1207800F00400042870D1002719
:101DC00070483830006800F0805090B900BF0020A3
:101DD00000906C483830006840F0805069493831D4
:101DE00008600846006800F08050009000BF00BF07
:101DF00001276748006800F48070B0B96448006843
:101E000040F4807062490860FEF7E2FD054606E096
:101E1000FEF7DEFD401B022801D90320B8E65C482E
:101E2000006800F480700028F2D000BFA06801288C
:101E300008D154486830006840F0010051496831C9
:101E400008601DE0A06805280DD14E486830006884
:101E500040F004004B49683108600846006840F0D3
:101E6000010008600CE047486830006820F001007D
:101E70004449683108600846006820F004000860A2
:101E800000BFA068A8B1FEF7A3FD054609E0FEF774
:101E90009FFD401B41F28831884202D9032077E63A
:101EA00026E0384868300068C0F340000028EED0D3
:101EB00013E0FEF78DFD054608E0FEF789FD401BA7
:101EC00041F28831884201D9032061E62D4868300B
:101ED0000068C0F340000028EFD1012F07D1294846
:101EE0003830006820F0805026493831086000BF43
:101EF000A069002845D02348006800F00C0008289D
:101F00005DD0A069022845D100201F490866FEF770
:101F10005FFD054606E0FEF75BFD401B022801D988
:101F2000032035E6174808380068C0F340600028F1
:101F3000F1D1D4E907010843616A40EA8111012225
:101F4000A06AC2EB500041EA00412C20005D41EA4A
:101F500000600C49091F086001200B490866FEF764
:101F600037FD054606E0FEF733FD401B022801D988
:101F700003200DE6034808380068C0F340600028DD
:101F8000F1D049E00838024000004742800E474245
:101F900000700040002021490866FEF719FD054643
:101FA00006E0FEF715FD401B022801D90320EFE5EE
:101FB0001B480068C0F340600028F2D12CE0A06903
:101FC000012800D1E4E51648001D0668A069012833
:101FD00020D006F48001E06981421BD106F03F0168
:101FE000206A814216D147F6C0703040616AB0EB7A
:101FF000811F0FD106F440310122A06AC2EB5000CC
:10200000B1EB004F06D106F070612C20005DB1EB02
:10201000006F01D00120BBE50020B9E50000474278
:102020000038024070B504462546681EB0F1807F36
:1020300001D301200FE0681E4FF0E02148610F211D
:102040004FF0FF3002F034FF00204FF0E0218861B4
:1020500007200861002070BD00BFFEE730B50B46C9
:10206000002100BF16E00A24B4EB107F05D930240C
:1020700004EB107403F8114005E0412404EB1074E4
:102080000A3C03F81140000100254C00641C1D555A
:102090004C1CE1B29142E6DB30BD000010B5044AB1
:1020A0000021044802F07EFF0349086010BD0000D3
:1020B000DC6E0008352400080400002008B500BFCD
:1020C000002000901D48006840F004001B49086093
:1020D0000846006800F00400009000BF00BF00BF89
:1020E000002000900846006840F080000860084624
:1020F000006800F08000009000BF00BF00BF00201B
:1021000000900846006840F0020008600846006839
:1021100000F00200009000BF00BF00BF0020009050
:102120000846006840F0010008600846006800F0BA
:102130000100009000BF00BF08BD00003038024021
:1021400010B501220D490E4801F066F808B1FEF7FE
:102150000EFB0C490A4801F09DFB08B1FEF707FB96
:102160000949074800F060FC08B1FEF700FB04488D
:1021700001F092FC08B1FEF7FAFA10BDC000002091
:10218000504A01204C0100201801002000BFFEE74A
:1021900000BFFEE710B50248FEF7CCFE10BD000000
:1021A0002C5F012010B50248FEF7C4FE10BD0000F0
:1021B0002C5F012010B50248FEF7BCFE10BD0000E8
:1021C0002C5F01202DE9F04704460D46266837466E
:1021D000D6F8408007F5306000EB4510D0F8089045
:1021E000104880450BD909F40040B0F5004F06D1E6
:1021F0004FF4004107F5306000EB45108160204648
:10220000FFF758FB0748804508D9A079012805D178
:1022100004F29C420121206802F03EF90020BDE852
:10222000F08700000A30544F2DE9F04705460C4670
:10223000D5F800904E46D9F840A006F5306000EB86
:102240004410D0F80880A879012855D108F008007A
:1022500008280FD1434882450BD908F40040B0F557
:10226000004F7BD14FF4004106F5306000EB441085
:10227000816073E008F02000202806D1202106F5B7
:10228000306000EB4410816068E008F0280000280E
:1022900064D1344882450CD908F40040B0F5004FB1
:1022A00007D14FF4004106F5306000EB4410816027
:1022B00054E004EBC40105F5157000EB810706F549
:1022C000306000EB4410396A0069C0F31200081A4C
:1022D000786164B9386930B905F29C4201212868F7
:1022E00002F0DAF803E07969F8680844F860E1B2CE
:1022F0002846FEF797FC31E01B4882451BD108F4C5
:102300000040B0F5004F07D14FF4004106F53060B2
:1023100000EB4410816021E008F02000202805D166
:10232000202106F5306000EB44108160E1B22846C0
:10233000FEF778FC12E06CB904EBC40105F51570EA
:1023400000EB8100006928B905F29C420021286851
:1023500002F0A2F8E1B22846FEF764FC0020BDE8D6
:10236000F08700000A30544F0A31544F2DE9F84FDE
:1023700007460E46D7F80090C84606EBC60107F19F
:10238000140000EB8104D4E90410884202D9012032
:10239000BDE8F88FD4E90401451AA068A84200D22C
:1023A000A568E81C4FEA900A17E0D4E90401451A31
:1023B000A068A84200D2A568E81C4FEA900AB87944
:1023C000ABB2F2B200904846E16802F027FDE06847
:1023D0002844E06060692844606108F5106000EB03
:1023E0004610806980B2504506D3D4E90410884273
:1023F00002D220690028D8D1D4E9040188420ED83D
:1024000006F00F01012000FA01FB40F6340050F8FD
:10241000080020EA0B0040F6340141F808000020D3
:10242000B6E730B501460A461378521C147843EAE1
:10243000042030BDFFF784FE00BF02F013FD012031
:1024400002F05BFDF9E710B5FEF7C8FA04F0EAFA0E
:10245000012801D003F034FF10BD000000B593B097
:10246000302107A8FEF756F8142102A8FEF752F80B
:1024700000BF002001902548006840F080502349AB
:1024800008600846006800F08050019000BF00BF5F
:1024900000BF002001901E48006820F4404040F436
:1024A00080401B4908600846006800F440400190E5
:1024B00000BF00BF012007900004089002200D908B
:1024C00041050E910F210F91902110910221119140
:1024D0000521129107A8FFF757FB08B1FEF747F94E
:1024E0000F20029002200390002004904FF4A0508F
:1024F00005904FF480500690032102A8FFF724FABC
:1025000008B1FEF734F913B000BD000040380240B6
:10251000007000400348006840F470000149086002
:102520007047000088ED00E02DE9F04104460D46BB
:10253000D4F8C87204F53070D4F8D41250F82100E1
:1025400010B90320BDE8F08104F53070D4F8D4123E
:1025500050F8216005F00F0000EB800104F1140039
:1025600000EB8100406838B305F00F0000EB8001FC
:1025700004F1140000EB8100416805F00F0000EB4E
:10258000C00207F1140000EB82008068B1FBF0F29A
:1025900000FB121080B9002105F00F0000EB800253
:1025A00004F1140000EB8200416000231A46294622
:1025B000204601F03CF917E00020C6F8140204F5AB
:1025C0003170D4F8D41250F82100006960B1D6F807
:1025D000080204F53171D4F8D42251F822102A46A9
:1025E0000B6906F5047198470020ABE770B5044607
:1025F0000E4604F53070D4F8D41250F82150D4F8B7
:10260000D41250F8210008B9032070BD314620468D
:1026100000F060FFC5F80C02D5F8040204F5317132
:10262000D4F8D43251F82310CA6805F503719047E5
:102630000020EAE770B504460D4630480178204690
:1026400000F01AFE00212D48007800F00F0000EB8A
:10265000800204F1140000EB820001822848017816
:10266000204600F009FE00212548007800F00F0008
:1026700000EB800204F5AA7000EB82000182214881
:102680000178204600F0F8FD00211E48007800F097
:102690000F0000EB800204F1140000EB82000182C5
:1026A0001848007800F00F0000EB800204F11400DD
:1026B00000EB8200418204F53070D4F8D41250F857
:1026C0002100C8B104F53171D4F8D42251F8221098
:1026D0004868804704F53071D4F8D42251F82200BC
:1026E00001F020FC002104F53070D4F8D42240F829
:1026F00022100020C4F8BC02002070BDCB010020D5
:10270000CC010020CD01002070B5044604F53070E6
:10271000D4F8D41250F821500DB9032070BD04F53F
:102720003170D4F8D41250F8210098B195F8000215
:10273000FF280FD095F8012295F8000204F53171B9
:10274000D4F8D46251F826108B6829469847FF20A8
:1027500085F800020020E1E701460A2008800148D0
:1027600070470000400100202DE9F041044682211D
:102770000D4800F023FC054601210B4800F01EFC2B
:1027800006468121084800F019FC07460DB11020CB
:10279000A8710EB14020B0800FB14020B880432016
:1027A00020800148BDE8F081880100202DE9F0413A
:1027B000044682210E4800F001FC054601210C4828
:1027C00000F0FCFB06468121094800F0F7FB0746B4
:1027D0000DB11020A87116B14FF40070B08017B180
:1027E0004FF40070B880432020800148BDE8F0819C
:1027F000880100202DE9F041044682210D4800F0B7
:10280000DDFB054601210B4800F0D8FB064681217F
:10281000084800F0D3FB07460DB11020A8710EB197
:102820004020B0800FB14020B88043202080014874
:10283000BDE8F0818801002070B504460E464FF4D3
:10284000077001F071FB054645B9002104F53070B1
:10285000D4F8D42240F82210022070BD4FF4077142
:102860002846FDF757FE04F53070D4F8D41240F82E
:102870002150D4F8D41250F82100C4F8BC02207CB6
:1028800098BB4FF40073022250480178204600F0B4
:10289000C7FE01214D48007800F00F0000EB8002D8
:1028A00004F1140000EB820001824B02022248482E
:1028B0000178204600F0B4FE01214548007800F080
:1028C0000F0000EB800204F5AA7000EB8200018289
:1028D00010214048007800F00F0000EB800204F166
:1028E000140000EB8200418232E0FFE74023022225
:1028F00036480178204600F093FE012133480078E5
:1029000000F00F0000EB800204F1140000EB8200E5
:102910000182402302222E480178204600F080FEEA
:1029200001212B48007800F00F0000EB800204F535
:10293000AA7000EB8200018210212648007800F086
:102940000F0000EB800204F1140000EB82004182D2
:10295000082303221F480178204600F061FE012170
:102960001C48007800F00F0000EB800204F1140016
:1029700000EB820001820020C5F8040204F53171E9
:10298000D4F8D42251F82210086880470020C5F8F6
:102990001402C5F81802D5F8040208B902205CE751
:1029A000207C48B94FF40073094801782046D5F8D7
:1029B000042200F04DFE07E0402305480178204640
:1029C000D5F8042200F044FE002046E7CB010020A9
:1029D000CC010020CD01002070B5044604F5307014
:1029E000D4F8D41250F82150D4F8D41250F8210061
:1029F00008B9032070BD207C48B94FF40073094822
:102A000001782046D5F8042200F022FE07E040239A
:102A1000044801782046D5F8042200F019FE002071
:102A2000E8E70000CC010020024609B90320704706
:102A300002F53170D2F8D43240F823100020F6E7C6
:102A400010B5024602F53070D2F8D44250F8243066
:102A50000BB9032010BDC3F804120020FAE730B50B
:102A600003460C4603F53070D3F8D45250F82510C5
:102A700009B9032030BDC1F80842C1F81022002076
:102A8000F8E72DE9FC4105460C4605F53070D5F810
:102A9000D41250F82160002001900090804616B9B1
:102AA0000320BDE8FC81207800F0600000283DD0C4
:102AB00020287CD1E08868B3207800F08000B8B18D
:102AC000E288607805F53171D5F8D4C251F82C1040
:102AD0008B6831469847E088072801D9072000E035
:102AE000E08807463A463146284600F011F91CE0D6
:102AF000607886F80002E088402801D2E08800E093
:102B0000402086F8010296F801223146284600F05E
:102B1000DEF80AE0607805F53171D5F8D42251F875
:102B2000221000228B682146984747E0607830B138
:102B3000012832D00A2813D00B282FD121E095F894
:102B40009C02032805D102226946284600F0E0F8DD
:102B500005E02146284600F0AEF84FF0030824E0D7
:102B600095F89C02032805D1012201A9284600F00E
:102B7000CFF805E02146284600F09DF84FF0030805
:102B800013E095F89C02032805D02146284600F062
:102B900092F84FF0030808E009E006E021462846D5
:102BA00000F089F84FF0030800BF00BF06E021469F
:102BB000284600F080F84FF0030800BF00BF4046F1
:102BC0006FE7000070B5054605F53070D5F8D412F2
:102BD00050F8214001260CB9032070BDD4F814022E
:102BE000C8B90120C4F814020C48007800F00F00A6
:102BF00000EB800205F1140000EB8200D4F8101203
:102C00004160064801782846D4F81032D4F80822EA
:102C100000F00DFE00263046DFE70000CB0100206B
:102C200070B504460D460026D4F8B802294642681D
:102C30002046904700B10326304670BD70B504466B
:102C40000D4694F89C02012804D0022803D00328E2
:102C50000CD101E000BF00BF6888012805D1002029
:102C6000C4F8A402204600F064F804E02946204697
:102C700000F021F800BF00BF70BD02460020704781
:102C800002460020704770B506460C4615462B4696
:102C900022460021304600F0DBFC002070BD70B5FC
:102CA00006460C4615462B4622460021304600F0CB
:102CB000BEFD002070BD70B504460D468021204643
:102CC00000F085FD0021204600F081FD70BD70B54B
:102CD00004460E4615460320C4F894024FF4AC7027
:102CE0000551001D05512B4632460021204600F0BB
:102CF000AFFC002070BD10B504460520C4F8940256
:102D000000231A461946204600F0A2FC002010BD00
:102D100070B504460E4615460220C4F89402A5611B
:102D2000E5612B4632460021204600F080FD002060
:102D300070BD10B504460420C4F8940200231A465E
:102D40001946204600F073FD002010BD70B5044602
:102D50000D46E888012804D029462046FFF7ABFF3E
:102D60001EE094F89C02012804D0022803D0032816
:102D700010D109E000BF0020A060012204F1080189
:102D80002046FFF7C5FF0AE00122211D2046FFF77C
:102D9000BFFF04E029462046FFF78DFF00BF00BFBC
:102DA00070BDF8B504460E460020009000270025AF
:102DB00070880012082871D2DFE800F0D6040C20D9
:102DC000D6D6B4C4207CD4F8B4120A6869469047B9
:102DD0000746D0E0207C40B9D4F8B802816A684642
:102DE000884707460220787007E0D4F8B802C16A25
:102DF00068468847074602207870BCE0B078032810
:102E00004DD005DC88B1012822D0022879D132E0EA
:102E1000042857D0052868D0EE287AD1D4F8B80213
:102E2000816B6846884707467AE0D4F8B402406868
:102E300038B1207CD4F8B4124A68694690470746F6
:102E400005E031462046FFF736FF681CC5B267E053
:102E5000D4F8B402806838B1207CD4F8B4128A68FF
:102E600069469047074605E031462046FFF723FFB5
:102E7000681CC5B254E0D4F8B402C06838B1207CF4
:102E8000D4F8B412CA6869469047074605E031464F
:102E90002046FFF710FF681CC5B241E064E0D4F89B
:102EA000B402006938B1207CD4F8B4120A696946CA
:102EB0009047074605E031462046FFF7FCFE681CB8
:102EC000C5B22DE0D4F8B402406938B1207CD4F802
:102ED000B4124A6969469047074605E031462046E4
:102EE000FFF7E9FE681CC5B21AE0D4F8B4028069A5
:102EF00040B1207CD4F8B4128A69694690470746ED
:102F000006E006E031462046FFF7D5FE681CC5B254
:102F100006E031462046FFF7CEFE681CC5B200BF72
:102F200000BF28E0207C30B9D4F8B802416B684675
:102F30008847074605E031462046FFF7BCFE681C7F
:102F4000C5B218E0207C40B9D4F8B802016B6846DD
:102F5000884707460720787005E031462046FFF78E
:102F6000AAFE681CC5B206E031462046FFF7A3FE64
:102F7000681CC5B200BF00BF05B1F8BDF088C0B184
:102F8000BDF8000080B1F088BDF80010884202DD75
:102F9000BDF8000000E0F0880090BDF80020394640
:102FA0002046FFF7B5FE07E031462046FFF783FED7
:102FB00002E02046FFF7BDFE00BFDEE72DE9F84145
:102FC00005460F462C462E464FF000087088317893
:102FD000884218DD307800900FE06946204600F006
:102FE00020F804466078052807D1A04698F802002A
:102FF000B84200D106E04FF000087088BDF800101C
:103000008842EADC00BF4046BDE8F8810146002066
:103010000A4602E0431CD8B2521C1378002BF9D1A7
:10302000704710B5024610460B88047823440B8085
:103030000378981810BD70B504460D4694F89C02AC
:10304000012804D0022803D003281AD101E000BFD0
:1030500000BFE888022804D029462046FFF72BFE4F
:1030600014E00120E060D4F8A40218B1E06840F058
:103070000200E060022204F10C012046FFF748FE46
:1030800004E029462046FFF716FE00BF00BF70BDD2
:103090002DE9F04107460D46904600240FB9BDE8E2
:1030A000F0813E463046FFF7B1FF022101EB4000C0
:1030B000A8F8000098F800002855601CC4B203204E
:1030C0002855601CC4B208E030782855761C601C76
:1030D000C4B200202855601CC4B230780028F3D157
:1030E00000BFDCE70146002031B1012906D00229EA
:1030F00006D0032908D105E0002007E0032005E001
:10310000012003E0032001E0032000BF00BF70475F
:1031100070B505460C462DB92246064906A0FFF7B4
:10312000B7FF04E02246034903A0FFF7B1FF0148BF
:1031300070BD00002C4D012057494E55534220438D
:103140006F6E666967000000024612200880014821
:1031500070470000E400002070B505460C462DB90C
:103160002246064906A0FFF793FF04E022460349E2
:1031700003A0FFF78DFF014870BD00002C4D01201A
:1031800057494E55534220496E74657266616365B6
:10319000000000000246042008800148704700003B
:1031A000F800002070B505460C462246024903A0EF
:1031B000FFF76EFF004870BD2C4D012053544D6940
:1031C00063726F656C656374726F6E696373000020
:1031D00070B505460C462DB92246064906A0FFF7F4
:1031E00057FF04E02246034903A0FFF751FF0148BF
:1031F00070BD00002C4D0120544149455200000093
:1032000070B505460C461A202080FDF7B3FA014838
:1032100070BD0000FC0000202DE9F04104460D4681
:10322000164614B90320BDE8F0810020C4F8B802A6
:10323000C4F8C402C4F8D0020DB1C4F8B4520120DD
:1032400084F89C022670204600F04EF90746384666
:10325000E9E72DE9F04104460D46002600272946FE
:10326000D4F8C802FDF74BFD06463046FFF73AFF9B
:1032700007463846BDE8F0812DE9F04104460D4689
:10328000002600272946D4F8C802FDF703FD0646AC
:103290003046FFF727FF07463846BDE8F0812DE9A5
:1032A000F04704460F469146002F56D104F114050D
:1032B000D4F89402022846D1D5E9020188420FD9F8
:1032C000D5E90201401AA86049462046AA68FFF7DE
:1032D000E6FC00231A461946204600F0B9F932E010
:1032E000D5E90210884217D1E9686868884213D38B
:1032F0006868D4F8981288420ED2002211462046FF
:10330000FFF7CDFC0020C4F8980200231A461946A6
:10331000204600F09DF916E094F89C0203280BD19A
:10332000D4F8B802C06838B10020C4F8D402D4F888
:10333000B802C168204688478021204600F047FA3D
:103340002046FFF7D8FC94F8A00250B3204600F0C6
:10335000C5FA002084F8A00223E047F0800120464F
:10336000FFF78BFC0646FF2E1BD0D6B994F89C02C3
:10337000032816D104F52E7050F82600406980B15C
:10338000C4F8D46204F52E7050F82600394642691C
:10339000204690478046B8F1000F02D04046BDE875
:1033A000F0870020FBE72DE9F04705460F469046E1
:1033B0004FF00009002F51D105F5AA76D5F89402F7
:1033C00003286FD1D6E90201884210D9D6E902015B
:1033D000401AB060D6E90201884201D2B06800E02C
:1033E000F068024641462846FFF74DFC5AE095F842
:1033F000AA0200F01F0020B1012804D0022812D137
:1034000009E0002411E040F2AE20415D2846FFF7BC
:1034100037FC044609E040F2AE20415D2846FFF744
:103420002CFC044601E0002400BF00BF94B995F8CD
:103430009C0203280ED105F52E7050F82400006977
:1034400040B1C5F8D44205F52E7050F8240001694A
:10345000284688472846FFF76CFC23E007F07F01E9
:103460002846FFF70AFC0446FF2C1BD0D4B995F878
:103470009C02032810D105F52E7050F824008069B5
:1034800050B1C5F8D44205F52E7050F824003946E5
:103490008269284690478146B9F1000F02D048461C
:1034A000BDE8F0870020FBE701460020704770B5BB
:1034B00004460025012084F89C02D4F8B80238B1F3
:1034C0002179D4F8B80242682046904700B103251C
:1034D000284670BD70B504460D462946D4F8C8028A
:1034E000FDF74BFC70BD000010B5044620780128A4
:1034F0002CD11748C0F8E044C4F8C8021548144954
:1035000008600620087102211148C17100218171F3
:103510000221417200218172C17201738173C173F2
:103520000174FEF77EF808B1FDF721F94FF4007140
:103530000748FDF734FB802200210548FDF734FBE6
:103540004FF4BA7201210248FDF72EFB002010BD96
:103550002C5F01200000044010B50246D2F8C832AA
:1035600001F08000802809D101F07F0000EBC00449
:1035700003F1140000EB8400807810BD01F07F009F
:1035800000EBC00403F5157000EB84008078F4E7CD
:1035900070B504460D4604F52E70D4F8D41250F8D8
:1035A000210008B9032070BD94F89C02032811D1B2
:1035B00004F52E70D4F8D41250F82100006A48B1F6
:1035C00004F52E70D4F8D41250F821002946026A6E
:1035D000204690470020E6E770B504460D4604F506
:1035E0002E70D4F8D41250F8210008B9032070BD11
:1035F00094F89C02032811D104F52E70D4F8D4124B
:1036000050F82100406A48B104F52E70D4F8D41265
:1036100050F821002946426A204690470020E6E7FC
:103620002DE9F04704460F4615461E464FF00008A8
:10363000C1462B4632463946D4F8C802FDF7A8FBEE
:1036400080464046FFF74EFD81464846BDE8F0877C
:103650002DE9F04704460D4616461F464FF0000878
:10366000C1463B4632462946D4F8C802FDF7D6FB90
:1036700080464046FFF736FD81464846BDE8F08764
:1036800070B504460025012084F89C020020C4F88F
:1036900094026060C4F8A40284F8A002D4F8B802CE
:1036A00058B1D4F8B802406838B12179D4F8B802DA
:1036B00042682046904700B103254023002211466E
:1036C0002046FFF7ADFF01214FF4B27001534021B6
:1036D000001F01514023002280212046FFF7A0FF58
:1036E0000121A18440212162284670BD014691F844
:1036F0009C02042803D191F89D0281F89C020020CD
:10370000704710B5044694F89C0203280BD1D4F8F6
:10371000B80240B1D4F8B802C06920B1D4F8B802F8
:10372000C16920468847002010BD02461174002060
:1037300070472DE9F04104460D4600260027294632
:10374000D4F8C802FEF79CF806463046FFF7CAFCDC
:1037500007463846BDE8F08170B504460D46294657
:1037600004F2AA2000F07BF80120C4F894024FF480
:103770002C70005BC4F8980294F8AA0200F01F00B5
:1037800020B1012809D0022815D10DE004F2AA21A8
:10379000204600F087F9064616E004F2AA212046EA
:1037A00000F010FB06460FE004F2AA21204600F0CC
:1037B000C9F9064608E094F8AA0200F08001204604
:1037C00000F005F8064600BF00BF304670BD2DE989
:1037D000F04104460D46002600272946D4F8C802C9
:1037E000FDF73FFB06463046FFF77CFC07463846B0
:1037F000BDE8F08170B5044600250026D4F8C80263
:10380000FEF761F805462846FFF76CFC0646304691
:1038100070BD014691F89C02042803D091F89C02E7
:1038200081F89D02042081F89C02002070472DE958
:10383000F04704460D4616461F464FF00008C146A5
:103840003B4632462946D4F8C802FDF74FFB804676
:103850004046FFF747FC81464846BDE8F08770B513
:1038600005460E46344620782870641C207868701F
:10387000641C2046FEF7D5FD6880641C641C20464D
:10388000FEF7CFFDA880641C641C2046FEF7C9FD2E
:10389000E88070BD38B504460D46002000900DB993
:1038A000032038BDC4F8B85204F52E70D4F8D412F1
:1038B00050F82100C06A50B104F52E70D4F8D4221B
:1038C00050F82200C16A68468847C4F8D002D4F88C
:1038D000D802401CC4F8D8020020E2E701460020CC
:1038E000704770B504460D46A88810BBE88800BB39
:1038F000688880281DD2A87800F07F0694F89C0282
:10390000032804D129462046FFF7D5F915E084F8AD
:103910009E6231462046FFF70CFF2046FFF709FA6A
:103920001EB1022084F89C0207E0012084F89C026A
:1039300003E029462046FFF7BEF970BD70B5044686
:103940000D460026D4F8B80230B1D4F8B8022946A2
:103950000268204690470646304670BD70B5044662
:103960000E460025B0783D490870084600780128C9
:1039700005D931462046FFF79EF9032070BD94F823
:103980009C02022802D0032859D11FE03348007856
:10399000C0B1324800786060304801782046FFF7B7
:1039A000CDFF05463DB131462046FFF784F90220A0
:1039B00084F89C0209E02046FFF7BBF9032084F855
:1039C0009C0202E02046FFF7B4F943E02348007868
:1039D00070B9022084F89C022048007860601F487B
:1039E00001782046FFF71CF92046FFF7A2F925E0F1
:1039F0001A490978606888421DD021792046FFF76E
:103A00000FF9164800786060144801782046FFF7E7
:103A100095FF05465DB131462046FFF74CF9217907
:103A20002046FFF7FDF8022084F89C0206E02046BD
:103A3000FFF77FF902E02046FFF77BF90AE0314605
:103A40002046FFF738F9054801782046FFF7E8F8E7
:103A5000032500BF00BF284690E700003C0100207E
:103A600070B505460C466088012805D1C5F8A4024A
:103A70002846FFF75EF90EE06088022807D1A0888B
:103A8000001285F8A0022846FFF753F903E021460B
:103A90002846FFF710F970BD10B504462046FFF721
:103AA000A9FE10BD70B505460C460026207800F032
:103AB000600050B1202802D040283BD100E000BF78
:103AC0002146284600F0DCF939E060780A282AD23D
:103AD000DFE800F01A24291F290A0529150F2146BD
:103AE0002846FFF75EF923E021462846FFF7F9FE56
:103AF0001EE021462846FFF731FF064618E0214622
:103B00002846FFF723F913E021462846FFF793FAEA
:103B10000EE021462846FFF7A3FF09E0214628468C
:103B2000FFF78CF804E021462846FFF7C4F800BFF1
:103B300000BF04E021462846FFF7BDF800BF00BFE4
:103B4000304670BD2DE9F04705460F464FF000099D
:103B50003C79387800F06000F8B1202802D0402885
:103B60007DD100E000BF21462846FFF786F80646D3
:103B7000FF2E11D086B9C5F8D46205F52E7050F825
:103B80002600806840B105F52E7050F826003946B1
:103B9000826828469047814610E1787800287AD0DC
:103BA00001282FD003286ED195F89C02022802D05C
:103BB000032820D110E054B1802C08D0214628469B
:103BC000FFF705FE80212846FFF701FE03E0394696
:103BD0002846FFF770F813E0788840B93CB1802C94
:103BE00005D0F88818B921462846FFF7F0FD284689
:103BF000FFF79FF804E039462846FFF75CF800BF5E
:103C000000BFD4E095F89C02022802D003283BD1E3
:103C100010E054B1802C08D021462846FFF7D7FD8C
:103C200080212846FFF7D3FD03E039462846FFF7F9
:103C300042F82EE0788820BB04F07F0018B12146BE
:103C40002846FFF706FB2846FFF773F8214628466B
:103C5000FFF713F80646FF2E13D096B900E0A8E050
:103C6000C5F8D46205F52E7050F82600806840B182
:103C700005F52E7050F82600394682682846904790
:103C8000814606E007E08DE039462846FFF713F845
:103C900000BF00BF8BE095F89C02022802D00328E9
:103CA00079D126E034B1802C04D039462846FFF77C
:103CB00002F875E004F08000802808D104F07F004D
:103CC00000EB800105F1140000EB810007E004F037
:103CD0007F0000EB800105F5AA7000EB81008046B3
:103CE0000020C8F80000022241462846FFF710F8DD
:103CF00056E004F0800080280ED104F00F0000EBA5
:103D0000800105F1140000EB8100008A98B9394662
:103D10002846FEF7D0FF43E004F00F0000EB8001DF
:103D200005F5AA7000EB8100008A20B939462846C3
:103D3000FEF7C1FF34E004F08000802808D104F0D1
:103D40007F0000EB800105F1140000EB810007E02B
:103D500004F07F0000EB800105F5AA7000EB810004
:103D600080460CB1802C03D10020C8F800000CE084
:103D700021462846FFF7F0FB20B10120C8F80000DB
:103D800003E008E00020C8F800000222414628466F
:103D9000FEF7BEFF04E039462846FEF78CFF00BF61
:103DA00000BF04E039462846FEF785FF00BF00BF8C
:103DB00004E039462846FEF77EFF00BF00BF4846B4
:103DC000BDE8F0872DE9F04106460D46002728782A
:103DD00000F0600030B1202802D0402847D100E038
:103DE00000BF00BF96F89C02012804D0022803D02F
:103DF000032835D101E000BF00BF2879012822D86F
:103E000029793046FEF73CFF0446FF2C14D09CB9BC
:103E100006F52E7050F82400806858B1C6F8D442D8
:103E200006F52E7050F824002946826830469047E7
:103E3000074602E0032700E00327E88818B917B90E
:103E40003046FEF776FF2878C12804D1294630464F
:103E500000F016F809E029463046FEF72CFF04E092
:103E600029463046FEF727FF00BF00BF04E0294681
:103E70003046FEF720FF00BF00BF3846BDE8F081A6
:103E8000F8B506460C46A088042802D005280ED1B5
:103E900006E0D6F8B402C1696846884705460BE0DB
:103EA000D6F8B402016A68468847054604E0214610
:103EB0003046FEF700FFF8BD00BFBDF8000088B136
:103EC000E08878B1E088BDF80010884202DDBDF8D6
:103ED000000000E0E0880090BDF800202946304650
:103EE000FEF716FF00BFE6E70146282008800148DC
:103EF000704700000800002001468E20088001481D
:103F0000704700003000002010B5044622460349E7
:103F10000348FFF7BDF8014810BD00002C4D0120FB
:103F2000006F00087047000001460148704700001C
:103F30001064012070B504460B4622461978587863
:103F400001282CD140F61C0080581D7805F00F0682
:103F50000125B540ADB2284340F61C05A85002F536
:103F6000106000EB4110006800F40040F0BB1889BD
:103F7000C0F30A001D7940EA854040EA815040F0D4
:103F8000805040F4004002F5106505EB41152D68A6
:103F9000284302F5106505EB411528602DE040F639
:103FA0001C0080581D7805F00F060125B540144E01
:103FB00006EA0545284340F61C05A85002F5306086
:103FC00000EB4110006800F4004078B91889C0F394
:103FD0000A001D7940EA854040F0805040F40040DE
:103FE00002F5306505EB41152D6800E005E028433A
:103FF00002F5306505EB41152860002070BD00001A
:104000000000FFFF01460A464FF410608058C30AC3
:10401000DB024FF41060835040F60400805840F4F7
:10402000807340F604008350002070470FB470B5D1
:1040300004469DF81900012818D1A06B20F48030A7
:10404000A063E0681B490840E060E06820F440108D
:10405000E0609DF82000012803D1E06840F4801062
:10406000E060204600F028F8054613E0E06840F0E4
:104070004000E060204600F01FF805469DF81D0056
:1040800020B9A06B40F48030A06303E0A06B20F463
:104090008030A0639DF81600012807D1A06840F089
:1040A0000600A060A06840F02000A060284670BC18
:1040B0005DF814FBBFFFBDFF08B50146002000906E
:1040C00000BF0098401C00900098B0F1706F01D9BB
:1040D000032008BD086900F000400028F1D000204E
:1040E0000090086940F00100086100BF0098401C82
:1040F00000900098B0F1706F01D90320E9E70869DA
:1041000000F001000028F1D100BFE2E770B50446DD
:104110000B46224619785878012848D102F51060DC
:1041200000EB4110006800F00040B0F1004F17D1E3
:1041300002F5106000EB4110006840F0006502F5E8
:10414000106000EB4110056002F5106000EB4110BB
:10415000006840F0804502F5106000EB41100560FA
:1041600040F63C0080581D7805F00F060125B5404B
:10417000ADB2A84340F63C05A85040F61C0080585C
:104180001D7805F00F060125B540ADB2A84340F6F5
:104190001C05A85002F5106000EB411000682B4D83
:1041A000284002F5106505EB411528604BE002F54B
:1041B000306000EB4110006800F00040B0F1004FAB
:1041C00017D102F5306000EB4110006840F0006547
:1041D00002F5306000EB4110056002F5306000EB45
:1041E0004110006840F0804502F5306000EB41105E
:1041F000056040F63C0080581D7805F00F0601254B
:10420000B540134E06EA0545A84340F63C05A850C4
:1042100040F61C008558187800F00F060120B040C9
:104220000B4E06EA0040854340F61C00855002F51F
:10423000306000EB41100068064D284002F5306503
:1042400005EB41152860002070BD0000007833ECBC
:104250000000FFFF0078F3EF01460A46D2F8000E97
:1042600020F00300C2F8000E40F60400805820F051
:10427000020340F6040083500020704701460A46BE
:10428000D2F8000E20F00300C2F8000E40F6040041
:10429000805840F0020340F604008350002070472D
:1042A0000FB4F0B5054600272E46002405E0002196
:1042B00005F5827040F82410641C0F2CF7D39DF88C
:1042C0002200A0B940F60400805940F0020140F6F7
:1042D00004008151A86B40F40010A863A86B20F47F
:1042E0000020A863A86B20F48020A86307E0A86BD7
:1042F00020F40010A863A86B40F40020A8630020FD
:10430000C6F8000E9DF81D0001280CD19DF81B0079
:1043100020B90021284600F004FD08E001212846CC
:1043200000F0FFFC03E00321284600F0FAFC102116
:10433000284600F0FCFB00B10127284600F0CFFB27
:1043400000B1012700214FF401608151001D81510E
:1043500040F61C00815100242EE006F5106000EBB1
:104360004410006800F00040B0F1004F10D13CB99B
:104370004FF0006106F5106000EB441001600DE0A5
:104380004FF0904106F5106000EB4410016005E02D
:10439000002106F5106000EB44100160002106F5D5
:1043A000106000EB441001614FF67F3106F510609C
:1043B00000EB44108160641C9DF81800A042CCD82A
:1043C00000242EE006F5306000EB4410006800F099
:1043D0000040B0F1004F10D13CB94FF0006106F53C
:1043E000306000EB441001600DE04FF0904106F5A5
:1043F000306000EB4410016005E0002106F53060FC
:1044000000EB44100160002106F5306000EB441021
:1044100001614FF67F3106F5306000EB441081609A
:10442000641C9DF81800A042CCD84FF4016080595C
:1044300020F480714FF4016081510020A8616FF079
:10444000804068619DF81A0018B9A86940F0100012
:10445000A861A8690A490843A8619DF81E0018B11F
:10446000A86940F00800A8619DF82200012803D146
:10447000A86904490843A8613846F0BC5DF814FBFC
:1044800000383C80040000400146886820F00100AC
:10449000886000207047000070B503460C4619463E
:1044A0001D6C1848854209D94FF43060405800F01F
:1044B0000040B0F1004F01D1002070BD0026C1F8CE
:1044C000106BD1F8100B40F40026C1F8106BD1F836
:1044D000100B40F01806C1F8106BD1F8100B40F02B
:1044E000C046C1F8106B012C09D1C1F8142B4FF450
:1044F0003060405840F080264FF430604650002035
:10450000DBE700000A30544F30B504460B46224624
:104510001978587801281ED102F5106000EB41107F
:10452000006820F4001502F5106000EB41100560F2
:104530001879032802D0187902282AD102F51060D0
:1045400000EB4110006840F0805502F5106000EB70
:10455000411005601DE002F5306000EB411000687D
:1045600020F4001502F5306000EB41100560187969
:10457000032802D0187902280BD102F5306000EB35
:104580004110006840F0805502F5306000EB4110AA
:104590000560002030BD30B504460B462246197830
:1045A0005878012821D102F5106000EB4110006815
:1045B00000F0004060B959B102F5106000EB411005
:1045C000006820F0804502F5106000EB41100560A6
:1045D00002F5106000EB4110006840F4001502F590
:1045E000106000EB4110056020E002F5306000EB48
:1045F0004110006800F0004060B959B102F5306028
:1046000000EB4110006820F0804502F5306000EBBF
:104610004110056002F5306000EB4110006840F485
:10462000001502F5306000EB41100560002030BD40
:104630002DE9F84381460E4617464D46347870788A
:1046400001287DD1306920BB05F5106000EB4410D6
:104650000069E349084005F5106101EB4411086168
:1046600005F5106000EB4410006940F4002105F5E9
:10467000106000EB4410016105F5106000EB441080
:104680000069C10CC90405F5106000EB441001611C
:104690006BE005F5106000EB44100069C10CC90423
:1046A00005F5106000EB4410016105F5106000EBAA
:1046B00044100069CA49084005F5106101EB441136
:1046C000086194B9B1683069884201D9B068306135
:1046D00005F5106000EB4410006940F4002105F579
:1046E000106000EB4410016114E0B16830690844C7
:1046F000401EB0FBF1F0BA49C94301EAC04005F5DC
:10470000106101EB44110969084305F5106101EBE3
:104710004411086105F5106000EB4410006931692F
:10472000C1F31201084305F5106101EB4411086162
:104730003079012819D105F5106000EB441000E034
:1047400093E0006920F0C04105F5106000EB4410D3
:10475000016105F5106000EB4410006940F0005164
:1047600005F5106000EB44100161012F36D1F069AE
:1047700028B105F5106000EB4410F1694161307912
:1047800001281ED140F60800405900F4807060B93D
:1047900005F5106000EB4410006840F0005105F58D
:1047A000106000EB441001600BE005F5106000EBB9
:1047B0004410006840F0805105F5106000EB441093
:1047C000016005F5106000EB4410006840F0044102
:1047D00005F5106000EB44100160FEE005F5106087
:1047E00000EB4410006840F0044105F5106000EB58
:1047F00044100160307901280FD030690028ECD0D6
:1048000040F634004059317801F00F020121914007
:10481000084340F634014851DFE040F608004059B3
:1048200000F4807060B905F5106000EB441000687A
:1048300040F0005105F5106000EB441001600BE002
:1048400005F5106000EB4410006840F0805105F55C
:10485000106000EB441001600097308A83B2327818
:104860004846F16800F0DAFAB7E005F5306000EB91
:1048700044100069C10CC90405F5306000EB441018
:10488000016105F5306000EB4410006954490840AF
:1048900005F5306101EB4411086104BB306908B1D2
:1048A000B0683061B068306205F5306000EB4410EC
:1048B0000069316AC1F31201084305F5306101EB6B
:1048C0004411086105F5306000EB4410006940F4C4
:1048D000002105F5306000EB4410016145E03069CE
:1048E000D0B905F5306000EB44100069B168C1F340
:1048F0001201084305F5306101EB4411086105F52B
:10490000306000EB4410006940F4002105F5306090
:1049100000EB4410016128E0B16830690844401E92
:10492000B0FBF1F01FFA80F8B06800FB08F03062CD
:1049300005F5306000EB441000692949C94301EADC
:10494000C841084305F5306101EB4411086105F5E4
:10495000306000EB44100069316AC1F31201084372
:1049600005F5306101EB44110861012F07D1F068B2
:1049700028B105F5306000EB4410F16841613079F1
:1049800001281ED140F60800405900F4807060B93B
:1049900005F5306000EB4410006840F0005105F56B
:1049A000306000EB441001600BE005F5306000EB77
:1049B0004410006840F0805105F5306000EB441071
:1049C000016005F5306000EB4410006840F00441E0
:1049D00005F5306000EB441001600020BDE8F8836D
:1049E000FFFF07E078B503460024009400201A4634
:1049F0004C78012C35D10C7802F5106505EB441488
:104A0000246804F00044B4F1004F60D10C7805EB49
:104A10004414246844F000660C7805EB44142660C6
:104A20000C7805EB4414246844F080460C7805EBC0
:104A30004414266000BF009C641C009442F2107570
:104A4000009CAC4201D901200AE00C7802F5106507
:104A500005EB4414246804F00044B4F1004FEAD09C
:104A600035E00C7802F5306505EB4414246804F059
:104A70000044B4F1004F2AD10C7805EB44142468AB
:104A800044F000660C7805EB441426600C7805EBC6
:104A90004414246844F080460C7805EB44142660E6
:104AA00000BF009C641C009442F21075009CAC4254
:104AB00001D901200AE00C7802F5306505EB4414B9
:104AC000246804F00044B4F1004FEAD000BF78BD80
:104AD0000146886840F0010088600020704708B5F2
:104AE00001460020009000BF0098401C00900098F4
:104AF000B0F1706F01D9032008BD086900F00040D3
:104B00000028F1D0002000901020086100BF00981C
:104B1000401C00900098B0F1706F01D90320EBE7C2
:104B2000086900F010001028F1D00020E4E708B573
:104B300002460020009000BF0098401C00900098A2
:104B4000B0F1706F01D9032008BD106900F000407A
:104B50000028F1D000200090202040EA8110106150
:104B600000BF0098401C00900098B0F1706F01D910
:104B70000320E9E7106900F020002028F1D0002090
:104B8000E2E710B501460B4640F60804E45804F08D
:104B900006020AB9002006E0022A01D0062A01D145
:104BA000022000E00F2010BD0146486900F001001E
:104BB000704701460B4640F61800C258001DC05809
:104BC000024090B2704701460B4640F61800C258AA
:104BD000001DC0580240100C704770B502461346C5
:104BE0004FF40166F45840F63406F55801F00F060C
:104BF00025FA06F606F0010644EAC61403F5106627
:104C000006EB4116B66806EA040070BD10B5024610
:104C1000134603F5306404EB4114A06840F6140415
:104C2000E458204010BD014648698A691040704729
:104C30002DE9F04104460D46274628464FEA920CDE
:104C400002F0030300210AE04FF4805858F807806F
:104C5000C0F80080401C401C401C401C491C6145A1
:104C6000F2D39BB100214FF4805858F8076000BF81
:104C70004FEAC10826FA08F880F80080491C401C59
:104C8000A3F101081FFA88F3002BF1D1BDE8F081F0
:104C900070B504460E460025E06820F0C040E06094
:104CA000012E10D1E06840F00050E06000BF0A2003
:104CB000FBF772FD0A352046FFF776FF012815D075
:104CC000C82DF4D312E07EB9E06840F08040E06087
:104CD00000BF0A20FBF760FD0A352046FFF764FF9E
:104CE00020B1C82DF5D301E0012070BDC82D01D140
:104CF0000120FAE70020F8E710B502460B461146FE
:104D0000D1F8000820F4FE60C1F80008D1F80008CE
:104D10004FF4FE6404EA03142043C1F800080020A5
:104D200010BD02461346D3F800080843C3F8000834
:104D30000020704730B503461446022C49D12D4857
:104D4000814204D32C48814201D20F2245E02A48F7
:104D5000814204D32948814201D20E223DE02748F6
:104D6000814204D32648814201D20D2235E02448F5
:104D7000814204D32348814201D20C222DE02148F4
:104D8000814204D32048814201D20B2225E01E48F3
:104D9000814204D31D48814201D20A221DE01B48F2
:104DA000814204D31A48814201D2092215E01848F1
:104DB000814204D31748814201D208220DE01548F0
:104DC000814204D31448814201D2072205E0062221
:104DD00003E00CB9092200E00922D86820F47050E1
:104DE000D860D8684FF4705505EA82252843D8600A
:104DF000002030BDC0ACD800C0E1E4000024F400C5
:104E000080730601A0491A01002D310140A44C0114
:104E100000366E0120ABA6010048E8012DE9F04301
:104E200004460D461E46DDF81CC0A0462946BCF1CE
:104E3000000F12D1F01C870800230CE0D1F800907D
:104E400008F5805000EB0230C0F80090491C491C66
:104E5000491C491C5B1CBB42F0D30020BDE8F08319
:104E600000BFFEE710B500240A480078012800D0F2
:104E700010BD094800780849497800EB012084B248
:104E800021460648FBF756FC00200249087000BF87
:104E9000EEE700000000002050020020500A002031
:104EA00002480068C0F30220704700000CED00E0EB
:104EB00010B5002804DB0A07130E054A135406E058
:104EC0000A07140E034A00F00F031B1FD45410BD31
:104ED00000E400E018ED00E0EFF305807047FBF719
:104EE00089FDFDF7BBFAFDF7E9F800F015F8FDF7CD
:104EF000D5F800F027F800BFFEE770B50546FFF7CC
:104F0000EBFF10B16FF0050404E0002415B1284652
:104F100000F0FAFF204670BD10B5FFF7DDFF10B1BD
:104F20006FF0050409E00648006820B90120044933
:104F30000860002401E04FF0FF34204610BD00005F
:104F40002002002070B5FFF7C7FF10B16FF0050415
:104F50001FE011480068012819D100BF801F0021FF
:104F6000002804DB0A07130E0C4A135406E00A0754
:104F7000150E0B4A00F00F031B1FD55400BF00BFD6
:104F800002200549086001F03BF8002401E04FF0E1
:104F9000FF34204670BD00002002002000E400E045
:104FA00018ED00E02DE9FF478046894614460020B1
:104FB0000390FFF791FF00284ED1B8F1000F4BD0BE
:104FC000802618258246471E44B3206808B1D4F8CD
:104FD00000A0A06900B1A5692DB1382D03D82079B2
:104FE00000F0010018B1002004B0BDE8F08760694E
:104FF00008B160698608A06840B1E0685C2805D304
:10500000206918B1606908B1012708E0A06830B9CB
:10501000E06820B9206910B9002700E00027012FBF
:105020000CD12169A0684B463246CDE9005102906F
:105030005146404601F098FC03900DE067B903A883
:10504000B2B24B465146CDE90050404601F05AFC01
:10505000012801D0002003900398C5E72DE9F04115
:1050600005460E461648076816480068001D00F001
:10507000C3FD681C38B936B112480168091D1248D1
:1050800000F010FE1AE07C190E4800684460BC4233
:1050900007D20C480168091D0C48006800F0E8FDC3
:1050A0000CE008480168091D0948006800F0E0FDAF
:1050B00008480068844201D206480460BDE8F081D7
:1050C000E4010020D0010020206B0120D801002045
:1050D000D40100200002002010B5044600F0EEFDCF
:1050E00024480068401C234908602348006840B9F0
:1050F000214804600846006801280DD100F0FCF941
:105100000AE01E48006838B91B480068C06AE16AB6
:10511000884201D81848046019480068401C1849A2
:1051200008600846006860641649E06A09688842B9
:1051300002D91449E06A0860E16A01EB8101124A70
:1051400002EB8100211D00F0ADFD00F0E1FD0B48F8
:10515000006868B108480068C06AE16A884207D2FE
:105160004FF0805009490860BFF34F8FBFF36F8F36
:1051700010BD0000E0010020D0010020EC01002063
:10518000FC010020E80100207066012004ED00E031
:1051900008B500F093FD12480068E8B9114800F026
:1051A00057FD114800F054FD0E48104908600E48A4
:1051B0000F49086000200F4B0F4A102100900A2071
:1051C00001F098F8064908600846006820B10BA174
:1051D0000348006800F05CFE00F09AFD08BD000086
:1051E00014020020346B0120486B01200C020020C7
:1051F000100200205C6B0120AC6B0120546D7251D9
:105200000000000010B516E000F058FD0C48C06822
:10521000C468201D00F0F0FC0A480068401E0949DF
:10522000086009480068401E0749086000F070FDEA
:10523000204600F05FF8044800680028E4D110BD63
:105240000C6B0120E0010020DC01002070B5044659
:105250000D46206C70B1216CE0680144E160D4E936
:105260000210884201D32168E1602846226CE1687F
:10527000FBF703F970BD2DE9F04104460F461546D2
:105280004FF00008A66B206C48B9206800282CD18C
:10529000A06801F07FFC80460020A06025E07DB979
:1052A0003946226C6068FBF7E8F8216C60680844B6
:1052B0006060D4E90101884217D32068606014E07F
:1052C0003946226CE068FBF7D8F8216CE068411A97
:1052D000E1602168E068884203D2216CA068411A2D
:1052E000E160022D01D106B1761E701CA06340461C
:1052F000BDE8F08110B5044694F8590030B9206B30
:1053000000F024FD204600F021FD1AE094F8590039
:10531000012803D1204600F019FD12E094F859004D
:10532000022801D1012000E0002050B900BF502028
:1053300080F31188BFF34F8FBFF36F8F00BF00BFA3
:10534000FEE710BD0146084A126812680AB9012238
:1053500000E000220A600A6822B9034A1268D26893
:10536000106800E0002070470C02002030B54FF4B8
:105370007053174800F007042CB1C01D20F007003F
:10538000134C041B1B1B0246124C22600024114DBF
:105390006C60D018083820F007000F4C2060002403
:1053A0000D4D2D686C600C4D2D682C601146441A13
:1053B0004C60094C24680C60084D4C682C60084D0A
:1053C0004C682C604FF00044064D2C6030BD00004E
:1053D00004730120240200202C020020340200204B
:1053E000300200204002002000BFFFF70BFF0648FC
:1053F00000680128F9D94FF0805004490860BFF3D4
:105400004F8FBFF36F8FF0E77066012004ED00E06F
:105410002DE9F04106460D4617469846069C0DB903
:10542000246000E02760E66325640121204600F047
:10543000D1FF84F84C80BDE8F0812DE9F05F824611
:105440000E4690469B460A9F0C9C4FEA8801A52277
:10545000206BFBF757F8A8F10100216B01EB8009E5
:1054600029F0070909F0070008B9012000E0002031
:1054700050B900BF502080F31188BFF34F8FBFF3A6
:105480006F8F00BF00BFFEE786B1002507E0715DAA
:1054900004F134004155705D00B902E06D1C102D1F
:1054A000F5D300BF00214320015502E0002084F81D
:1054B0003400382F00D33727E762E76400202065E7
:1054C000201D00F0D2FB04F1180000F0CEFB246197
:1054D000C7F13800A06164620020606584F858005C
:1054E0005A465146484600F071FB20600B9808B1BF
:1054F0000B980460BDE8F09F10B5002407E004EBB2
:1055000084010F4A02EB810000F0A2FB641C382CDE
:10551000F5D30C4800F09CFB0B4800F099FB0B48BE
:1055200000F096FB0A4800F093FB0A4800F090FB5D
:1055300004480949086004480849086010BD000093
:1055400070660120D06A0120E46A0120F86A012017
:105550000C6B0120206B0120D4010020D801002019
:1055600010B50146164800E0006803688B42FBD383
:105570000246436813448B4204D143684C68234479
:10558000436001460A464B6813440468A34211D1A4
:105590000C4C03682468A34208D04B680468646814
:1055A00023444B6003681B680B6005E0054B1B68D8
:1055B0000B6001E003680B60884200D0016010BD01
:1055C000240200202C0200202DE9F04104460D4663
:1055D00016461F464FF0000865602461B5420CD89E
:1055E000F01BA169884202D34FF0010811E0211D90
:1055F0000948006800F03CFB0BE0BE4204D2BD420B
:1056000002D34FF0010804E0211D0448006800F0B7
:105610002FFB4046BDE8F081100200200C02002064
:1056200070B5054600F04AFBA86B08B9012400E0FC
:10563000002400F06DFB204670BD70B5054600F0FB
:105640003DFBA86BE96B884201D1012400E00024F6
:1056500000F05EFB204670BDF8B505460F461A48BF
:105660000068C068C468201D00F0C6FA94F82800DD
:1056700000F00400E8B1A06941192B463A462046E3
:10568000FFF7A2FFD8B1002003462A46014600904A
:10569000204601F0DBFB064656B900BF502080F3E0
:1056A0001188BFF34F8FBFF36F8F00BF00BFFEE7BE
:1056B00005E094F8280020F0010084F82800204636
:1056C000216A8847F8BD00000C020020F0B587B0C1
:1056D000A0E00398002811DA04AE56B900BF5020AC
:1056E00080F31188BFF34F8FBFF36F8F00BF00BFF0
:1056F000FEE7D6E90020B168904700BF0398002874
:10570000E6DB059C606908B9012000E0002010B9C3
:10571000201D00F071FA02A800F0DEF8054603989B
:105720000A2875D2DFE800F0090507394163060849
:105730003A4200BF00BF00BF00BF94F8280040F00D
:10574000010084F828000498A269811803462A46BB
:105750002046FFF739FFF8B12046216A884794F8C0
:10576000280000F00400B8B1002000900498A1695E
:10577000421800231946204601F068FB074657B936
:1057800000BF502080F31188BFF34F8FBFF36F8F9E
:1057900000BF00BFFEE700BF3BE000BF94F8280059
:1057A00020F0010084F8280033E000BF94F82800BE
:1057B00040F0010084F828000498A061A06908B1B5
:1057C000012000E0002050B900BF502080F3118874
:1057D000BFF34F8FBFF36F8F00BF00BFFEE7A0691D
:1057E00041192B462A462046FFF7EEFE11E094F8B9
:1057F000280000F0020018B9204600F0A7FA05E0E2
:1058000094F8280020F0010084F8280001E0FFE768
:1058100000BF00BF002203A90448006800F078FF21
:1058200000287FF456AF07B0F0BD0000140200203E
:10583000F8B505460C4600F03FFC684600F04CF811
:105840000646009820BB44B9B54206D801F040FA9C
:1058500031462846FFF700FF1CE03CB10E480068C7
:10586000006808B9012000E000200446A91B224678
:105870000A48006800F022FB01F02AFA50B94FF004
:10588000805007490860BFF34F8FBFF36F8F01E06F
:1058900001F01EFAF8BD00001002002014020020E2
:1058A00004ED00E00A490968096809B9012100E02E
:1058B000002121B14FF0FF31064A116006E0044992
:1058C0000968C968C868034A4168116070470000E8
:1058D000D40100200002002070B5044601F0B2F8A7
:1058E000054607480068854204D200F00BF8012005
:1058F000206001E00020206001480560284670BD5E
:105900001C0200202DE9F84334E025480068C068F7
:10591000056823480068C068C468201D00F06CF961
:105920002046216A884794F8280000F0040008B354
:10593000A0694619AE4207D966602461211D184846
:10594000006800F095F915E0002003462A4601465C
:105950000090204601F07AFA074657B900BF502060
:1059600080F31188BFF34F8FBFF36F8F00BF00BF6D
:10597000FEE700BF0A480068006808B9012000E09F
:1059800000200028C1D00648D0F8008005480068F3
:10599000034908600348C0F80080BDE8F8830000B0
:1059A0000C020020100200200E480068401C08B9BC
:1059B000012000E0002050B900BF502080F3118882
:1059C000BFF34F8FBFF36F8F00BF00BFFEE700BF75
:1059D000502080F31188BFF34F8FBFF36F8F00BF4C
:1059E00000BFFEE74402002008B500BF6846FFF78D
:1059F000A9FC044620460099FFF71AFFFFF766FE50
:105A0000F4E770B5044600F059F994F9455010E0F8
:105A1000606A08B9012000E0002038B904F12400D0
:105A200001F00AF918B100F0A9FA00E003E0681EDD
:105A300045B2002DECDC00BFFF2084F8450000F0EB
:105A400067F900F03BF994F9445010E0206908B977
:105A5000012000E0002048B904F1100001F0ECF84A
:105A600008B100F08BFA681E45B200E001E0002D9D
:105A7000ECDC00BFFF2084F8440000F049F970BD61
:105A80002DE9F04104464FF0000800F015FB4948AD
:105A9000006808B9FFF76AFC474800682040002802
:105AA00070D1D4B1083404F00700B0B104F007009D
:105AB000C0F10800044404F0070008B9012000E028
:105AC000002050B900BF502080F31188BFF34F8FE2
:105AD000BFF36F8F00BF00BFFEE7002C52D03748E6
