:020000040800F2
:10000000C89D022021040008A56A00087163000849
:10001000A16A0008D93E0008E99C00080000000021
:100020000000000000000000000000006103000864
:10003000D340000800000000BD030008357100082F
:100040003B0400083B0400083B0400083B04000894
:100050003B0400083B0400083B0400083B04000884
:100060003B0400083B0400083B0400083B04000874
:100070003B0400083B0400083B0400083B04000864
:100080003B0400083B0400083B0400083B04000854
:100090003B0400083B0400083B0400083B04000844
:1000A0003B0400083B0400083B0400083B04000834
:1000B0003B0400083B0400083B0400083B04000824
:1000C0003B0400083B0400083B0400083B04000814
:1000D0003B0400083B0400083B0400083B04000804
:1000E0003B0400083B0400083B0400083B040008F4
:1000F0003B0400083B0400083B0400083B040008E4
:100100003B0400083B0400083B0400083B040008D3
:100110003B0400083B0400083B0400083B040008C3
:10012000E53F00083B0400083B0400083B040008CE
:100130003B0400083B0400083B0400083B040008A3
:100140003B0400083B0400083B0400083B04000893
:100150003B0400083B0400083B0400083B04000883
:100160003B0400083B040008B96A0008A96A0008BB
:100170003B040008C96A00083B04000800000000B6
:100180003B0400083B0400083B0400083B04000853
:100190003B0400083B0400083B0400083B04000843
:1001A0003B0400083B0400083B04000800F002F890
:1001B00000F0CDF80AA090E8000C82448344AAF134
:1001C0000107DA4501D100F0C2F8AFF2090EBAE832
:1001D0000F0013F0010F18BFFB1A43F0010318477B
:1001E000B0710200F07102000A444FF0000C10F8E8
:1001F000013B13F0070408BF10F8014B1D1108BFA5
:1002000010F8015B641E05D010F8016B641E01F844
:10021000016BF9D113F0080F1EBF10F8014BAD1C94
:100220000C1B09D16D1E58BF01F801CBFAD505E0B2
:1002300014F8016B01F8016B6D1EF9D59142D6D30C
:1002400070470000103A24BF78C878C1FAD8520726
:1002500024BF30C830C144BF04680C607047000040
:100260000023002400250026103A28BF78C1FBD8BF
:10027000520728BF30C148BF0B6070476E2900F09D
:10028000F582702900F01984662926F04A806529D4
:1002900026F04780672926F04480612926F04380B4
:1002A00003681B0A28BF41F08001692900F0A2827F
:1002B000642900F09F82752900F09C826F2900F06C
:1002C000A683782900F0E583E92900F04183E42939
:1002D00000F03E83F52900F03B83EF2900F0A38373
:1002E000F82900F0E4830368DB0928BF41F08001AE
:1002F000632901F05486732901F05986E32901F03E
:100300007786002070471FB525F09DFF9DE803000C
:1003100001F082F901F064F904000020002125F0C9
:100320000DF820600020002124F0F2FF401C6060E6
:100330000020002125F018F8A0600020002125F001
:1003400029F8E06000F09DF801F028FF1FBD02F0E1
:1003500087FA1146FFF7D7FF1CF0A6FB0EF0C2F894
:100360002C4B19680868B0E8F04F80F30988BFF398
:100370006F8F4FF0000080F311887047000000007D
:1003800008480068006880F308884FF0000080F398
:10039000148862B661B6BFF34F8FBFF36F8F00DF73
:1003A00000BF00BF08ED00E0DFF80C00016841F479
:1003B00070010160704700BF88ED00E0EFF3098035
:1003C000BFF36F8F134B1A681EF0100F08BF20ED9C
:1003D000108A20E9F04F106009B44FF0500080F30C
:1003E0001188BFF34F8FBFF36F8F23F0C5FC4FF021
:1003F000000080F3118809BC19680868B0E8F04F64
:100400001EF0100F08BFB0EC108A80F30988BFF30C
:100410006F8F704728010010EFF3058070470000D0
:100420000948804709480047FEE7FEE7FEE7FEE788
:10043000FEE7FEE7FEE7FEE7FEE7FEE704480549C4
:10044000054A064B7047000001720008AD01000824
:10045000C81D0010C89D0220C89D0010C85D022064
:100460001CB5009000F0E1FE019069460E20ABBE85
:100470001CBD000000211020ABBE05490968401AD0
:10048000704700211020ABBE014908607047000092
:10049000FC00002010B501F0A3F8001D10BD00BF46
:1004A000714E020000487047641D001070B504468C
:1004B000051F01F091F80068002C14BF446870BD5E
:1004C000002C18BFAC423CBF20466468F8D30168DA
:1004D0000A18AA4218BF456003D12A68054611448C
:1004E000016028684119A1421CBF6C6070BD616841
:1004F000696021680844286070BD53EA020C00F06E
:1005000069802DE9F04B4FF00006002B1FBFB3FAB6
:1005100083F503FA05F424FA05F65E4012BF16438C
:10052000B2FA82F502FA05F4C5F120051EBF22FADF
:1005300005FC44EA0C04203556EA044C4FEA144406
:1005400018BF641C4FF000084FF00009904271EB97
:10055000030C39D3002919BFB1FA81F701FA07F664
:10056000B0FA80F700FA07F6C7F120071EBF20FA9D
:1005700007FC46EA0C062037B6FBF4FCA7EB0507A0
:10058000103F07F01F0BCBF120060CFA0BFB2CFAE7
:1005900006F644BFB3460026202FA4BF5E464FF0A8
:1005A000000B5BEA060C08BF4FF0010B19EB0B09BF
:1005B000ABFB027C48EB0608C01B06FB02CC0BFB26
:1005C00003CC71EB0C01C1E70B460246414648469D
:1005D000BDE8F08B13B54FF000004FF00001AFF312
:1005E0000080BDE81C407047B2F120030AD5C2F17B
:1005F000200301FA02F120FA03F300FA02F041EAC3
:100600000301704700FA03F14FF000007047B2F1A8
:1006100020030AD5C2F1200320FA02F001FA03F305
:1006200021FA02F140EA0300704721FA03F04FF08B
:100630000001704710B54C1084EA530404D54042C1
:10064000C1F1000138BF491E1B4204D55242C3F11B
:10065000000338BF5B1EFFF750FF14F0804F04D03B
:100660004042C1F1000138BF491E14F0004F04D0D0
:100670005242C3F1000338BF5B1E10BD10B50446E3
:10068000FFF708FF0068005DC00602D504F12000F6
:1006900010BD204610BD10B50446FFF7FBFE0068F4
:1006A000005D000704D5DF2C02D0A4F1200010BDAE
:1006B000204610BD0FB4044910B503AA029801F0FA
:1006C0007BFC10BC5DF814FB745D02200FB41CB5FC
:1006D000084B06AA7B4469460090059801F035FC5A
:1006E00004460020694601F043FC20461CBC5DF82E
:1006F00014FB0000991800000FB47CB50C0009AA87
:10070000009001D02044401E084B7B446946019074
:10071000089801F01AFC05461CB10020694601F05A
:1007200027FC28467CBC5DF814FB00006D18000017
:1007300070B5044685690068C10601D5302600E021
:100740002026C00707D070BDD4E90121304690476C
:10075000206A401C20626D1EF6D570BD70B504463F
:1007600085690078C00707D170BDD4E90121202038
:100770009047206A401C20626D1EF6D570BD096846
:100780004A0501D540B27047C905FCD500B2704793
:1007900009684A0501D5C0B27047C905FCD580B2C9
:1007A000704770B50C460546012A05D028788006AA
:1007B00000D5EA69002302E0012305E05B1C9342B7
:1007C00002D2E05C0028F9D1A869E618C01AA86135
:1007D000286A184428622846FFF7AAFF04E0D5E9F2
:1007E000012114F8010B9047B442F8D32846FFF7D3
:1007F000B5FF70BD2DE9F04106460024106875294B
:10080000314616A510D0FFF7BAFF002802DA4042A1
:1008100013A507E031688A0701D512A502E0490750
:1008200004D511A5012401E0FFF7B2FF00210A223F
:1008300006F1240709E0B0FBF2FCB0FBF2F302FB87
:100840001C00303078541846491C0028F3D1234648
:100850002A463046BDE8F04100F08CBF00000000A1
:100860002D0000002B00000020000000116802682D
:10087000006A530501D508700AE0D30501D5088048
:1008800006E0130603D5C217C1E9000200E00860C4
:10089000012070472DE9FF5F15468A460446DFF8C0
:1008A000AC80F8440027D8E900103E46CDE900109E
:1008B00010E03AF816106A4602A801F044FD411C07
:1008C00007D02178890603D5E269391891420DD8FD
:1008D0000744761C2078800602D5E069B84205DD21
:1008E000AE42E6DB3AF816000028E2D1A069C01B50
:1008F000A0612046FFF71CFFD8E90010CDE90010E9
:10090000002017E03AF818106A4602A801F01BFD13
:10091000B0F1FF3F81460BD000250DF1080B05E03B
:10092000D4E901211BF8050090476D1C4D45F7D314
:1009300008F10100B0428046E4DB206A38442062BE
:100940002046FFF70BFFBDE8FF9F00002A6302006F
:100950002DE9F0418046D21D22F007020025D2E9A0
:100960000002F52915A614D0011E72F1000106DA65
:100970000023D0EB030063EB020211A608E0D8F8D5
:1009800000108B0701D50FA602E0490701D50EA67E
:1009900001251146002408F1240704E000F09AFE26
:1009A00030323A55641C50EA0102F7D12B463246E8
:1009B00021464046BDE8F04100F0DCBE00000000EA
:1009C0002D0000002B0000002000000030B40021AA
:1009D00000F1240408E002F00705D208303542EAAD
:1009E0004372DB086554491C52EA0305F3D10468DD
:1009F000002310A2250707D5A40600D421B1C4699D
:100A000001230DA2641EC46130BC00F0B3BE10B55A
:100A1000044621461068FFF7BBFE02462046BDE8AB
:100A200010400023D2E7D21D22F00701D1E90023B4
:100A3000CCE700000000000030000000F0B40D46DC
:100A40000188090502D5214C7C4402E01F4C7C44FE
:100A50000E34002100F1240608E002F00F0712090D
:100A6000E75D42EA03721B097754491C52EA030707
:100A7000F3D102780023120704D5702D06D009B1F6
:100A8000022311342246F0BC00F074BE012310345E
:100A9000F8E770B504460D4621461068FFF778FE6A
:100AA000024629462046BDE870400023C6E7D21D15
:100AB00022F00703D3E90023C0E70368126843F07C
:100AC000200303600823C3610023B7E78C610200A1
:100AD0002DE9F05F894604464FF0000ADFF874B153
:100AE000FB44C0F820A02046E1688847002874D065
:100AF000252806D0D4E901219047206A401C2062B5
:100B0000F1E700265F462046E16888472028054631
:100B100007DB312D05D2781910F8200C08B10643F7
:100B2000F1E7B00701D526F00406C4F81CA00027A1
:100B3000C4F818A02A2D09D028460AF0FCFA38B3C8
:100B400004EB8708303DC8F8185019E059F8041B29
:100B5000204604EB87029161E1688847012F054632
:100B600018D1E069002820DA26F020061DE0D8F828
:100B7000180000EB800005EB40003038C8F8180082
:100B80002046E168884705460AF0D5FA0028EED1EC
:100B9000012F0AD02E2D08D12046E16888477F1CFE
:100BA0000546022F46F02006C4DBA069002803DAC0
:100BB000404246F00106A061F00701D026F0100681
:100BC0006C2D0BD0682D09D04C2D39D06A2D35D025
:100BD000742D35D07A2D33D016E038E0E1682F46F9
:100BE00020468847B842054609D16C2F26D04FF4DD
:100BF0008060E168064320468847054604E06C2F84
:100C00001AD04FF4807006430DB3A5F141001928A6
:100C100002D8203546F400664A462946204626601A
:100C20004E46FFF72BFB80B101280BD0F61D26F0B6
:100C3000070000F1080956E74020E4E78020D8E7E4
:100C40000020D6E706F104094DE7284652E7206A5E
:100C5000BDE8F09F1C610200007B00F0400070477F
:100C6000007B00F08000704770B50446C0688107C3
:100C700013D0800601D5A56A04E0A1696068084424
:100C80002169451A204601F045FA00220646294608
:100C9000204600F01BF8304670BD002070BD70B5D6
:100CA00010B1BDE87040DFE70025074C6E1E07E07D
:100CB0002046FFF7D9FF00B13546206D20F0010432
:100CC000002CF5D1284670BD8C1C00102DE9F04198
:100CD000044616460D464769007B80072ED03846ED
:100CE00000F051FC50BB3EB3012E02D0022E25D1A4
:100CF00004E0204600F066F805441DE0384600F0A8
:100D000050FCE168002841F01001E16005DA20465E
:100D100001F0CCF90120BDE8F081C9030BD5626870
:100D2000E16A914200D81146A26911442269891AE8
:100D3000814200DD08460544002D01DA0220EAE781
:100D4000E16A6068E268814206D29103E06203D5FD
:100D500022F4003141F01002A6690027AE4213DCF4
:100D6000E16A814201D90B4600E0034603EB060C21
:100D70002369ACEB030CAC4506DD814201D98C46FE
:100D800000E084469C4505D1A760276042F0200022
:100D9000A5620DE0AD1BE669AE1B8142A66000D9DD
:100DA0000846C01A281A20605819606022F02000F6
:100DB00003490840E060002084F84870ABE7000079
:100DC000BFCFD7FF10B50146C268900703D0900689
:100DD00007D5886A0AE0FFF765FB01210160881EDC
:100DE00010BD8B69486818440B69C01A91F84830E7
:100DF0001BB191F84910401A10BD1103FCD5002811
:100E0000FADD401E10BD2DE9F04198461746044614
:100E100002FB01F609B100250AE01046BDE8F081A9
:100E200014F8010B41460EF02BFB401CF6D06D1C54
:100E3000B542F5DB3846F1E70DF0C4BC70B5C468C7
:100E4000A50713D0650211D4B2F5807F09D0B2F5A1
:100E5000007F06D0B2F5806F08D1012300F1240194
:100E600006E05D1E6FF07F46B54201D3012070BDE4
:100E70000161C361416024F470611143C1600020CD
:100E800070BD00002DE9F0410C460746164610469D
:100E900000F06EF82078611C61280AD0722802D018
:100EA00077283CD102E00125002405E00225042436
:100EB00002E0082448F2020511F8010B2B2806D0A5
:100EC000622809D011F8010C74280AD00BE045F013
:100ED000030544F00204EFE745F0040544F0010483
:100EE000EAE744F010043846214600F02DFB411C8F
:100EF00015D00021316171604FF40071F560F1612E
:100F00007061200704D5304602220021FFF7DEFE83
:100F1000306D40F0010030653046BDE8F0810020C2
:100F2000FBE72DE9F0410D460646104C206DC10748
:100F300004D0410804D020F00104F7E722460EE077
:100F4000542000F098FB07000ED0206D47F00101FF
:100F5000084354212065384600F05AFA3A4629469B
:100F60003046BDE8F0418DE70020D6E78C1C00102C
:100F70002DE9F04304464FF0FF380025C1B0C668A4
:100F8000D4E90497B00707D0204601F0C3F83846EB
:100F900000F0E4FA002803DA404641B0BDE8F083EF
:100FA000300502D54846FFF781FA216A49B14FF46E
:100FB0008072684600F0FBFA6846FFF751FA00B10C
:100FC00045464C21204600F023FA206D20F0010018
:100FD00020652846E1E7000010B5024801F07AF9E3
:100FE000004810BD341D001010B5002001F0CBF9F1
:100FF000AFF30080BDE81040012000F0E1BA70B509
:101000000C46054600F0ECFA0068016859B1421838
:1010100015F8010B14F8013B115CD35C08B199423F
:10102000F6D0C81A70BD21462846BDE8704000F0D1
:1010300017BA0000072811D2DFE800F00406080EF6
:10104000100C0A0006A070470BA0704714A0704750
:101050001EA0704723A070472CA0704733A0704794
:101060004E6F206572726F7220286572726E6F20EB
:101070003D2030290000000045444F4D202D2066C2
:10108000756E6374696F6E20617267756D656E74DD
:10109000206F7574206F662072616E6765000000B6
:1010A0004552414E4745202D2066756E6374696F29
:1010B0006E20726573756C74206E6F74207265702B
:1010C000726573656E7461626C650000454E4F4DCC
:1010D000454D202D206F7574206F66206D656D6FF6
:1010E0007279000045494E56414C202D20696E769C
:1010F000616C696420617267756D656E7420746FD0
:101100002066756E6374696F6E0000004553494731
:101110004E554D202D20696C6C6567616C2073699C
:10112000676E616C206E756D62657200556E6B6ED8
:101130006F776E206572726F72000000401ECAB237
:1011400010F8011F8A4202D00029F9D1002070470F
:1011500010B504780CB10A4603E0002010BDA3428C
:10116000FCD012F8013B002BF9D1401CF1E730B55F
:1011700003461D783DB10A4612F8014B1CB1AC4242
:10118000FAD15B1CF5E7181A30BD40EA010310B52F
:101190009B070FD1042A0DD310C808C9121F9C4207
:1011A000F8D020BA19BA884201D9012010BD4FF0F9
:1011B000FF3010BD1AB1D30703D0521C07E0002046
:1011C00010BD10F8013B11F8014B1B1B07D110F8A3
:1011D000013B11F8014B1B1B01D1921EF1D11846A6
:1011E00010BD40EA0103024630B59B0710D14FF015
:1011F000013400E008C208C91D1B9D4315EAC41F45
:10120000F8D013F0FF0102F8011B0DD01B0AF8E71C
:1012100011F8013B002B02F8013B05D011F8013B0E
:10122000002B02F8013BF3D130BD10B5431C02E0A6
:1012300010F8011B71B18107FAD14FF0013202C8D9
:101240008C1A8C4314EAC211F9D0C01A0A0603D0D2
:10125000C01E10BDC01A10BD0A0401D0801E10BDF2
:101260000902FCD0401E10BDCBB22AB101788B42DE
:1012700003D0401C521EF9D10020704740EA010300
:1012800070B59B072ED14FF00136042A2AD308C827
:1012900010C99D1B9D43121F15EAC61517D0D8B261
:1012A000E1B2401A50EA056110D198B2A1B2401AD9
:1012B00050EA05410AD123F07F4024F07F41401AD3
:1012C00050EA052102D1180EA0EB146070BDA342B4
:1012D000DBD018BA21BA884201D9012070BD4FF085
:1012E000FF3070BD0AB9002070BD10F8013B11F845
:1012F000014B63B1A3420AD1521E08D010F8013B42
:1013000011F8014B1BB1A34201D1521EEDD1181BA4
:1013100070BD032A40F2308010F0030C00F01580FD
:1013200011F8013BBCF1020F624498BF11F801CBE8
:1013300000F8013B38BF11F8013BA2F1040298BF4D
:1013400000F801CB38BF00F8013B11F0030300F0B7
:101350002580083AC0F0088051F8043B083A51F85B
:1013600004CBA0E80810F5E7121D5CBF51F8043B60
:1013700040F8043BAFF30080D20724BF11F8013BD3
:1013800011F801CB48BF11F8012B24BF00F8013B35
:1013900000F801CB48BF00F8012B704710B5203A88
:1013A000C0F00B80B1E81850203AA0E81850B1E81E
:1013B0001850A0E81850BFF4F5AF5FEA027C24BFD4
:1013C000B1E81850A0E8185044BF18C918C0BDE8CB
:1013D00010405FEA827C24BF51F8043B40F8043B94
:1013E00008BF7047D20728BF31F8023B48BF11F849
:1013F000012B28BF20F8023B48BF00F8012B7047A3
:1014000002F0FF0343EA032242EA024200F0C4BFB3
:101410004FF0000200B5134694469646203922BF8D
:10142000A0E80C50A0E80C50B1F12001BFF4F7AFD8
:10143000090728BFA0E80C5048BF0CC05DF804EBBA
:10144000890028BF40F8042B08BF704748BF20F828
:10145000022B11F0804F18BF00F8012B70470000DD
:101460004FF0013C50F8042B51F8043B9A4221D133
:10147000A2EB0C03934313EACC1317D150F8042BBF
:1014800051F8043B9A4215D1A2EB0C03934313EAA3
:10149000CC130BD150F8042B51F8043B9A4209D1DC
:1014A000A2EB0C03934313EACC13DBD04FF0000004
:1014B000704700BFD01A01BAB1FA81F101F01801EA
:1014C00022FA01F0CB40C1F12001DBB2C0B2C01A58
:1014D0002CFA01F3D11A914311EAC311E6D17047F6
:1014E000704770477047A0E8004FF0C040F804DB39
:1014F00001B5AFF30080BDE8024001C10020A1ECBE
:10150000068BA1EC02BBA1EC06CBA1EC02FB704761
:1015100000F12C080C46B8EC068BB8EC02BBB8EC1A
:1015200006CBB8EC02FB00F12C0858F8040DAFF321
:10153000008058F8040D8546200008BF012038E9D6
:10154000F00018E9004F70470EB5CDE90001FFF734
:101550006CFE029069460120ABBE0EBD08B569461F
:1015600000900220ABBE08BD1FB58DE8070069469C
:101570000520ABBE04B010BD1FB58DE80F00694655
:101580000620ABBEF6E708B5694600900920ABBE61
:1015900008BD1CB5CDE9000169460A20ABBE1CBDE3
:1015A000704708B5694600900C20ABBE08BD0EB56B
:1015B0000090C8B26946CDE901020D20ABBE0EBD58
:1015C00001491820ABBEFEE7260002000048704724
:1015D000641D001070470000004870476C1D00102B
:1015E00000487047841D001070477047704770476F
:1015F00038B504460A4600206946AFF3008000284B
:1016000008BF38BD02460099204600F0ECFE0120DC
:1016100038BD012001F01DB9F8B5AFF300800546D3
:1016200000200C46102000BF0646A819A0420DD984
:10163000324669460020AFF30080070008BF01F082
:1016400008F90098A04218BF0546C419FFF7C4FF67
:1016500005600746F01D20F007004619284600F0F7
:10166000BBFEB44208BFF8BDA21B31463868BDE8D6
:10167000F84000F0B8BE70B50646FFF7ADFF05684C
:1016800006F10B0020F00704B4429CBF002070BD9F
:101690002B466A68BAB11068A04210D304F1080161
:1016A00088423CBF5068586007D3516810194160A8
:1016B0001168091B016058601460101D70BD13464D
:1016C0005268002AE7D121462846FFF791FF0028FB
:1016D000DED170BD30B5B0F10A024FEA900E71F163
:1016E00000034EEA817EB0EB0E0061EB91014FEA00
:1016F000101E4EEA017E10EB0E0041EB11114FEA75
:10170000102E4EEA016E10EB0E0041EB11214FEA54
:10171000104E4EEA014E10EB0E0041EB1141401805
:1017200041F100014FEAD00040EA41704FEAD10197
:1017300010EB80054FEA810444EA907444EB010405
:101740006D1944EB0404521BA3414FF0000348BF42
:101750000A3200D530BD401C41F1000130BD10B54A
:10176000FEF7A0FE006810BD10B50446FEF79AFE15
:10177000046010BD2DE9F0470D4699469246044697
:1017800000F124080168880604D5E06921F0100101
:10179000216000E00120A84201DD471B00E0002796
:1017A000A1697A1902EB0900081AA0612078C00625
:1017B00002D42046FEF7BCFF002608E0D4E9012150
:1017C0001AF806009047206A401C761C20624E459D
:1017D000F4DB2078C0060AD52046FEF7A9FF06E014
:1017E000D4E9012130209047206A401C2062381E35
:1017F000A7F10107F4DC07E0D4E9012118F805009E
:101800009047206A401C2062281EA5F10105F3DCE8
:101810002046FEF7A3FF2078000602D50220BDE88F
:10182000F0870120FBE770472DE9FF4F0C461E466D
:101830004FF0FF378BB0D2E90001DDF860800A90ED
:101840008A46C1F30A5505B93D46002108464FF0C6
:101850000000BAF1000F00F4400005DA00EB800050
:101860004FF4400101EA50004FEA9059B9F1010FDD
:1018700000DDB9460A9850EA4A000ED044F61050EE
:10188000A5F2FF3545432F14B8F1000F1ED0754265
:10189000291E1EDDC9F100021CE0B8F1010F4FF056
:1018A000000001D0302103E0F24305E02154401C48
:1018B000B042FBDB30460022002121540B99C1F8D5
:1018C0000880C1E900200FB0BDE8F08FBD1B6D1C82
:1018D000DEE74A4600DA694206A800F007FE06ABDA
:1018E00093E8070003AB83E8070050460A9901F02C
:1018F0009DFD8DE80700A0F500501F38009003986B
:10190000002D0ADD42F21F014A460844002303A9C4
:101910000390684602F048F809E0A0F500504A46F6
:101920001F38002303A90390684602F067F88DE88A
:1019300007000004000C03D04FF0FF30410800E026
:101940001046B8F1000F03D00022009215461EE0A9
:10195000751E05D4FFF7BEFE303262556D1EF9D5F7
:10196000B3460122084302D000227F1C04E0207805
:10197000302801D100227F1E002A099784D01DE063
:10198000112D07DAFFF7A6FE303262556D1C50EAC2
:101990000102F5D1084302D00098C8B10EE0002141
:1019A000681E05E0235C625C63542254401E491C9F
:1019B0008142F7DBAB46A81B401E0990002004F8CB
:1019C0000B000B98099AC0F80880C0E9002B7AE751
:1019D00011264FF0000857E72DE9F04F88460446DE
:1019E000D21D22F0070191B0D1E90001CDE90A0131
:1019F00008F00DFA02460B98C00F01D02D2007E029
:101A00002068810701D52B2002E0202101EAC000D7
:101A1000032A099001D0072A05DB034641462046E8
:101A200000F004FD0BE12078800601D5E06900E0BC
:101A30000620B8F1650F814606D0B8F1660F18D0C0
:101A4000B8F1670F70D131E00020B9F1110F0090AB
:101A500001DB112301E009F101030AAA01A90CA885
:101A6000FFF7E2FEDDE90C70002609F1010583466F
:101A700047E001204B4600904FF000470AAA01A919
:101A80000CA8FFF7D1FEDDE90DB00C995D460026EC
:101A900010B909F101000D18B9EB050003D4C0F12C
:101AA000FF3609F10105A5EB09002BE0B9F1010FA3
:101AB00001DA4FF001090020B9F1110F00904846FA
:101AC00001DD112300E003460AAA01A90CA8FFF7D3
:101AD000ABFEDDE90C704D460026834620780007FA
:101AE0000AD4AB4500DA5D4601A8012D04DD411999
:101AF00011F8011C302907D04F4502DA17F1040F05
:101B000004DA012082460FE06D1EEEE7002F02DCB2
:101B1000ED1B3E4403E0781CA84200DD7D1CB81B91
:101B200000F1010A4FF000472078000703D4AA45CE
:101B300001DB4FF0FF3A0021B7F1004F0DF14308F0
:101B40008DF8431024D002202B23002F01DA7F428E
:101B50002D230A21021EA0F1010000DC5FB197FBDA
:101B6000F1FC97FBF1F201FB1C7C17460CF1300CE9
:101B700008F801CDEEE7A8F10100037021880905FE
:101B800001D5452100E06521A0F1010800F8011C04
:101B900009980FA9A1EB0807FF1D00B10120411909
:101BA00001EBEA70A1693844081A401EA061207850
:101BB000C00602D42046FEF7BBFD099828B1D4E93F
:101BC00001219047206A401C20622078C00622D55F
:101BD0002046FEF7ADFD1EE0002E04DBB34502DD1E
:101BE00001A8805D00E03020D4E901219047206AFF
:101BF000401C2062761CAAF101005FEA000A0AD1AB
:101C0000FFF7EEFCC0680168405CD4E90121904711
:101C1000206A401C2062281EA5F10105DCDC07E0DB
:101C2000D4E9012118F8010B9047206A401C20627A
:101C3000381EA7F10107F3DC2046FEF78FFD0320D5
:101C400011B041E62DE9F04F04460D46D21D22F0B9
:101C5000070089B0D0E900974846394608F0D7F820
:101C60000246F80F01D02D2307E02068810701D537
:101C70002B2302E0202101EAC0038DF820300BB1B4
:101C8000012000E00020032A824601D0072A04DB5D
:101C90002946204600F0CAFB3FE12078800601D4A7
:101CA0000D2500E0E569C7F30A560D2D49DA00213C
:101CB0004FEA175B08464FF00000002F00F4400089
:101CC00007DA00EB80004FF4400100EBD07001EA2E
:101CD00060008115012901DD4FF0FF3100224FEA3C
:101CE000850CBCF1180F06D31346ACF118004FF069
:101CF0008052C24003E04FF4801323FA0CF30CF13E
:101D00000C0CBCF1200F04D3ACF1200C09FA0CF040
:101D100001E007FA0CF000294FF0004801DD18B986
:101D20000FE00ED140450CD319EB02095F4121B9F8
:101D3000404502D19F4329EA0209BBEB175F00D05F
:101D4000761C2088000502D57B48784402E07A485A
:101D50007844193808AA302302F80A30037C0AF1C3
:101D60000101002E0AF1020A53546A4602DC4FF0C8
:101D7000300101E04FF031014FF001088DF8001003
:101D800002D0A6F2FF3603E059EA470100D06B4EBD
:101D9000002D02DC2178090704D54FF002082E211E
:101DA0008DF80110C44600210BE0C7F303433F0147
:101DB000C35C491C6D1E02F80830052908F10108B2
:101DC00001DA002DF1DC00210CE000EB1973491C55
:101DD0001B786D1E082902F808304FEA091908F12E
:101DE000010801DA002DF0DC21688B0602D516E02F
:101DF000A8F10108E04505DD02EB080313F8013CFA
:101E0000302BF5D0B8F1000F09DD02EB080313F811
:101E1000013C2E2B03D1090701D4A8F10108002DA4
:101E200005DD3E2102F808106D1E08F10108407C16
:101E3000002E02F8080008F1010804DA2D2076428D
:101E400002F8080002E02B2002F808000A214FF4F3
:101E50007A70864208F101080BDB96FBF0F3303311
:101E600002F8083096FBF0F308F1010800FB136656
:101E700001E0642E0CDB642096FBF0F3303302F8B3
:101E8000083096FBF0F308F1010800FB136601E04F
:101E90000A2E06DB96FBF1F0303002F8080008F15C
:101EA000010896FBF1F001FB1060303002F80800E9
:101EB000A16908F1010808EB050202EB0A00081A03
:101EC000A0612078C00602D42046FEF731FC216ACA
:101ED00008AE01EB0A00206204E0D4E9012116F803
:101EE000010B9047BAF1010AF7D22078C00602D55B
:101EF0002046FEF71DFC6E4609E016F8010B3E2851
:101F00000FD0D4E901219047206A401C2062B8F12B
:101F10000108F2D22046FEF721FC09B00320BDE8FB
:101F2000F08F206A2844206203E0D4E901213020A8
:101F300090476D1EEBD3F8E7714F020002FCFFFFE4
:101F400001694A1C02610878704700B58FB0CDE97D
:101F500001310021059105497944CDE9031011466D
:101F60006846FEF7B5FD0FB000BD0000E5FFFFFFBE
:101F70000A6802F8010B0A607047D1E900239A420F
:101F800002D2531C0B601070704710B5436913B137
:101F9000AFF3008001E0FEF704FC012010BD1278D1
:101FA00000F124010A7000224A700122EDE7116855
:101FB0004FF0FF32E9E70000074B70B50D467B4458
:101FC000FFF7C3FF04462846FEF74AFE10B14FF064
:101FD000FF3070BD204670BDBFD4000010B543690E
:101FE00013B1AFF3008001E0FEF754FC012010BDF7
:101FF000128800F1240182840022C2840122EDE7CC
:1020000011684FF0FF32E9E70FB4002300B589B043
:102010000CA900910B99CB60214B7B440693214B7B
:102020007B44079304236FF00042CDE901321E4A3E
:102030007A446B4608920246002024F0D6F909B093
:102040005DF814FB70B506464FF0FF3015460C46A0
:10205000324686B00091CDE9010169460020049026
:1020600004A8FFF7D1FF02460498211825B108B152
:10207000084600E020462860049800280DD0002A79
:1020800002DD0098884208D03246081B6946009459
:10209000CDE9010404A8FFF7B7FF06B070BD00004A
:1020A0008F040000A7040000E7030000C16821F4CA
:1020B000001141F08001C160002181600160704722
:1020C0002DE9F047814614460E464FF0FF3832485E
:1020D000D5685769054209D03846A169FFF759FA12
:1020E000002811DB2C48C0430540E5602B463246F2
:1020F00049463846FFF738FAA16920F00042B21A83
:1021000011440028A16103D02046FFF7CFFF4046CD
:10211000BDE8F08770B504460569C06A6168884209
:1021200000D80846E16821F42011E160C90312D506
:10213000A84208D02246411B2846FFF7C1FF10B134
:102140004FF0FF3070BD0020E562C4E90150E06847
:1021500020F48030E060002070BD10B50446C068F7
:1021600020F02000E060A16AA06988420DD02046DE
:10217000FFF7D0FFE06820F4405040F01000E0602E
:10218000A06AA0612069E062606044F24001E068FA
:102190008843E06010BD00001000020010B5424806
:1021A0005421FFF735F941485421FFF731F94048F0
:1021B0005421FFF72DF93F493B483C4A3F4B08600B
:1021C0003D490A603A491960531C0365481C106573
:1021D000012008653B48344A39A17844FEF752FE95
:1021E00020B9384878440A3800F02CFB37482F4A89
:1021F00035A17844FEF746FE20B9344878440A38C1
:1022000000F020FB32482A4A2FA17844FEF73AFE1C
:1022100020B92F4878440A3800F014FB40232248A4
:10222000DC0000212246FEF709FE20B12548784453
:10223000543800F007FB1D48224640230021FEF7DA
:10224000FDFD20B121487844543800F0FBFA1848CD
:10225000224610230021FEF7F1FD002806D01C487D
:102260007844BDE81040563800F0ECBA10BD104874
:1022700070B5006D20F001040B48FEF779FE0B48A5
:10228000FEF776FE0A48FEF773FE09E0206D20F0A7
:1022900001052046FEF76CFE2046FEF707F92C46A6
:1022A000002CF3D170BD00008C1C0010745D022066
:1022B000E01C0010900100100001002094010010AB
:1022C00072000000C24A020077000000AE4A02001D
:1022D0009A4A020010B50446FFF782F9D0E90212CB
:1022E0001068104444F8100B5068104444F80C0C6B
:1022F0009068104444F8080C8868084444F8040CBA
:10230000C868084420600869084460604869084457
:10231000A06088690844E060C86908442061086AD0
:102320000844606108782076487860768878A076DE
:10233000C878E07608792077487960778879A0773F
:10234000C879E07710BD70B516460C460546FEF715
:10235000A1F8036893F80101012806D0FF2C0FD8DB
:10236000185D68B101202C7070BDD3F807013246AA
:10237000214603F2071303442846BDE8704018477E
:102380004FF0FF3070BD10B500F044FABDE81040CA
:1023900000F03BBA4FF000020429C0F0128010F0A8
:1023A000030C3FF437A8CCF1040CBCF1020F18BFAA
:1023B00000F8012BA8BF20F8022BA1EB0C01FFF7BE
:1023C00029B85FEAC17C24BF00F8012B00F8012B7B
:1023D00048BF00F8012B704700210160C0E90110DF
:1023E000704710207047034640688C46002818BF8D
:1023F00088423CBF03464068F8D3186818448842B6
:1024000007D00CF1030020F00700001D411A521AFA
:102410000146081D0A60FEF749B810B50446FEF7EC
:1024200039F80068005D00F0010010BD2DE9F041B1
:102430001F46044603260168072A01F4006004DBF6
:1024400008B116A505E016A503E008B115A500E042
:1024500015A521F010002060A069C01EA0610FB179
:10246000401EA0612046FEF763F94FB1D4E9012177
:1024700038469047206A401C2062C01C206206E05B
:10248000206AFAE7D4E9012115F8010B9047761E7E
:10249000F8D22046FEF762F9BDE8F0814E414E00C9
:1024A0006E616E00494E4600696E6600426842B138
:1024B000016811F8013B23B1521EC0E90012184611
:1024C00070470121C160881E704742685AB1C368D5
:1024D000016843B983688B4205D0491E521CC0E98C
:1024E0000012002070474FF0FF3070472DE9F04791
:1024F000814616468AB0354878440DC88DE80D00EF
:1025000032487844801C03AC0DC884E80D0041F6C5
:102510009B300844372190FBF1F290FBF1F5A5F1D7
:10252000800501FB12041B3C02D56442012000E03F
:102530000020DFF898A080460027FA44AAF1BE0ADE
:102540000EE0E0070AD03246684607EB4701012358
:102550000AEB810101F052FA8DE8070064107F1C3C
:10256000002CEED1194F7F44AE3F19E0E80715D09B
:1025700007EB04100DF1180A90E80E008AE80E002F
:10258000C068F04201D1981908903246012306A98B
:1025900003A801F033FA03AB83E807006D10641C55
:1025A000002DE3D14FF0010332466946B8F1000F28
:1025B00003A802D001F0F8F901E001F01FFAC9E91F
:1025C0000001C9F808200AB0BDE8F08760480200A1
:1025D00070B50D4601461446D36850692A46FEF789
:1025E000CBFF002807DA411C07D0E16820F000404B
:1025F00041F48041E160281A70BD2046FFF756FD86
:102600004FF0FF3070BDC1680022026021F480519C
:1026100041F0400111F4C06FC16001D08260704789
:1026200002694168891AC269891A816070472DE977
:10263000F0470446C06840F48000E060010312D512
:1026400020F40020E060810606D4E26A61688A42D4
:1026500000D80A46511A216040F40010E06094F856
:102660002500BDE8F08720F40010E060800602D568
:102670002046FFF772FDE06842F281014FF0FF391A
:102680000140012903D02046FFF710FDB6E0216884
:10269000002600290ADAC94340F480502160C4E9C9
:1026A00002606068411C61600078DAE744F2400132
:1026B00008420CD020F4A04040F040002660E060CA
:1026C00021696068401AE169401AA06096E02169BA
:1026D00091B9C00310D4E069FEF7CDFF2061B0B11D
:1026E000E06840F4006010F4407FE06002D140F404
:1026F0008070E06020696060E068D4F814A0C106D2
:102700001AD5C0030ED52046FFF704FD14E004F1EE
:10271000240020610120E061E06820F4407040F472
:102720008060E6E721696068401AA169014450466B
:10273000FEF72FFF0028A6DBE068C0032AD56168FA
:10274000E06A884200D808462169451AE069471BBB
:102750001BD02046D4F81880FFF7DCFC08EB0501FD
:102760005046C4F81880FEF714FF00288BDBE068A1
:1027700040F40030E060000202D5A0692844A06166
:10278000E1692069C91B45180DE02046FFF7C2FC2E
:10279000E769F5E725696168D4E90607491BE56241
:1027A00008446560A061E06820F0100010F4C06F7C
:1027B000E06002D0204600F081FBE06840F48050E9
:1027C000C4E90260000205D52069E06260606FF034
:1027D000010046E7224639462846FFF7F9FE411C2C
:1027E0000CD02918E16258B1401E2060681C60605E
:1027F000E06840F40030E060287832E7484630E78F
:1028000065602046FFF7FFFEF8E7002801D0FEF7DD
:10281000D7BE704710B5002102A000F06BFB01206D
:1028200010BD0000534947414252543A2041626E64
:102830006F726D616C207465726D696E6174696F21
:102840006E00000010B500F06FFBBDE81040FFF710
:10285000DCBF10B500F082FBBDE81040FFF7D5BF2C
:102860007546FEF7B3FEAE4605006946534620F0B6
:102870000700854618B020B5FDF7E0FDBDE8204013
:102880004FF000064FF000074FF000084FF0000B2C
:1028900021F00701AC46ACE8C009ACE8C009ACE8DF
:1028A000C009ACE8C0098D46704700002DE9FF4F14
:1028B00006468BB00878FF2806D0491C2D2805D085
:1028C00000244FF0000908E000200CE00124F8E7A4
:1028D00009EB8903491C00EB43090878FF28F7D16D
:1028E00014B1C9F100008146107800252C46AA4693
:1028F00029462D2801D02B2804D1521C2D2813D075
:10290000002082468B461078FF280FD04FF0000C35
:102910000A21521CA5FB017804FB018105FB0C1167
:10292000C5194BEB0104EEE70120EAE70021084658
:102930004FF00000BAF1000F02D000EB8000400819
:10294000C0F38157012F01DD4FF0FF370E9955EA93
:10295000040009EB01080BD04FF0020918F5FA7FCB
:1029600016DA4FEACA70002F706008DD012007E018
:102970004FEACA70C6E900B00FB0BDE8F08F002082
:102980003060FDF78FFDC0F800901821084616E072
:10299000B8F5FA7F18DD002F02DAF748784401E035
:1029A000F6487844D0E90010C6E9001040EACA7041
:1029B0007060FDF777FDC0F80090142108460FB055
:1029C000BDE8F04F23F049BC002108464FF000005D
:1029D000B8F10001099002DAC7F1000200E03A46BE
:1029E00001DAC8F1000106A8FFF780FD06AB93E805
:1029F000070003AB83E8070044F23E005BEA0401F2
:102A00000090584604D144F21E012C465D460091C8
:102A1000210C0904014306D10099240444EA154419
:102A20002D041039009104F07F41014306D1009933
:102A3000240244EA15642D020839009104F0704123
:102A4000014306D10099240144EA15742D01091FA0
:102A5000009104F04041014306D10099A40044EAEA
:102A60009574AD00891E009104F00041084304D123
:102A700000986D196441401E00904FF001033A46E2
:102A80006846B8F1000FCDE9014503A902DD00F069
:102A9000CAFF01E000F09DFFBAF1000F04460D46A9
:102AA00001D084F00044002108464FF0000009994D
:102AB00040F2FF77484010F00C0F07D124F000409F
:102AC000284303D0C4F30A50B84212D1FDF7EAFC00
:102AD000C0F80090C4F30A50B8420AD1A84878441C
:102AE000D0E90010C6E9001004F00041084370600E
:102AF00042E7C6E900543FE72DE9FF4F1F464FF07C
:102B0000000A4FF0FF38454691B0D7E90146CDF8AD
:102B10003CA0FEF765FDC0680168405C1090B96993
:102B200012986D1C8847396A814688470028F6D17B
:102B3000B9F1FF3F0AD0002E24F4D06411DDB9F1C1
:102B40002B0F08D0B9F12D0F0BD102E0404615B084
:102B500013E744F48064B96912986D1C8847761EA7
:102B60008146600504A901D52D2000E02B20002E10
:102B700001F1010B0DF130088DF810003FDDB9F1C6
:102B8000690F08D0B9F1490F05D0B9F16E0F02D025
:102B9000B9F14E0F1CD13B4601A8009580E85002C8
:102BA000DDE912126FF0020023F023FCC11CCED12C
:102BB0000EE0B96912986D1C884781461398761EFD
:102BC00044F4007405600F98401C002E0F9016DD31
:102BD000B9F1300FEDD0B9F1780F02D0B9F1580F3B
:102BE0000DD10F9801280AD13B46CDE90054DDE90B
:102BF0001212001F029623F0FAFBC11CA7D11099F4
:102C000089453ED144F0800406E01399681CAAF17E
:102C1000010A44F400740860B9696D1C1298761EAC
:102C2000884730288146F0D02BE01099894505D19E
:102C3000200603D4761E44F0800418E0484608F0CD
:102C40007AFA08B3761E0DF123018B4544F4007423
:102C500008D2A9F130000BF8010B200607D5AAF124
:102C6000010003E0200602D40AF101008246A0051B
:102C700002D51399681C0860B96912986D1C8847C1
:102C80008146002ED1DC53E0002E51DDB9F1650FF5
:102C900002D0B9F1450F4BD1A00549D5B9696D1CDA
:102CA0001298761E24F440748847002E81460CDD6D
:102CB0002B2804D0B9F12D0F07D144F48074B969E1
:102CC00012986D1C8847761E8146E00501D52D219E
:102CD00000E02B2108F8011BCDF8008021E0761ED2
:102CE0000DF13901884544F400740CD2A9F130008B
:102CF00010F0FF0088F8000002D10099884509D93A
:102D000008F1010806E0E00501D51E4801E042F2A5
:102D10000F708246B96912986D1C884781461398D6
:102D20000560002E04DD484608F005FA0028D6D1DB
:102D3000F96912988847FF2053468BF8000088F8FD
:102D4000000000200A900B9004AA0CA90AA8FFF723
:102D5000ADFDA00502D46FF00100F8E614F0240FD9
:102D600012D0E0071CD13868DDE90A12031D3B6070
:102D70000068C0E9001213E0384A02002A4A020043
:102D8000EE480200F1D8FFFF0AA9684608F0C0F932
:102D9000E00705D13868009A011D396000680260BB
:102DA0002846D4E62DE9FF5F1C468B460646080000
:102DB00066D000250299284627680BFB01F963E0DD
:102DC000002F63DCE06948453FDABAF1000F3CD0E0
:102DD000207B800601D5A06A04E0A16960680844F0
:102DE0002169401A2246A9EB050180463046FFF7CB
:102DF000EFFB002812DD8044A8F101010644A16127
:102E0000226916F8011C0027054411702169491C2C
:102E1000E1626160E16841F40031E160411C03D08E
:102E200010B1207B400644D52046FFF7ECFBC4F8E8
:102E3000188020696060E062E068276020F400305C
:102E4000E060E0694042A06018E0484503DAE068CD
:102E500040F40000E0602046FFF7E9FBE16821F460
:102E60000001E160411C08D0811C0CD027680028BB
:102E700009DB6D1C06F8010B1BE02760B5FBFBF0BE
:102E800004B0BDE8F09F0120824612E0A9EB0500E6
:102E9000B846B84200DA8046304642466168FEF7DE
:102EA00038FA6168A7EB0807464401EB080045447F
:102EB00060604D4584DB27600298E1E770B5054608
:102EC00040F202260A4C0FE094F85000C00708D0E8
:102ED000AC4206D0E06836EA000002D12046FDF799
:102EE000C3FE206D20F00104002CEDD170BD000068
:102EF0008C1C001070B505460C460A2000E06D1CC5
:102F000000F054F835B128780028F8D102E0641CAC
:102F100000F04CF814B120780028F8D1BDE87040DA
:102F20000A2000F043B8000010B5014602A0FFF7E8
:102F3000E1FF012010BD000053494752545245445F
:102F40003A2052656469726563743A2063616E2742
:102F500074206F70656E3A200000000010B50128E3
:102F600005D0002103A0FFF7C5FF012010BD09A176
:102F7000F8E7000053494752544D454D3A204F75EC
:102F800074206F662068656170206D656D6F727961
:102F9000000000003A2048656170206D656D6F7219
:102FA0007920636F727275707465640008B5694644
:102FB0008DF800000320ABBE08BD00002DE9FF4FD7
:102FC0001F464FF03C0987B04FF00042DDE9141076
:102FD00001F10108DDF858A002EA405003900020FA
:102FE00005908346054604460490B969461E089834
:102FF0008847AAF1010A0290BAF1000F3BDD02985E
:103000002E2815D0102100F003FA00282EDB4FF0F7
:10301000010B0599014317D0B9F1000F0BDB4A46AC
:10302000C117FDF7E1FA05430C43A9F1040905E0D6
:10303000012004900BE008B145F001050120059046
:10304000049820B9361D02E0049800B1361FB96912
:10305000089808F101088847BBF1000FAAF1010A9E
:103060000290C9D00999C1F80080C5E7029870287C
:1030700008D0502806D0F96908988847BBF1000F9E
:1030800014D04FE0002002900120BBF1000F04900B
:1030900009D0B969089808F101088847AAF101091F
:1030A000B9F1000F07DCF969089888476FF0010053
:1030B0000BB0BDE8F08F2B2804D02D280CD14FF099
:1030C000FF300490B969089808F101088847A9F110
:1030D0000109B9F1000FE6DD411CE4D00A2100F03E
:1030E00097F90028DFDB029908F1010801EB810163
:1030F00000EB41000290B969089888470A2100F066
:1031000087F9099AA9F10109B9F1000FC2F8008005
:1031100001DD0028E7DAF9690898884704990298E0
:1031200000FB016655EA040004D004F040410900A8
:1031300002D006E0039898E0A40044EA9574AD003C
:10314000B61E04F00041080002D16D196441761EDC
:10315000159810F0240F03D04FF00B095C4803E0E2
:103160004FF028096FF07D008246564507DAAAEB3A
:1031700006018944B9F1410F01DD4FF041090120F9
:103180000021A9F10102FDF72FFA024628400B4663
:103190002140084301D0012100E00021501E02918E
:1031A00043F1FF3128402140084301D0012000E0D5
:1031B00000200299834651EA0B014FD000210846B6
:1031C0004FF00000039900F4400039B100EB80009B
:1031D0004FF4400100EBD07001EA60008015012837
:1031E00002DD4FF0FF3000E013D0401C36D00298D3
:1031F00060B3BBF1000F0CD14A4601200021FDF75E
:10320000F3F928402140084301D0012000E00020CC
:10321000E0B101204A460021FDF7E6F903464019D6
:103220000A4661412D1A8C4111D3B9F1400F09DDD5
:10323000159810F0240F02D0AAF1340603E0AAF189
:10324000170600E0761C00254FF0004406E05B1EE8
:1032500042F1FF3220EA030521EA0204CAF101002B
:10326000B04206DA1B490398084301900020009001
:103270000EE0039AC4F3D321E80A0A43164940EA50
:1032800044500A433146CDE90002684607F049FF41
:10329000159810F0240F0BD01598C00715D1386879
:1032A000DDE90012031D3B600068C0E900120CE07C
:1032B00002A8694607F02CFF1598C00705D13868A9
:1032C000029A011D3960006802604046F0E6000085
:1032D00002FCFFFF0000F07F0000F03F2DE9FF4FF0
:1032E00092461D4685B04FF00041DDE9124BDDE905
:1032F00014727F1E01EA4B50414940F0FF4940EAF9
:103300000108002122F020004928049102D04E2813
:1033100028D04CE03BA0012607C88DE80700A9692A
:103320000698641C88477F1E014606D41DF80600D7
:1033300018B121F0200181420BD0E9690698884735
:10334000032E34D0082E32D06FF0010009B0BDE852
:10335000F08F761C032E01D0082EE0D1601CCAF835
:103360000000DCE7A9690698641C88477F1E2AD400
:1033700020F02000412826D1A9690698641C8847BE
:103380007F1E20D420F020004E281CD1A969069869
:10339000641C88477F1E48F4002849F48009CAF855
:1033A000004001D4282806D0E969069888475FEADA
:1033B000CB7012D022E0A9690698641C88477F1E52
:1033C00001D4002803DAE96906988847BCE7292870
:1033D000F1D1641CCAF80040E9E71BF0240F07D0C4
:1033E00028680499031D2B600068C0E9001805E0F7
:1033F0002868021D2A600068C0F800902046A5E7F2
:103400000000F07F494E46494E49545900000000E3
:103410003A2800D2303820F02002412A01D3A2F10C
:103420003700884201D34FF0FF3070475FEA400C0D
:1034300008BF91F0000F4FEA8C234FEAC12243EA04
:1034400051514FEA1C5018BF00F5F0404FEA3000D0
:1034500018BF41F000415FEA6C5C00F02980BCF1CC
:10346000FF3F08BF40F080407047130C06BF1204B6
:103470004FF0100C4FF0000C130E04BF12020CF1B1
:10348000080C130F04BF12010CF1040C930F04BFBE
:1034900092000CF1020CD30F04BF52000CF1010C8E
:1034A00011464FF00002A0F11F00A0EB0C00704786
:1034B00011F0004F08BF704731F000413FF4D5AF25
:1034C0000B0C06BF09044FF0100C4FF0000C0B0E54
:1034D00004BF09020CF1080C0B0F04BF09010CF129
:1034E000040C8B0F04BF89000CF1020CCB0F04BF3E
:1034F00049000CF1010CCCF12003A0EB0C0022FAE6
:1035000003F302FA0CF241EA030100F101007047F3
:1035100020F07F4C80EA030023F07F47ACEB0703E9
:1035200003F57C5300F0004003F1FF032DE98049CF
:103530004FEA154B09B44FEA144325EA0B4E24EA2F
:1035400003480FF2042606EB132749083E785FEA8A
:10355000320203FB0667C7F5000707FB06F64FEAD2
:1035600054374FEAD64606F1020607FB066CCCF14B
:10357000005C4FEA1C472CEA074C07FB06F40CFBE7
:1035800006F504EB15464FEA961634BF00204FF0BF
:1035900000404FEAD13706FB07FC4FEA1C4C0CFBFE
:1035A0000BF7D21B03FB0CF761EB07010CFB0EF7CB
:1035B000B0EB074072EB17420CFB08F734BFA2EBED
:1035C0000742B2EB074261EB17414FEA0C444FEA66
:1035D000910706FB07FC4FEA1C4C0CFB0BF7B0EB0A
:1035E000C74072EB573203FB0CF734BFA2EBC74264
:1035F000B2EBC74261EB57310CFB0EF7B0EBC700E3
:1036000072EB57720CFB08F734BFA2EBC702B2EBA8
:10361000C70261EB5771039F4FEA816141EA921142
:1036200004EBCC044FEAD1374FEA826206FB07FC79
:1036300042EA90124FEA80604FEA1C4C0CFB0BF7F9
:10364000D21B03FB0CF761EB07010CFB0EF7B0EB91
:10365000074072EB17420CFB08F734BFA2EB07429E
:10366000B2EB074261EB17414FEA8C554FEA9107E5
:1036700004EB9C2406FB07FC4FEA1C4C0CFB0BF7ED
:10368000B0EBC74072EB573203FB0CF734BFA2EB31
:10369000C742B2EBC74261EB57310CFB0EF7B0EB00
:1036A000C70072EB57720CFB08F734BFA2EBC702DE
:1036B000B2EBC70261EB577115EB4C254FEA816104
:1036C00041EA92114FEA82624FEAD13742EA901200
:1036D00006FB07FC44F100044FEA80604FEA1C4CF3
:1036E0000CFB0BF7D21B03FB0CF761EB07010CFB88
:1036F0000EF7B0EB074072EB17420CFB08F734BF34
:10370000A2EB0742B2EB074261EB174115EB1C1528
:103710004FEA813141EA92414FEA823242EA9042D5
:103720004FEA80304FEA0C7644F1000448EA034344
:103730004EEA0B484FF0000EB2EB080C71EB03079A
:1037400024BF624639464EEB0E0E4FF0000B0018B8
:10375000524149414BEB0B0BB2EB080C71EB0307E9
:103760007BF1000B24BF624639464EEB0E0E4FF044
:10377000000B0018524149414BEB0B0BB2EB080C0C
:1037800071EB03077BF1000B24BF624639464EEB19
:103790000E0E51EA020718BF46F0010616EB0E7630
:1037A00055F1000254F1000103D5BDE88901BDE8DF
:1037B0000088BDE88901BDE80048B619524141EBD7
:1037C0000101A3F10103704780807F7E7D7C7B7ABD
:1037D0007978777676757473727171706F6E6E6DBD
:1037E0006C6C6B6A6A696868676666656464636363
:1037F00062616160605F5F5E5E5D5D5C5C5B5B5AE9
:103800005A59595858575756565555555454535355
:1038100052525251515050504F4F4F4E4E4D4D4DB0
:103820004C4C4C4B4B4B4A4A4A49494948484847FB
:103830004747474646464545454444444443434339
:10384000434242424241414146EA0646A3F5705393
:103850004FEA164646EA42564FEAD22242EA41521F
:1038600010B54FEAD121A3F1010300F02FF820F0A9
:10387000004000F1020C00F0004701EB005011463F
:10388000BCF5006F40EA070000D210BDBAF1000F8E
:103890000AD01CB503B44FF004004FF004014FF000
:1038A00000000FBCBDE810404FF00001BBF1010F5C
:1038B000B9BF04484FF0FF310348002140EA070038
:1038C00010BD00BFFFFFEF7F0000F07F002B9C4684
:1038D00030D477002BD01CB54FEA370703B44FF034
:1038E00010004FF01001BAF1000F06D0BCF1000F2C
:1038F000DCBF40F0080040F008014FF000000FBCB2
:10390000BDE810400BF1010BBBF1010F08BF5FEAEE
:10391000170722BF12F1010211F101014FF000411E
:1039200043F1000300F0004043EA00007047F9D380
:103930005708D0E746EA064613F1400F4FEA16460D
:103940001FDD13F1200FDFBF16430A46002120338D
:103950005B42BED0C3F1200746EA064602FA07F7EB
:103960004FEA164646EA0706C3F1200722FA03F299
:1039700001FA07F721FA03F14FF0000342EA0702C8
:10398000A7E746EA020646EA06464FEA164646EA30
:103990000106BCBF46EA0646360C4FF000034FF066
:1039A00000024FF0000194E72DE9804C9A469346BF
:1039B00070B491E8380007C831EA400C48BF34EAD7
:1039C000430C03D5FFF7A4FDFFF780FFF0BCBDE873
:1039D000008C2DE9804C9A46934670B491E83800EB
:1039E00007C831EA400C48BF34EA430C03D5FFF75F
:1039F0008FFDFFF729FFF0BCBDE8008C2DE9804C5E
:103A00009A46934670B491E8380007C810F0804F8A
:103A100008BF13F0804F03D100F01AF8FFF756FFEC
:103A2000F0BCBDE8008C2DE9804C9A46934670B4FA
:103A300091E8380007C810F0804F08BF13F0804F9E
:103A400003D100F005F8FFF7FFFEF0BCBDE8008CE5
:103A500020F07F4780EA030023F07F4C07EB0C0344
:103A6000A3F57C5300F00040A3F1FE0392F0000F99
:103A700000F0B38095F0000F00F077802DE9014948
:103A80004FEA11404FEA144621EA004800FB06FCC9
:103A900024EA064708FB06F607FB08F800FB07F7D1
:103AA00018EB06484CEB164C4FEA124B18EB074844
:103AB0004FEA15464CEB174022EA0B4E0BFB06FC77
:103AC00025EA06470EFB06F607FB0EFE0BFB07F783
:103AD0001EEB064E4CEB164C4FF000061EEB074E4D
:103AE0004CEB174B18EB0B0840F1000018EB0E0BDA
:103AF00058EB000840F100008F1A4FF000013CBF66
:103B0000C943661B14BFB5EB040C00213CBFC9437D
:103B1000F61B4FEA17444EEA8E0E27EA04454FEA99
:103B20001C4704FB07622CEA074C05FB07F70CFB5C
:103B300005F604FB0CFC16EB074642EB174216EBAE
:103B40000C4642EB1C421BEB060658EB02024141BD
:103B500046EA9E0601D5BDE80189B619524141EBFE
:103B60000101A3F10103BDE801894FEA14454FEAC1
:103B7000114724EA054621EA074C05FB07F406FB3A
:103B800007F70CFB06F105FB0CFC11EB074144EBBE
:103B900017444FEA124711EB0C4144EB1C4422EA54
:103BA000074C05FB07F206FB07F70CFB06F605FBC7
:103BB0000CFC16EB074642EB174216EB0C4642EBA9
:103BC0001C456A1854F1000148BF7047B6195241AC
:103BD00041EB0101A3F10103704795F0000F37D0CD
:103BE0004FEA11424FEA144721EA024624EA074C01
:103BF00002FB07F106FB07F70CFB06F402FB0CFCCB
:103C000014EB074441EB17414FEA154714EB0C4402
:103C100041EB1C4125EA074C02FB07F506FB07F7C1
:103C20000CFB06F602FB0CFC16EB074645EB1745B2
:103C300016EB0C4645EB1C42121951F1000148BF2E
:103C40007047B619524141EB0101A3F101037047DE
:103C50004FEA14454FEA114724EA054621EA074C8A
:103C600005FB07F106FB07F70CFB06F24FF0000619
:103C700005FB0CFC12EB074241EB174112EB0C4227
:103C800051EB1C4148BF7047921841EB0101A3F171
:103C90000103704755494A6822F440324A604A6835
:103CA00043681A434A600268526822F480720368CB
:103CB0005A6002685368026943EA022203685A6044
:103CC0000268526822F0407203685A6002685268C3
:103CD00083681A4303685A600268926822F400629B
:103CE00003689A6002689268C3681A4303689A601E
:103CF0003F4B826A9A4218D00268926822F0706242
:103D000003689A6002689268836A1A4303689A603B
:103D10000268926822F0405203689A6002689268D2
:103D2000C36A1A4303689A600BE00268926822F043
:103D3000706203689A600268926822F040520368D9
:103D40009A600268926822F0020203689A60026830
:103D50009368027E43EA420203689A602022125C62
:103D6000A2B10268526842F4006203685A600268B5
:103D7000526822F4604203685A6002685368426ADB
:103D8000521E43EA423203685A6005E002685268F4
:103D900022F4006203685A600268D26A22F4700258
:103DA0000368DA620268D36A828B521E43EA0252C7
:103DB0000368DA620268926822F4007203689A600B
:103DC0000268936890F8302043EA422203689A60C0
:103DD0000268926822F4806203689A6002689368BD
:103DE000426943EA822203689A60704700230140D7
:103DF0000100000FF8B505460E4600272C4600BF0F
:103E0000082E00D015E020787E2800D011E0A078A0
:103E10008DF80000E0788DF80100A088ADF8020070
:103E200000231A4669460448006819F073FE01270A
:103E300000BF00BF3846F8BD24000020F0B5C3B075
:103E400005460E4614461F467C208DF800001E488D
:103E500000788DF801001C480078401C1A49087051
:103E600020F042FF02908DF803608DF8025001941B
:103E700041F288311548006819F08EFE08BB1448DD
:103E8000006814490968084400990160019941607B
:103E9000029981600F4800680C300E4908600C4997
:103EA00009680C4A1268881822463946FDF731FA2B
:103EB000084800682044074908600448006819F071
:103EC000F5FE43B0F0BD00001000002028000020E7
:103ED000080000200C00002000BFFEE70346042B72
:103EE00015D007DC7BB1012B0ED0022B0DD0032B9C
:103EF00012D10BE0202B0BD0212B0AD0222B09D082
:103F0000232B09D107E008E007E006E005E004E024
:103F100003E002E001E000E000BF00BF00207047C6
:103F20000020704710B500220449054803F0D3FC77
:103F30000449034803F0C0FC002010BDB40C00107D
:103F400098010010B404001070B506460C461546E2
:103F5000012D02D0032D0ED108E031460C48226815
:103F6000FDF7D7F901200B49087005E030462168BC
:103F7000FFF740FF00E000BF00BF3146064803F0F6
:103F80009BFC2946044803F067FC002070BD00003C
:103F900004010020000000209801001010B5034625
:103FA0000C460021084610BD2DE9F04104460D469F
:103FB000164600270A48D0F8BC82D8F8140210B17F
:103FC0000120BDE8F0812A462146054803F083FC24
:103FD0003146034803F031FD07463846F1E700005B
:103FE0009801001010B5024800F066FA10BD0000FC
:103FF000B40F02200146087810381823B0FBF3F202
:104000000848805CC865032A05D908686FF3090071
:10401000001D886503E008686FF309008865886DF6
:104020007047000020650208014600208A6A8B69FB
:10403000CBB932B1012A0DD0022A03D0032A10D104
:104040000EE000BFCB6A03F08073B3F1807F00D134
:10405000012007E0CB6AB3F1C07F00D1012001E06D
:1040600000E000BF34E08B69B3F5005F1AD132B1D4
:10407000012A07D0022A03D0032A11D10AE000BF87
:1040800001200EE0CB6A03F08073B3F1807F00D192
:10409000012006E0CB6AB3F1C07F00D1012000E02F
:1040A00000BF15E032B1012A05D0022A04D0032A4C
:1040B0000CD103E000BF00BF012008E0CB6A03F091
:1040C0008073B3F1807F00D1012000E000BF00BF0A
:1040D0007047704772B600BFFEE700002DE9F0435D
:1040E00087B00446256902AF28461FF05BF9804679
:1040F000C7F8008098F8040040F0400038720222AF
:1041000002A9204612F03CFF0646307A00F00F006C
:10411000002846D094F8079015F8527F287840F090
:10412000020028700020E071E06800F11002E260F7
:104130003146D1E90023C0E900230A7A0272E0681F
:1041400000F11002E26002A9D1E90023C0E90023D6
:104150000A7A02726069408C40F08000616948848C
:1041600000200090E0682038E169431A00220E49DF
:1041700020460FF01BF880466069408C20F08000DC
:104180006169488484F8079005F85279B8F1000F06
:1041900006D006A120460FF04FFBE0681038E06023
:1041A00000BF07B0BDE8F0834FDD00085F5F6763C5
:1041B0000000000010B52C4454B1082205492046E7
:1041C00002F0D8F8042203491031304602F0D2F848
:1041D00010BD0000F600001038B502460020009027
:1041E00000BF92F83C00012801D1022038BD012017
:1041F00082F83C0000BF0868092816D91068C0681A
:104200000C780A3C04EB44050724AC40A043146836
:10421000E0600C780A3C04EB44048868A040146811
:10422000E46820431468E06013E0106800690C78CB
:1042300004EB44050724AC40A043146820610C78CB
:1042400004EB44048868A04014682469204314687F
:1042500020614868072817D21068406B0C79641EEB
:1042600004EB84051F24AC40A043146860630888F5
:1042700080B20C79641E04EB8404A0401468646B63
:1042800020431468606331E048680D2817D2106835
:10429000006B0C79E41F04EB84051F24AC40A043A1
:1042A00014682063088880B20C79E41F04EB84044E
:1042B000A0401468246B20431468206316E0106843
:1042C000C06A0C790D3C04EB84051F24AC40A0436C
:1042D0001468E062088880B20C790D3C04EB840419
:1042E000A0401468E46A20431468E0621E4B1F4C2F
:1042F0001068A0420AD10868122807D1586820F433
:1043000000005860586840F480005860174C1068EE
:10431000A04222D1164C0868A04202D00868112899
:104320001BD1586820F480005860586840F40000A1
:1043300058600F4C0868A0420FD10E4800680E4C20
:10434000B0FBF4F000EB80004000009002E0009829
:10435000401E009000980028F9D100BF002082F88C
:104360003C0000BF00BF41E70023014000200140A6
:10437000120000102401001040420F0070B50446E6
:1043800000250CB9012070BD1549A06A884200D0F3
:1043900000BF206C30B9204600F024F80020606493
:1043A00084F83C00206C00F0100088B9206C20F4E8
:1043B000885040F0020020642046FFF76BFC00208C
:1043C0006064206C20F0020040F00100206400E0F6
:1043D000012500BF002084F83C0000BF2846D2E73A
:1043E0000100000F10B586B00446142101A8FDF7A6
:1043F0000FF82C492068884251D100BF002000905E
:104400002948006840F48060274908600846006831
:1044100000F48060009000BF00BF00BF002000904B
:1044200021481438006840F020001F491439086002
:104430000846006800F02000009000BF00BF4FF465
:10444000FF600190032002900020039001A917480B
:1044500000F0DCF916481749086080054860002123
:1044600014488160C1604FF480610161490041617D
:10447000890081614911C1614902016204214162DF
:10448000012181620021C162016300F035F908B1A8
:10449000FFF720FE00BF0748A063846300BF06B09B
:1044A00010BD0000002201404438024000140240C8
:1044B00010640240B40F0220F8B5044600200090BA
:1044C0008C4800684FF41651B0FBF1F7A56D2E68CB
:1044D00094F85C1008208840304098B1206800684B
:1044E00000F0040070B12068006820F0040021682A
:1044F000086094F85C1008208840A860606D40F067
:104500000100606594F85C1001208840304068B17B
:104510002068406900F0800040B194F85C100120F0
:104520008840A860606D40F00200606594F85C10FF
:1045300004208840304068B12068006800F0020024
:1045400040B194F85C1004208840A860606D40F091
:104550000400606594F85C1010208840304078B307
:104560002068006800F0080050B394F85C10102038
:104570008840A8602068006800F4802080B120682E
:10458000006800F4002028B9206CC8B12046216CD6
:10459000884715E0A06C98B12046A16C88470FE0D1
:1045A0002068006800F4807028B92068006820F056
:1045B000080021680860206C10B12046216C8847F3
:1045C00094F85C10202088403040002865D0206896
:1045D000006800F0100000285FD094F85C102020E4
:1045E0008840A86094F83500052828D12068006824
:1045F00020F01600216808602068406920F08000E3
:1046000021684861206C08B9A06C28B12068006856
:1046100020F008002168086094F85C103F20884072
:10462000A860012084F8350000BF002084F8340021
:1046300000BF206D10B12046216D8847F8BD20686D
:10464000006800F4802080B12068006800F4002039
:1046500028B9606C10B12046616C88471DE0E06BA2
:10466000D8B12046E16B884717E02068006800F465
:10467000807068B92068006820F010002168086028
:10468000012084F8350000BF002084F8340000BF0A
:10469000E06B10B12046E16B8847606D38B3606D08
:1046A00000F00100F0B1052084F8350020680068B2
:1046B00020F001002168086000BF0098401C0090B5
:1046C000B84200D905E02068006800F00100002829
:1046D000F3D100BF012084F8350000BF002084F82A
:1046E000340000BFE06C10B12046E16C884700BF89
:1046F000A4E70000240100102DE9F0410446002544
:1047000000F09CF9074614B90120BDE8F081606A09
:1047100000B100BF022084F8350000BF002084F8FB
:10472000340000BF2068006820F0010021680860A4
:104730000AE000F083F9C01B052805D92020606538
:10474000032084F83500E0E72068006800F00100ED
:104750000028EED12068056821480540D4E9010110
:104760000843E16808432169084361690843A16976
:104770000843E1690843216A08430543606A042845
:1047800003D1D4E90B010843054320680560206884
:10479000456925F00705606A0543606A04280DD164
:1047A000A06A0543E06A48B12046FFF73DFC28B106
:1047B00040206065012084F83500A6E72068456147
:1047C0002046FFF717FC064694F85C103F2088400F
:1047D000B06000206065012084F83500002094E777
:1047E0003F8010F070B5044600F028F906462546D3
:1047F000681C10B104480078054400BF00F01EF9A1
:10480000801BA842FAD370BD34000020F8B50246E0
:104810000B460025002400200021E0E0012606FAD6
:1048200001F51E6806EA0504AC4274D11E7906F053
:104830000306012E04D01E7906F00306022E13D1C2
:1048400090684F000326BE40B0434F00DE68BE4074
:1048500030439060506801268E40B0431E79C6F305
:1048600000168E40304350601E7906F00306032E7A
:1048700009D0D0684F000326BE40B0434F009E6869
:10488000BE403043D0601E7906F00306022E13D1DD
:10489000CF0802F1200656F827004E07F70E0F2624
:1048A000BE40B0434F07FF0E1E69BE403043CF08E5
:1048B00002F1200646F8270010684F000326BE408C
:1048C000B0431E7906F003064F00BE40304310602F
:1048D0005E6806F44036002E1DD000BF002600960C
:1048E000414E366846F480463F4F3E603E4636684D
:1048F00006F48046009600BF00BF3C4E8F0856F875
:1049000027008E07370F0F26BE40B043384EB24205
:1049100002D100262EE061E0364EB24201D10126DE
:1049200028E0354EB24201D1022623E0334EB24296
:1049300001D103261EE0324EB24201D1042619E015
:10494000304EB24201D1052614E02F4EB24201D1C1
:1049500006260FE02D4EB24201D107260AE02C4E6A
:10496000B24201D1082605E02A4EB24201D1092601
:1049700000E00A268F073F0FBE4030431B4E8F08D2
:1049800046F82700244E3068A0435E6806F480167F
:1049900006B12043204E3060361D3068A0435E686B
:1049A00006F4001606B120431B4E361D30601A4E29
:1049B000361F3068A0435E6806F4003606B1204317
:1049C000154E361F3060361F3068A0435E6806F40F
:1049D000803606B12043104E083E3060491C102935
:1049E000FFF41CAFF8BD0000443802400838014015
:1049F000000002400004024000080240000C024097
:104A0000001002400014024000180240001C024046
:104A10000020024000240240083C014010B54269D9
:104A200021EA020302EA010443EA0443836110BD60
:104A30000AB1816101E00B0483617047014800689D
:104A4000704700002C0000200348006803490978E3
:104A500008440149086070472C0000203400002001
:104A600010B50D48006840F400700B490860084616
:104A7000006840F4806008600846006840F4807078
:104A80000860032000F0ACF80F2000F007F800F0F9
:104A90002BF8002010BD0000003C024070B5044619
:104AA0000E4800784FF47A71B1FBF0F00C490968B8
:104AB000B1FBF0F5284601F09FFB08B1012070BD65
:104AC000102C07D200222146501E00F04BF805485A
:104AD000046001E00120F2E70020F0E7340000204C
:104AE000240100103000002008B500BF0020009015
:104AF0001148006840F480400F490860084600688B
:104B000000F48040009000BF00BF00BF0020009074
:104B1000081F006840F08050091F086008460068C0
:104B200000F08050009000BF00BF00220F21901EB7
:104B300000F018F808BD000044380240014608465D
:104B400000280DDB00BF00BF00F01F0301229A40C8
:104B500043099B0003F1E023C3F8002100BF00BF1D
:104B600000BF70472DE9F05F80460D4616460027CE
:104B700005F066F9074639462A46334601F0070034
:104B8000C0F1070ABAF1040F02D94FF0040A01E09C
:104B9000C0F1070AD14600F1040ABAF1070F02D2A8
:104BA0004FF0000A01E0A0F1030AD4464FF0010AD9
:104BB0000AFA09FAAAF1010A0AEA020A0AFA0CFA3E
:104BC0004FF0010B0BFA0CFBABF1010B0BEA030BE3
:104BD0004AEA0B042146404605F03AF9BDE8F09F49
:104BE00000BF00F00702064B19684FF6FF0319409B
:104BF000044B0B4343EA0221014B196000BF70478D
:104C00000CED00E00000FA057047024610684162B2
:104C100000207047F0B5034615461868446A21B96C
:104C200044EA05401E68B06219E01868806A04EB27
:104C30001044002208E0186800F5827050F8220045
:104C400004EB1044501CC2B2481E9042F3D844EA10
:104C50000547186800F582704E1E40F82670002047
:104C6000F0BD10B50446D4F8E00403F055FB10BDC8
:104C700070B504460D4605EBC50304F1140101EBC4
:104C80008301CA682946D4F8E00403F040FA70BDF5
:104C900070B504460D4605EBC50304F5157101EB2F
:104CA0008301CA682946D4F8E00403F0B4FA70BD61
:104CB00010B50446D4F8E00403F031FB10BD2DE933
:104CC000F04104460D4605F08000802808D105F02B
:104CD0000F0000EBC00104F1140000EB810607E0B7
:104CE00005F00F0000EBC00104F5157000EB810624
:104CF0003146206804F0BAFD07463846BDE8F08129
:104D000070B504460E4606F0800080280AD106F0F1
:104D10000F0000EBC00104F1140000EB810501203D
:104D2000687009E006F00F0000EBC00104F5157093
:104D300000EB81050020687006F00F00287000BFAE
:104D400094F89404012801D1022070BD012084F858
:104D5000940400BF2946206804F01CF900BF00201D
:104D600084F8940400BF00BFEFE770B504460E4618
:104D700006F00F002179884201D9012070BD06F0AC
:104D8000800080280AD106F00F0000EBC00104F17A
:104D9000140000EB81050120687009E006F00F00A7
:104DA00000EBC00104F5157000EB81050020687070
:104DB0000020A87006F00F00287000BF94F894043B
:104DC000012801D10220D9E7012084F8940400BF12
:104DD0002946206804F0DCFA00BF002084F894041F
:104DE00000BF00BFCAE7024601F00F0000EBC0039E
:104DF00002F5157000EB8300406970472DE9F0471C
:104E000005460E4690461F464FF0000906F080000A
:104E100080280AD106F00F0000EBC00105F1140054
:104E200000EB81040120607009E006F00F0000EB48
:104E3000C00105F5157000EB81040020607006F0DC
:104E40000F002070C4F808802771607808B12078BE
:104E50006083022F01D10020607100BF95F8940497
:104E6000012802D10220BDE8F087012085F89404D2
:104E700000BF2146286803F0A1FF00BF002085F88D
:104E8000940400BF4846EEE72DE9F04105460E4682
:104E90001746984606F00F0000EBC00105F51570A7
:104EA00000EB8104E760C4F810800020606160704E
:104EB00006F00F002070A879012800D1E761AA79D7
:104EC0002146286804F0F8FA0020BDE8F08170B5AA
:104ED00004460D4605F00F002179884201D90120D2
:104EE00070BD05F0800080280AD105F00F0000EBAE
:104EF000C00104F1140000EB81060120707007E08E
:104F000005EBC50104F5157000EB810600207070FB
:104F10000120B07005F00F00307000BF94F89404C9
:104F2000012801D10220DBE7012084F8940400BFAE
:104F30003146206804F073FA05F00F0028B9A17912
:104F400004F29C42206804F0EBF900BF002084F8D2
:104F5000940400BF00BFC3E72DE9F04105460E46AB
:104F60001746984606F00F0000EBC00105F114004B
:104F700000EB8104E760C4F810800020606101202C
:104F8000607006F00F002070A879012800D1E76159
:104F9000AA792146286804F08FFA0020BDE8F08144
:104FA0002DE9FE4F0446D4F800B05E46206804F0B8
:104FB0003FFD002874D1206804F079FD08B9BDE8F0
:104FC000FE8F40F608008059C0F30D20C4F8D404C9
:104FD000206804F06CFD00F00200022805D1206872
:104FE000406900F0020021684861206804F05FFD1C
:104FF00000F01000102845D12068806920F01000D2
:1050000021688861DBF8209009F00F0000EBC001F7
:1050100004F5157000EB810AC9F3434002281AD148
:1050200047F6F07009EA000030B3C9F30A12584697
:10503000DAF80C1004F040FDC9F30A11DAF80C009C
:105040000844CAF80C00C9F30A11DAF8140008443D
:10505000CAF8140010E0C9F3434006280CD1082216
:1050600004F29C41584604F027FDC9F30A11DAF80E
:1050700014000844CAF814002068806940F0100049
:1050800021688861206804F012FD00F40020B0F56A
:10509000002F7BD10025206804F0D9FC029072E03B
:1050A000E1E2029800F00100002868D0E9B220682F
:1050B00004F0F0FC804608F0010048B1012106F53B
:1050C000306000EB451081602946204601F036FD36
:1050D00008F00800082809D1082106F5306000EB27
:1050E000451081602946204601F0F6FC08F01000CA
:1050F000102805D1102106F5306000EB45108160C5
:1051000008F00200022824D1DBF8140000F080002F
:10511000802807D140F60400805940F4806140F6B1
:105120000400815105EBC50104F5157000EB810AFF
:105130009AF80300012806D100208AF80300E9B29A
:10514000204600F09BFA022106F5306000EB451086
:10515000816008F02000202805D1202106F530606C
:1051600000EB4510816008F40050B0F5005F06D1F7
:105170004FF4005106F5306000EB451081606D1C66
:10518000029840080290029800288AD1206804F012
:105190008EFC00F48020B0F5802F7DD1206804F0D3
:1051A0004CFC029000259AE0029800F001000028D3
:1051B00073D0E9B2206804F054FC804608F0010086
:1051C000F0B305F00F0101208840019040F6340053
:1051D0008159019821EA000040F6340188510121EB
:1051E00006F5106000EB45108160A079012824D1FC
:1051F00005EBC50104F1140000EB810005EBC502CD
:10520000C16804F1140000EB82008068014405EBE2
:10521000C50204F1140000EB8200C1606DB905EB1A
:10522000C50104F1140000EB8100006928B904F203
:105230009C420121206804F073F8E9B2204600E0A6
:1052400001E0FFF715FD08F00800082805D1082146
:1052500006F5106000EB4510816008F01000102882
:1052600005D1102106F5106000EB4510816008F0B3
:105270004000402805D1402106F5106000EB4510A4
:10528000816008F0020002281DD12946584604F02A
:1052900092FB05EBC50101E025E01CE004F11400E0
:1052A00000EB810A9AF80300012806D100208AF851
:1052B0000300E9B2204600F0D8F9022106F510609B
:1052C00000EB4510816008F08000802803D129465A
:1052D000204601F0D5FC6D1C02984008029002980F
:1052E00000287FF461AF206804F0E1FB00F000408B
:1052F000B0F1004F1CD140F60400805920F00101AC
:1053000040F60400815194F8CC04012807D1002014
:1053100084F8CC0400212046FFF776FC02E020460A
:1053200000F0D6FA2068406900F00040216848612A
:10533000206804F0BCFB00F40060B0F5006F0ED1F3
:1053400040F60800805900F0010010B1204600F03E
:1053500017FB2068406900F40060216848612068FC
:1053600004F0A5FB00F48050B0F5805F7ED140F6DC
:105370000400805920F0010140F604008151102101
:10538000206804F018FB002732E04FF67F3106F565
:10539000106000EB4710816006F5106000EB4710CD
:1053A000006820F4001106F5106000EB4710016062
:1053B0004FF67F3106F5306000EB4710816006F54F
:1053C000306000EB4710006820F4001106F53060F3
:1053D00000EB4710016006F5306000EB47100068F5
:1053E00040F0006106F5306000EB471001607F1C63
:1053F0002079B842C9D840F61C00805940F001110C
:1054000040F61C008151E07B70B1D6F8840840F072
:105410000B01C6F8841840F64400805940F00B0197
:1054200040F6440081510FE040F61400805942F2EA
:105430002B01084340F614018851081F805940F0A1
:105440000B014FF401608151D6F8000820F4FE6092
:10545000C6F80008A17904F29C42206803F060FFBE
:105460002068406900F48050216800E000E0486155
:10547000206804F01CFB00F40050B0F5005F17D169
:10548000206803F003FD206804F0BFFAE07100F02B
:1054900053FB0090E2792068009904F08FFB2046CE
:1054A00000F0FEF92068406900F40050216848616E
:1054B000206804F0FCFA00F00800082808D1204613
:1054C00000F00DFA2068406900F00800216848618A
:1054D000206804F0ECFA00F08000802818D1DBF896
:1054E000180020F08000CBF8180001250DE005EB36
:1054F000C50104F5157000EB8100C078012803D1C7
:10550000E9B22046FFF7DBFB6D1C2079A842EED8FC
:10551000206804F0CCFA00F48010B0F5801F2DD183
:10552000012522E006F5106000EB4510D0F8009050
:1055300005EBC50104F1140000EB8100007901289E
:1055400012D109F00040B0F1004F0DD1012105EB5F
:10555000C50204F1140000EB8200C170E8B240F013
:1055600080012046FFF7ABFB6D1C2079A842D9D8FB
:105570002068406900F4801021684861206804F0C8
:1055800096FA00F40010B0F5001F44D1012538E070
:1055900006F5306000EB4510D0F8009005EBC50132
:1055A00004F5157000EB81000079012828D109F07D
:1055B0000040B0F1004F23D109F4803094F8D414A6
:1055C00001F0010188421BD1012105EBC50204F560
:1055D000157000EB8200C170DBF8180040F080000D
:1055E000CBF81800DBF8140000F0800040B940F65A
:1055F0000400805940F4007140F60400815103E03A
:105600006D1C2079A842C3D800BF2068406900F40F
:10561000001021684861206804F049FA00F08040D9
:10562000B0F1804F08D12046FFF71BFB206840698E
:1056300000F0804021684861206804F038FA00F0EA
:10564000040004280FD12068D0F8049009F0040069
:10565000042802D12046FFF72BFB2068406840EA6F
:1056600009002168486000BFA9E470B504460D46F2
:105670002946D4F8E00402F0CFFE70BD70B50446B0
:105680000D462946D4F8E00402F0EAFE70BDF8B5F4
:1056900004460CB90120F8BD266894F8950428B991
:1056A000002084F89404204600F0A0F8032084F839
:1056B0009504B6F1A04F01D10021A171206803F03B
:1056C00027FE207C8DF8000094E80F0003F0F2FB29
:1056D00020B1022084F895040120DCE70021206835
:1056E00004F01AFA20B1022084F895040120D2E7D0
:1056F000002531E0012105EBC50204F1140000EBA7
:105700008200417005EBC50104F1140000F821503E
:1057100005EBC50100EB81004583002105EBC502C7
:1057200004F1140000EB8200017105EBC50204F1E5
:10573000140000EB8200816005EBC50204F1140047
:1057400000EB8200C16005EBC50204F1140000EB20
:1057500082000161681CC5B22079A842CADC00251C
:105760002AE0002105EBC50204F5157000EB82006C
:10577000417005EBC50104F5157000F821500021BA
:1057800005EBC50200EB8200017105EBC50204F5D3
:10579000157000EB8200816005EBC50204F5157001
:1057A00000EB8200C16005EBC50204F5157000EB4B
:1057B00082000161681CC5B22079A842D1DC207C3E
:1057C0008DF8000094E80F0003F0AEFC20B1022039
:1057D00084F8950401205EE700206074012084F8BD
:1057E0009504206803F08EFC002054E710B586B0C5
:1057F0000446142101A8FBF70BFE264920688842C5
:1058000046D100BF002000902348006840F002000D
:10581000214908600846006800F00200009000BFBF
:1058200000BF4FF4404001900220029000200390FE
:10583000032004900C20059001A91848FEF7E6FF0C
:1058400000BF002000901448006840F0005012494A
:1058500008600846006800F00050009000BF00BFDC
:10586000002205214A20FFF77DF94A20FFF766F95B
:10587000002205214B20FFF775F94B20FFF75EF959
:10588000002205214D20FFF76DF94D20FFF756F955
:1058900006B010BD00000440303802400004024051
:1058A00070B504460125E07908B9002506E0E079E5
:1058B000022801D1012501E0FEF70CFC2946D4F8AD
:1058C000E00402F076FED4F8E00402F01DFE70BDA4
:1058D00010B50446D4F8E00402F04CFE10BD10B53B
:1058E0000446D4F8E00402F050FE10BD70B5044642
:1058F0000D4600BF94F89404012801D1022070BD28
:10590000012084F8940400BF65742946206804F0DF
:1059100037F900BF002084F8940400BF00BFEEE711
:1059200010B5044604F29C41D4F8E00402F058FE9D
:1059300010BD70B50446256800BF94F89404012892
:1059400001D1022070BD012084F8940400BFE868F2
:1059500000F0400030B1607B012803D1A86B40F417
:105960008030A863206803F0F7FF206803F0B8FBDD
:1059700000BF002084F8940400BF00BFE2E70000ED
:1059800010B50446D4F8E00402F087FE2068D0F891
:10599000000E40F001002168C1F8000EE07A28B145
:1059A0000348006840F006000149086010BD00008F
:1059B00010ED00E070B504460D460CB9012070BD35
:1059C0005848006800F00F00A84209D255490D70F0
:1059D0000846006800F00F00A84201D00120EEE761
:1059E000207800F0020002281DD1207800F0040089
:1059F000042805D14C48006840F4E0504A4908604A
:105A0000207800F00800082805D14748006840F4D5
:105A10006040454908604448006820F0F000A168F3
:105A2000084341490860207800F00100A8B360688D
:105A3000012807D13C4808380068C0F34040B8B995
:105A40000120BCE76068022802D06068032807D103
:105A5000354808380068C0F3406048B90120AEE717
:105A6000314808380068C0F3400008B90120A6E7B3
:105A70002D48006820F00300616808432A49086047
:105A8000FEF7DCFF064609E0FEF7D8FF801B41F277
:105A90008831884202D9032091E707E02248006854
:105AA00000F00C006168B0EB810FEDD11D4800687B
:105AB00000F00F00A84209D91A490D700846006885
:105AC00000F00F00A84201D0012078E7207800F014
:105AD0000400042807D11448006820F4E050E1686D
