:020000040800F2
:100000000080001081020008A9400008753900082E
:10001000A5400008DD140008D971000800000000A8
:10002000000000000000000000000000C101000806
:10003000D7160008000000001D0200082546000831
:100040009B0200089B0200089B0200089B0200081C
:100050009B0200089B0200089B0200089B0200080C
:100060009B0200089B0200089B0200089B020008FC
:100070009B0200089B0200089B0200089B020008EC
:100080009B0200089B0200089B0200089B020008DC
:100090009B0200089B0200089B0200089B020008CC
:1000A0009B0200089B0200089B0200089B020008BC
:1000B0009B0200089B0200089B0200089B020008AC
:1000C0009B0200089B0200089B0200089B0200089C
:1000D0009B0200089B0200089B0200089B0200088C
:1000E0009B0200089B0200089B0200089B0200087C
:1000F0009B0200089B0200089B0200089B0200086C
:100100009B0200089B0200089B0200089B0200085B
:100110009B0200089B0200089B0200089B0200084B
:10012000E91500089B0200089B0200089B020008DA
:100130009B0200089B0200089B0200089B0200082B
:100140009B0200089B0200089B0200089B0200081B
:100150009B0200089B0200089B0200089B0200080B
:100160009B0200089B020008E1400008D140000803
:100170009B020008F14000089B02000800000000FC
:100180009B0200089B0200089B0200089B020008DB
:100190009B0200089B0200089B0200089B020008CB
:1001A0009B0200089B0200089B020008DFF80CD0AD
:1001B00000F058FE0048004799A701080080001091
:1001C0002C4B19680868B0E8F04F80F30988BFF33A
:1001D0006F8F4FF0000080F311887047000000001F
:1001E00008480068006880F308884FF0000080F33A
:1001F000148862B661B6BFF34F8FBFF36F8F00DF15
:1002000000BF00BF08ED00E0DFF80C00016841F41A
:1002100070010160704700BF88ED00E0EFF30980D6
:10022000BFF36F8F134B1A681EF0100F08BF20ED3D
:10023000108A20E9F04F106009B44FF0500080F3AD
:100240001188BFF34F8FBFF36F8F21F053FC4FF036
:10025000000080F3118809BC19680868B0E8F04F05
:100260001EF0100F08BFB0EC108A80F30988BFF3AE
:100270006F8F7047F8010020EFF305807047000092
:100280000648804706480047FEE7FEE7FEE7FEE730
:10029000FEE7FEE7FEE7FEE7FEE7FEE7F1460008C1
:1002A000AD0100080C49087820B1401E0870491CB7
:1002B000085C704700210720ABBE7047064A1178E2
:1002C000022902D34FF0FF307047034B5B1C585498
:1002D000491C117070470000910200202DE9F05F69
:1002E0000546002092469B468846064681464024A5
:1002F0001BE0284641464746224600F060F8534638
:100300005A46C01A914110D311461846224600F0B1
:1003100047F82D1A67EB01084F46224601200021BD
:1003200000F03EF817EB00094E41201EA4F1010435
:10033000DFDC484631462A464346BDE8F09F2DE9BA
:10034000F0410024061B254671F1000605DA012460
:100350000027D0EB070067EB0101161E73F10006C2
:1003600005DA0027D2EB0702012567EB0303FFF74D
:10037000B5FF86460E4617469C46AC4204D0002583
:10038000D0EB050E65EB010624B10020D2EB00078F
:1003900060EB030C704631463A466346BDE8F08197
:1003A000202A04DB203A00FA02F100207047914035
:1003B000C2F1200320FA03F3194390407047202A2A
:1003C00004DB203A21FA02F00021704721FA02F3FF
:1003D000D040C2F120029140084319467047000006
:1003E000004870471C39020810B50446FFF7F8FFB3
:1003F0000068005D00F0010010BDA0F16101192945
:1004000000D820387047A0F14101192900D82030C8
:1004100070470000004870472839020840EA01038D
:100420009B0703D009E008C9121F08C0042AFAD2AA
:1004300003E011F8013B00F8013B521EF9D270476E
:10044000D2B201E000F8012B491EFBD27047002216
:10045000F6E710B513460A4604461946FFF7F0FFC3
:10046000204610BDCAB2401E10F8011F8A4202D0B9
:100470000029F9D100207047421C10F8011B002907
:10048000FBD1801A704710B5002200E0521C835C3B
:100490008C5CA34201D1002BF8D1D8B2E1B2401A52
:1004A00010BDCBB203E00178994203D0401C521E2C
:1004B000F9D20020704730B504460020034600E022
:1004C0005B1C934203D2E05CCD5C401BF8D030BD96
:1004D000FFF7D9BF034611F8012B00F8012B002AC2
:1004E000F9D11846704730B505460020034600E0B4
:1004F0005B1C934205D2EC5CC85C201A01D1002C35
:10050000F6D130BD30B503461D783DB10A4612F82C
:10051000014B1CB1AC42FAD15B1CF5E7181A30BD97
:1005200010B508E00A4602E0A34208D0521C137836
:10053000002BF9D1401C0478002CF3D1002010BD11
:1005400007280FD2DFE800F00406080E0E0C0A00A0
:1005500005A070470AA0704713A070471DA0704700
:1005600022A070472BA070474E6F206572726F7289
:1005700020286572726E6F203D2030290000000037
:1005800045444F4D202D2066756E6374696F6E2053
:10059000617267756D656E74206F7574206F66206B
:1005A00072616E67650000004552414E4745202D3F
:1005B0002066756E6374696F6E20726573756C74F6
:1005C000206E6F7420726570726573656E746162FF
:1005D0006C650000454E4F4D454D202D206F7574C4
:1005E000206F66206D656D6F7279000045494E562B
:1005F000414C202D20696E76616C696420617267C0
:10060000756D656E7420746F2066756E6374696FA6
:100610006E000000556E6B6E6F776E206572726FA4
:10062000720000002DE9FE4F804681EA0300C00FF2
:100630000C46009021F0004123F00045B8EB020089
:10064000A94105D24046214690461C460B4602462B
:1006500023F00040104347D0270DC7F30A00C3F32F
:100660000A510290401A019040286BDAC3F313003C
:1006700040F4801B0098924620B10023D2EB030A7D
:1006800063EB0B0B01985946C0F140025046FFF74F
:1006900087FE06460D4650465946019A00F029FA53
:1006A00010EB08006141002487EA115284EAE773E5
:1006B0001A4340D0009A62B3019A012A4FEA0752C6
:1006C00015DC001B61EB02014FF0004202EA075209
:1006D000CDE90042001C41F5801132462B4600F066
:1006E000AFFA03B0BDE8F08F40462146F9E7001BA2
:1006F00061EB0201001C41F5801300185B412018DA
:10070000A2F5001747EB030140EAD570B6196D4119
:1007100011E06D084FEA360645EAC0754FEA075208
:10072000001B61EB0201001C41F5801149084FEAF2
:1007300030000019514132462B4603B0BDE8F04F5E
:1007400000F06FBA0098012240000023D0EB0202B3
:1007500063EBE073009821464FEAE074B8EB0000C9
:1007600061EB0401E9E783F000435BE781F00041BE
:1007700058E72DE9FE4F81EA030404F0004421F01C
:10078000004100944FF0000B23F0004350EA0104B5
:100790005ED052EA03045BD0C3F30A54C1F30A5596
:1007A0002C44A4F2F3340194A0FB0254C1F31301CE
:1007B00041F48011C3F3130343F4801301FB02449B
:1007C00000FB034E840A970A44EA815447EA8357A0
:1007D000A4FB076802958D0A05FB07854FEA932C59
:1007E00004FB0C542705029D4FEA065847EA1637CA
:1007F000B5EB08056EEB070C870E920E47EA8117E2
:1008000042EA8312A7FB0201B6EB0B0164EB000482
:100810002B0D43EA0C335E1844EB1C50DA4651466C
:10082000E7FB0201C5F313044FEA0B3343EA145309
:100830004FEA0432019C43EA0603A4F10C0402943B
:10084000009CCDE900B400F0FBF903B0BDE8F08FE7
:1008500000200146F9E72DE9F04D81EA030404F098
:10086000004B21F0004514464FF0000A23F00041F0
:1008700050EA050220D054EA01021DD0C5F30A5700
:100880000246C5F31303C1F31300C1F30A5640F443
:10089000801543F48013A7EB0608101BD64608F218
:1008A000FD3873EB050002D308F1010801E092184E
:1008B0005B41B8F1000F03DA00200146BDE8F08D7E
:1008C00000204FF48011064684460EE0171B73EBA0
:1008D000050705D3121B63EB050306434CEA010C25
:1008E00049084FEA300092185B4150EA0107EDD108
:1008F00052EA030012D082EA040083EA05010843A9
:1009000005D0101BAB4106D20122002306E00022D5
:100910004FF0004302E06FF0010253101AEB0600A3
:100920004CEB085110EB0A0041EB0B01BDE8F04D18
:1009300000F077B90EB5C10F80EAE0700844CA072D
:10094000002140F233438DE80E000A460B4600F0CA
:1009500077F903B000BD3EB5CA17CB0F0024504055
:100960005140C0186141DA0740F233430094CDE9A9
:1009700001232246234600F063F903B030BD70B571
:10098000C1F30A5201F000450024C1F3130140F203
:10099000FF3341F480119A4202DA0020014670BD13
:1009A00040F233439A42A2F2334203DC5242FFF751
:1009B00006FD01E0FFF7F4FC2C43F0D00023D0EB60
:1009C000030063EB010170BD00F0004230F0004015
:1009D0000AD0C10D01F56071C0F3160042EA015161
:1009E000C2084007114370470020014670470000CD
:1009F00030B5041E71F1000404DB4FF000444042A6
:100A000064EB0101141E73F1000405DB1C464FF07A
:100A10000043524263EB04038B4208BF824230BD65
:100A200030B5041E71F1000404DB4FF00044404275
:100A300064EB0101141E73F1000405DB1C464FF04A
:100A40000043524263EB0403994208BF904230BD19
:100A500001F0004330B421F0004150EA010206D019
:100A60000A0DA2F56072C1F31301002A02DC30BC4A
:100A700000207047440F44EAC104C100E01830BCB4
:100A800000EBC25000F096B8A0E8004FF0C040F86C
:100A900004DB01B5AFF30080BDE8024001C10020D6
:100AA000704700F12C080C4658F8040DAFF3008095
:100AB00058F8040D8546200008BF012038E9F000F1
:100AC00018E9004F704730B50B4601460020202240
:100AD000012409E021FA02F59D4205D303FA02F54B
:100AE000491B04FA02F52844151EA2F10102F1DCAB
:100AF00030BD202A06DBCB17203A41FA02F043EA48
:100B0000E07306E041FA02F3D040C2F120029140C6
:100B100008431946704700000FB4002300B589B0A0
:100B20000CA900910B996FF00042CB601E4B06930D
:100B30001E4B07930423CDE901321D4A0892024659
:100B40006B46002000F034FA09B05DF814FB70B574
:100B500086B006464FF0FF300091CDE9010100203C
:100B600015460C4604903246694604A8FFF7D4FFA8
:100B700002460498211825B108B1084600E0204635
:100B80002860049800280DD0002A02DD00988842D1
:100B900008D0081B0094CDE901043246694604A838
:100BA000FFF7BAFF06B070BDE91100080712000890
:100BB000E90300080029A8BF7047401C490008BF8E
:100BC00020F00100704710B4B0FA80FC00FA0CF07D
:100BD00050EA010404BF10BC704749B1CCF12004B5
:100BE00021FA04F411FA0CF118BF01212143084342
:100BF000A3EB0C01CB1D4FEA00614FEA102042BF6E
:100C0000002010BC704700EBC35010440029A4BF63
:100C100010BC7047401C490008BF20F0010010BC08
:100C2000704710B5141E73F1000408DA401C41F13E
:100C3000000192185B411A4301D120F0010010BD60
:100C40002DE9F04D92469B4611B1B1FA81F202E0D6
:100C5000B0FA80F220329046FFF7A2FB04460F461E
:100C600040EA0A0041EA0B0153465A46084313D0B2
:100C7000114653EA010019D0C8F140025046FFF76F
:100C80009EFB05460E46504659464246FFF788FBF6
:100C9000084305D0012004E020463946BDE8F08D28
:100CA0000020054346EAE0762C4337430A98630563
:100CB000E40AA0EB08000022FD0A44EA47540A3087
:100CC00002D500200146E9E7010510196941DDE977
:100CD000084500196941BDE8F04DA2E770B521F063
:100CE000004303430CD0C1F30A550024D5EB04059F
:100CF00064EB0403D617AD1AB34102DB00200146B2
:100D000070BD201841EB025170BD2DE9F04D00235C
:100D10001A461B1A8A4103DB00200146BDE8F08D0C
:100D2000C1F30A52C1F3130141F480154FF0000BD7
:100D3000D10702D100186D41521E0027044640F22F
:100D4000FF11384601EB620A3E468046024600200B
:100D50004FF48011FFF733FBC2197141BB1846EB0A
:100D60000100B4EB030C75EB000C04D3E41A65EB43
:100D7000000517460E46241908F101006D41804612
:100D80003428E3DDF91946EB0600091BA84103D21C
:100D90004FF0FF32134601E0002213461BEB070021
:100DA00046EB0A51BDE8F04DFFF73BBF2DE9FE4F82
:100DB000C3F30A5701F000450024C1F30A56C3F3F8
:100DC0001303C1F3130143F4801312EB020AA64686
:100DD00041F48011009543EB030CA7F1010B16E0E1
:100DE000B0EB0A0061EB0C01071E71F1000707DA96
:100DF0004FF00008D0EB080085F0004568EB0101DA
:100E0000171A73EB0107EBD3761E001849415E45B4
:100E1000F6DA50EA010209D0CDE900E500221346D6
:100E20000296FFF70DFF03B0BDE8F08F2046009952
:100E3000F9E7C1F30A52C1F3130140F2FF3341F461
:100E400080119A4202DA00200146704740F2334393
:100E50009A42A2F2334202DC5242FFF7B0BAFFF7E5
:100E60009FBA0000064C074D06E0E06840F0010321
:100E700094E8070098471034AC42F6D3FFF79AF98C
:100E8000BC3E0208EC3E02082DE9FF4F087883B013
:100E90009946FF2805D0491C2D2804D000240020A5
:100EA00008E000200BE00124F9E700EB800003EBF1
:100EB0004000491C0B78FF2BF7D104B140420023BE
:100EC0000293147819461D462D2C01D02B2C04D1E9
:100ED000521C2D2C13D000240294AA461478FF2C07
:100EE0000FD00A25A3FB057801FB05814FF0000C0C
:100EF00003FB0C11521CE3194AEB0101EEE701243C
:100F0000EAE7814453EA010002D019F5C87F06DA06
:100F100003980021C0E9001107B0BDE8F08F00255B
:100F2000AE4E2F46DFF8B882184600F07DF9CDE9C5
:100F30000001B9F1000002DAC9F1000400E0044642
:100F40000023A74A1AEB030B42EB045A12E0E00716
:100F500007D02A46334638464146FFF70AFC074683
:100F600088462A46334610461946FFF702FC0546D6
:100F70000E466410002CEAD1DDE90001B9F1000F42
:100F80005A46534606DAFFF766FC3A464346FFF7F1
:100F900062FC05E0FFF7EDFB3A464346FFF7E9FB4D
:100FA000029A0AB181F00041039AC2E90001B3E755
:100FB0002DE9FF4F1F468DB0D7E901464FF0FF38AE
:100FC0002E2045464FF000090B90B9696D1C0E9814
:100FD0008847396A824688470028F6D1BAF1FF3F30
:100FE0000AD024F4D064002E11DDBAF12B0F08D002
:100FF000BAF12D0F0BD102E0404611B08DE744F459
:101000008064B9696D1C0E9888478246761E6946D1
:10101000600501D52D2000E02B208DF8000001F1A6
:10102000010B0DF1200809E0B9696D1C0E98884785
:1010300082460F9844F40074761E0560002E02DD8F
:10104000BAF1300FF0D00B998A453ED144F08004BC
:1010500006E00F99681CA9F1010944F400740860C6
:10106000B9696D1C761E0E98884782463028F0D0EC
:101070002BE00B998A4505D1200603D444F0800467
:10108000761E18E0504607F057FB08B30DF1130128
:10109000761E44F400748B4508D2AAF130000BF898
:1010A000010B200607D5A9F1010003E0200602D4B8
:1010B00009F101008146A00502D50F99681C08605E
:1010C000B9696D1C0E9888478246002ED1DC53E02A
:1010D000002E51DDBAF1650F02D0BAF1450F4BD1A8
:1010E000A00549D5B9696D1C24F44074761E0E988C
:1010F00088478246002E0CDD2B2804D0BAF12D0F34
:1011000007D144F48074B9696D1C0E9888478246F3
:10111000761EE00501D52D2100E02B2108F8011BEA
:10112000CDF82C8021E00DF12901761E44F40074E5
:1011300088450CD2AAF1300010F0FF0088F80000BA
:1011400002D10B99884509D908F1010806E0E005AC
:1011500001D5244801E042F20F708146B9696D1C47
:101160000E98884782460F980560002E04DD504691
:1011700007F0E2FA0028D6D1F9690E988847FF20D7
:101180008BF8000088F800000020069007904B467E
:101190006A4608A906A8FFF777FEA00502D46FF0FB
:1011A00001002AE714F0240F0AD0E00714D1DDE98A
:1011B00006123868031D3B600068C0E900120BE0AE
:1011C000DDE90601FFF744FC0146E00704D1386879
:1011D000021D3A600068016028460EE700001440D6
:1011E0000000F03FF1D8FFFF426842B1016811F8FA
:1011F000013B23B1521EC0E900121846704701217D
:10120000C160881E704742685AB1C368016843B91B
:1012100083688B4205D0491E521CC0E90012002091
:1012200070474FF0FF3070470EB540F233420292E4
:101230000022CDE900221346FFF702FD03B000BDF6
:1012400070B58C1810F8015B15F0070301D110F888
:10125000013B2A1106D110F8012B03E010F8016BB5
:1012600001F8016B5B1EF9D12B0705D40023521E38
:101270000DD401F8013BFAE710F8013BCB1A921CA0
:1012800003E013F8015B01F8015B521EF9D5A1429E
:10129000D8D3002070BD000055494A6822F440327E
:1012A0004A604A6843681A434A600268526822F4F6
:1012B000807203685A6002685368026943EA022236
:1012C00003685A600268526822F0407203685A60EC
:1012D0000268526883681A4303685A600268926819
:1012E00022F4006203689A6002689268C3681A4335
:1012F00003689A603F4B826A9A4218D002689268EB
:1013000022F0706203689A6002689268836A1A43E6
:1013100003689A600268926822F0405203689A60FB
:1013200002689268C36A1A4303689A600BE0026815
:10133000926822F0706203689A600268926822F0F4
:10134000405203689A600268926822F002020368C1
:101350009A6002689368027E43EA420203689A60D8
:101360002022125CA2B10268526842F40062036853
:101370005A600268526822F4604203685A60026848
:101380005368426A521E43EA423203685A6005E0DB
:101390000268526822F4006203685A600268D26AE6
:1013A00022F470020368DA620268D36A828B521EEA
:1013B00043EA02520368DA620268926822F4007219
:1013C00003689A600268936890F8302043EA4222EA
:1013D00003689A600268926822F4806203689A60E7
:1013E00002689368426943EA822203689A60704700
:1013F000002301400100000FF8B505460E46002706
:101400002C4600BF082E00D015E020787E2800D0A2
:1014100011E0A0788DF80000E0788DF80100A08838
:10142000ADF8020000231A466946044800681AF025
:101430000BFA012700BF00BF3846F8BD240000208A
:10144000F0B5C3B005460E4614461F467C208DF805
:1014500000001E4800788DF801001C480078401CF0
:101460001A49087021F0FEFA02908DF803608DF899
:101470000250019441F28831154800681AF026FAAA
:1014800008BB1448006814490968084400990160C1
:1014900001994160029981600F4800680C300E4943
:1014A00008600C4909680C4A1268881822463946B7
:1014B000FEF7B4FF08480068204407490860044864
:1014C00000681AF08DFA43B0F0BD00001000002053
:1014D00028000020080000200C00002000BFFEE7CC
:1014E0000346042B15D007DC7BB1012B0ED0022B59
:1014F0000DD0032B12D10BE0202B0BD0212B0AD0C7
:10150000222B09D0232B09D107E008E007E006E0F1
:1015100005E004E003E002E001E000E000BF00BFFE
:10152000002070470020704710B50022044905488C
:1015300003F049FC0449034803F036FC002010BDC9
:101540006C1D0220501202206C15022070B5064658
:101550000C461546012D02D0032D0ED108E0314670
:101560000C482268FEF75AFF01200B49087005E07D
:1015700030462168FFF740FF00E000BF00BF314662
:10158000064803F011FC2946044803F0DDFB002067
:1015900070BD0000A00200200000002050120220B8
:1015A00010B503460C460021084610BD2DE9F04158
:1015B00004460D46164600270A48D0F8BC82D8F8E3
:1015C000140210B10120BDE8F0812A4621460548E9
:1015D00003F0F9FB3146034803F0A7FC0746384601
:1015E000F1E700005012022010B5024800F066FA40
:1015F00010BD000050110220014608781038182351
:10160000B0FBF3F20848805CC865032A05D9086876
:101610006FF30900001D886503E008686FF3090097
:101620008865886D7047000064310208014600201B
:101630008A6A8B69CBB932B1012A0DD0022A03D054
:10164000032A10D10EE000BFCB6A03F08073B3F120
:10165000807F00D1012007E0CB6AB3F1C07F00D1C9
:10166000012001E000E000BF34E08B69B3F5005FCA
:101670001AD132B1012A07D0022A03D0032A11D18C
:101680000AE000BF01200EE0CB6A03F08073B3F1E3
:10169000807F00D1012006E0CB6AB3F1C07F00D18A
:1016A000012000E000BF15E032B1012A05D0022A76
:1016B00004D0032A0CD103E000BF00BF012008E0E2
:1016C000CB6A03F08073B3F1807F00D1012000E08A
:1016D00000BF00BF7047704772B600BFFEE7000052
:1016E0002DE9F04387B00446256902AF28461FF074
:1016F000F3FC8046C7F8008098F8040040F04000F2
:101700003872022202A9204613F0BAFA0646307A4D
:1017100000F00F00002846D094F8079015F8527F8B
:10172000287840F0020028700020E071E06800F1A5
:101730001002E2603146D1E90023C0E900230A7AB1
:101740000272E06800F11002E26002A9D1E9002310
:10175000C0E900230A7A02726069408C40F0800080
:101760006169488400200090E0682038E169431AEC
:1017700000220E4920460FF099FB80466069408C9C
:1017800020F080006169488484F8079005F8527958
:10179000B8F1000F06D006A120460FF0CDFEE0689C
:1017A0001038E06000BF07B0BDE8F083A3BA0008BE
:1017B0005F5F67630000000010B52C4454B108223D
:1017C0000549204602F0D8F804220349103130467A
:1017D00002F0D2F810BD00002601002038B5024604
:1017E0000020009000BF92F83C00012801D10220A7
:1017F00038BD012082F83C0000BF0868092816D9CE
:101800001068C0680C780A3C04EB44050724AC401F
:10181000A0431468E0600C780A3C04EB4404886838
:10182000A0401468E46820431468E06013E0106886
:1018300000690C7804EB44050724AC40A04314680D
:1018400020610C7804EB44048868A0401468246983
:101850002043146820614868072817D21068406B3D
:101860000C79641E04EB84051F24AC40A04314686B
:101870006063088880B20C79641E04EB8404A04085
:101880001468646B20431468606331E048680D2875
:1018900017D21068006B0C79E41F04EB84051F2439
:1018A000AC40A04314682063088880B20C79E41F20
:1018B00004EB8404A0401468246B20431468206364
:1018C00016E01068C06A0C790D3C04EB84051F24F7
:1018D000AC40A0431468E062088880B20C790D3CEB
:1018E00004EB8404A0401468E46A20431468E062B6
:1018F0001E4B1F4C1068A0420AD10868122807D15D
:10190000586820F400005860586840F4800058601F
:10191000174C1068A04222D1164C0868A04202D091
:10192000086811281BD1586820F480005860586856
:1019300040F4000058600F4C0868A0420FD10E48D8
:1019400000680E4CB0FBF4F000EB8000400000900B
:1019500002E00098401E009000980028F9D100BFD6
:10196000002082F83C0000BF00BF41E70023014097
:1019700000200140120000106001002040420F00D2
:1019800070B5044600250CB9012070BD1549A06A48
:10199000884200D000BF206C30B9204600F024F807
:1019A0000020606484F83C00206C00F0100088B9CE
:1019B000206C20F4885040F0020020642046FFF79D
:1019C0006BFC00206064206C20F0020040F00100FD
:1019D000206400E0012500BF002084F83C0000BF27
:1019E0002846D2E70100000F10B586B00446142146
:1019F00001A8FEF72CFD2C492068884251D100BF78
:101A0000002000902948006840F480602749086061
:101A10000846006800F48060009000BF00BF00BF6F
:101A20000020009021481438006840F020001F4931
:101A3000143908600846006800F02000009000BFDC
:101A400000BF4FF4FF60019003200290002003903C
:101A500001A9174800F0DCF916481749086080050D
:101A60004860002114488160C1604FF480610161C9
:101A700049004161890081614911C16149020162E6
:101A800004214162012181620021C162016300F0F1
:101A900035F908B1FFF720FE00BF0748A063846353
:101AA00000BF06B010BD00000022014044380240D3
:101AB000001402401064024050110220F8B50446A0
:101AC000002000908C4800684FF41651B0FBF1F7ED
:101AD000A56D2E6894F85C1008208840304098B1BD
:101AE0002068006800F0040070B12068006820F0F1
:101AF00004002168086094F85C1008208840A86001
:101B0000606D40F00100606594F85C100120884031
:101B1000304068B12068406900F0800040B194F81E
:101B20005C1001208840A860606D40F00200606594
:101B300094F85C1004208840304068B12068006848
:101B400000F0020040B194F85C1004208840A860C6
:101B5000606D40F00400606594F85C1010208840CF
:101B6000304078B32068006800F0080050B394F863
:101B70005C1010208840A8602068006800F4802075
:101B800080B12068006800F4002028B9206CC8B13A
:101B90002046216C884715E0A06C98B12046A16CC6
:101BA00088470FE02068006800F4807028B920683A
:101BB000006820F0080021680860206C10B1204601
:101BC000216C884794F85C10202088403040002821
:101BD00065D02068006800F0100000285FD094F8FD
:101BE0005C1020208840A86094F83500052828D192
:101BF0002068006820F016002168086020684069AD
:101C000020F0800021684861206C08B9A06C28B1E0
:101C10002068006820F008002168086094F85C10D3
:101C20003F208840A860012084F8350000BF0020D4
:101C300084F8340000BF206D10B12046216D884724
:101C4000F8BD2068006800F4802080B1206800683A
:101C500000F4002028B9606C10B12046616C884700
:101C60001DE0E06BD8B12046E16B884717E02068A3
:101C7000006800F4807068B92068006820F01000E7
:101C800021680860012084F8350000BF002084F836
:101C9000340000BFE06B10B12046E16B8847606DF7
:101CA00038B3606D00F00100F0B1052084F8350014
:101CB0002068006820F001002168086000BF0098DB
:101CC000401C0090B84200D905E02068006800F090
:101CD00001000028F3D100BF012084F8350000BFC7
:101CE000002084F8340000BFE06C10B12046E16CA5
:101CF000884700BFA4E70000600100202DE9F04103
:101D00000446002500F09CF9074614B90120BDE8FF
:101D1000F081606A00B100BF022084F8350000BF86
:101D2000002084F8340000BF2068006820F0010023
:101D3000216808600AE000F083F9C01B052805D976
:101D400020206065032084F83500E0E72068006803
:101D500000F001000028EED1206805682148054008
:101D6000D4E901010843E168084321690843616936
:101D70000843A1690843E1690843216A0843054310
:101D8000606A042803D1D4E90B01084305432068A5
:101D900005602068456925F00705606A0543606AAB
:101DA00004280DD1A06A0543E06A48B12046FFF738
:101DB0003DFC28B140206065012084F83500A6E78D
:101DC000206845612046FFF717FC064694F85C1032
:101DD0003F208840B06000206065012084F8350015
:101DE000002094E73F8010F070B5044600F028F919
:101DF00006462546681C10B104480078054400BF1B
:101E000000F01EF9801BA842FAD370BD5C010020CF
:101E1000F8B502460B460025002400200021E0E032
:101E2000012606FA01F51E6806EA0504AC4274D1E3
:101E30001E7906F00306012E04D01E7906F0030673
:101E4000022E13D190684F000326BE40B0434F00CE
:101E5000DE68BE4030439060506801268E40B0433B
:101E60001E79C6F300168E40304350601E7906F08E
:101E70000306032E09D0D0684F000326BE40B043AE
:101E80004F009E68BE403043D0601E7906F00306C6
:101E9000022E13D1CF0802F1200656F827004E0774
:101EA000F70E0F26BE40B0434F07FF0E1E69BE401F
:101EB0003043CF0802F1200646F8270010684F0093
:101EC0000326BE40B0431E7906F003064F00BE4015
:101ED000304310605E6806F44036002E1DD000BF0F
:101EE00000260096414E366846F480463F4F3E60DD
:101EF0003E46366806F48046009600BF00BF3C4E62
:101F00008F0856F827008E07370F0F26BE40B043C4
:101F1000384EB24202D100262EE061E0364EB24287
:101F200001D1012628E0354EB24201D1022623E03C
:101F3000334EB24201D103261EE0324EB24201D1ED
:101F4000042619E0304EB24201D1052614E02F4E8E
:101F5000B24201D106260FE02D4EB24201D1072632
:101F60000AE02C4EB24201D1082605E02A4EB242C8
:101F700001D1092600E00A268F073F0FBE403043FB
:101F80001B4E8F0846F82700244E3068A0435E6839
:101F900006F4801606B12043204E3060361D3068AE
:101FA000A0435E6806F4001606B120431B4E361DA2
:101FB00030601A4E361F3068A0435E6806F4003663
:101FC00006B12043154E361F3060361F3068A043DF
:101FD0005E6806F4803606B12043104E083E30603D
:101FE000491C1029FFF41CAFF8BD00004438024022
:101FF000083801400000024000040240000802408E
:10200000000C024000100240001402400018024080
:10201000001C02400020024000240240083C014015
:1020200010B5426921EA020302EA010443EA0443CB
:10203000836110BD0AB1816101E00B0483617047C7
:102040000148006870470000540100200348006800
:102050000349097808440149086070475401002089
:102060005C01002010B50D48006840F400700B4979
:1020700008600846006840F4806008600846006810
:1020800040F480700860032000F0ACF80F2000F0EE
:1020900007F800F02BF8002010BD0000003C0240C3
:1020A00070B504460E4800784FF47A71B1FBF0F039
:1020B0000C490968B1FBF0F5284601F09FFB08B117
:1020C000012070BD102C07D200222146501E00F0C6
:1020D0004BF80548046001E00120F2E70020F0E73A
:1020E0005C010020600100205801002008B500BFFD
:1020F000002000901148006840F480400F490860BB
:102100000846006800F48040009000BF00BF00BF98
:1021100000200090081F006840F08050091F0860F0
:102120000846006800F08050009000BF00BF002209
:102130000F21901E00F018F808BD0000443802403E
:102140000146084600280DDB00BF00BF00F01F035A
:1021500001229A4043099B0003F1E023C3F80021C8
:1021600000BF00BF00BF70472DE9F05F80460D46FD
:102170001646002705F018F9074639462A46334621
:1021800001F00700C0F1070ABAF1040F02D94FF0BD
:10219000040A01E0C0F1070AD14600F1040ABAF1CD
:1021A000070F02D24FF0000A01E0A0F1030AD44663
:1021B0004FF0010A0AFA09FAAAF1010A0AEA020A28
:1021C0000AFA0CFA4FF0010B0BFA0CFBABF1010B06
:1021D0000BEA030B4AEA0B042146404605F0ECF8F3
:1021E000BDE8F09F00BF00F00702064B19684FF6EC
:1021F000FF031940044B0B4343EA0221014B1960D2
:1022000000BF70470CED00E00000FA057047024681
:102210001068416200207047F0B503461546186803
:10222000446A21B944EA05401E68B06219E01868A2
:10223000806A04EB1044002208E0186800F5827000
:1022400050F8220004EB1044501CC2B2481E9042C9
:10225000F3D844EA0547186800F582704E1E40F82E
:1022600026700020F0BD10B50446D4F8E00403F059
:10227000CBFA10BD70B504460D4605EBC50304F15D
:10228000140101EB8301CA682946D4F8E00403F085
:10229000B6F970BD70B504460D4605EBC50304F5EF
:1022A000157101EB8301CA682946D4F8E00403F0F4
:1022B0002AFA70BD10B50446D4F8E00403F0A7FA7A
:1022C00010BD2DE9F04104460D4605F08000802840
:1022D00008D105F00F0000EBC00104F1140000EB81
:1022E000810607E005F00F0000EBC00104F5157052
:1022F00000EB81063146206804F030FD0746384681
:10230000BDE8F08170B504460E4606F080008028D6
:102310000AD106F00F0000EBC00104F1140000EB3D
:1023200081050120687009E006F00F0000EBC00194
:1023300004F5157000EB81050020687006F00F00B1
:10234000287000BF94F89404012801D1022070BDC8
:10235000012084F8940400BF2946206804F092F814
:1023600000BF002084F8940400BF00BFEFE770B501
:1023700004460E4606F00F002179884201D901205B
:1023800070BD06F0800080280AD106F00F0000EB37
:10239000C00104F1140000EB81050120687009E020
:1023A00006F00F0000EBC00104F5157000EB81058D
:1023B000002068700020A87006F00F00287000BF91
:1023C00094F89404012801D10220D9E7012084F86F
:1023D000940400BF2946206804F052FA00BF002090
:1023E00084F8940400BF00BFCAE7024601F00F0062
:1023F00000EBC00302F5157000EB830040697047E5
:102400002DE9F04705460E4690461F464FF000095D
:1024100006F0800080280AD106F00F0000EBC00112
:1024200005F1140000EB81040120607009E006F062
:102430000F0000EBC00105F5157000EB81040020D2
:10244000607006F00F002070C4F808802771607873
:1024500008B120786083022F01D10020607100BF95
:1024600095F89404012802D10220BDE8F0870120EC
:1024700085F8940400BF2146286803F017FF00BFC9
:10248000002085F8940400BF4846EEE72DE9F041AE
:1024900005460E461746984606F00F0000EBC001B1
:1024A00005F5157000EB8104E760C4F8108000208A
:1024B0006061607006F00F002070A879012800D1DB
:1024C000E761AA792146286804F06EFA0020BDE889
:1024D000F08170B504460D4605F00F002179884261
:1024E00001D9012070BD05F0800080280AD105F0D7
:1024F0000F0000EBC00104F1140000EB8106012085
:10250000707007E005EBC50104F5157000EB81065E
:10251000002070700120B07005F00F00307000BF17
:1025200094F89404012801D10220DBE7012084F80B
:10253000940400BF3146206804F0E9F905F00F006B
:1025400028B9A17904F29C42206804F061F900BF27
:10255000002084F8940400BF00BFC3E72DE9F041D8
:1025600005460E461746984606F00F0000EBC001E0
:1025700005F1140000EB8104E760C4F8108000202E
:1025800060610120607006F00F002070A8790128BA
:1025900000D1E761AA792146286804F005FA0020F5
:1025A000BDE8F0812DE9FE4F0446D4F800B05E4648
:1025B000206804F0B5FC002874D1206804F0EFFC1A
:1025C00008B9BDE8FE8F40F608008059C0F30D2021
:1025D000C4F8D404206804F0E2FC00F002000228F1
:1025E00005D12068406900F0020021684861206838
:1025F00004F0D5FC00F01000102845D12068806957
:1026000020F0100021688861DBF8209009F00F00AD
:1026100000EBC00104F5157000EB810AC9F34340DB
:1026200002281AD147F6F07009EA000030B3C9F366
:102630000A125846DAF80C1004F0B6FCC9F30A1175
:10264000DAF80C000844CAF80C00C9F30A11DAF8E9
:1026500014000844CAF8140010E0C9F343400628E7
:102660000CD1082204F29C41584604F09DFCC9F3A9
:102670000A11DAF814000844CAF8140020688069C6
:1026800040F0100021688861206804F088FC00F4A4
:102690000020B0F5002F7BD10025206804F04FFC0E
:1026A000029072E0E1E2029800F00100002868D098
:1026B000E9B2206804F066FC804608F0010048B1E9
:1026C000012106F5306000EB451081602946204667
:1026D00001F048FD08F00800082809D1082106F596
:1026E000306000EB451081602946204601F008FD6E
:1026F00008F01000102805D1102106F5306000EB1D
:102700004510816008F00200022824D1DBF8140093
:1027100000F08000802807D140F60400805940F482
:10272000806140F60400815105EBC50104F5157088
:1027300000EB810A9AF80300012806D100208AF8EC
:102740000300E9B2204600F09BFA022106F5306052
:1027500000EB4510816008F02000202805D12021E1
:1027600006F5306000EB4510816008F40050B0F5CC
:10277000005F06D14FF4005106F5306000EB4510C4
:1027800081606D1C029840080290029800288AD14E
:10279000206804F004FC00F48020B0F5802F7DD187
:1027A000206804F0C2FB029000259AE0029800F035
:1027B0000100002873D0E9B2206804F0CAFB80460B
:1027C00008F00100F0B305F00F01012088400190EE
:1027D00040F634008159019821EA000040F63401A6
:1027E0008851012106F5106000EB45108160A07949
:1027F000012824D105EBC50104F1140000EB810090
:1028000005EBC502C16804F1140000EB820080688A
:10281000014405EBC50204F1140000EB8200C16025
:102820006DB905EBC50104F1140000EB81000069EE
:1028300028B904F29C420121206803F0E9FFE9B2C3
:10284000204600E001E0FFF715FD08F00800082829
:1028500005D1082106F5106000EB4510816008F0F5
:102860001000102805D1102106F5106000EB45106E
:10287000816008F04000402805D1402106F5106035
:1028800000EB4510816008F0020002281DD12946A6
:10289000584604F008FB05EBC50101E025E01CE00B
:1028A00004F1140000EB810A9AF80300012806D114
:1028B00000208AF80300E9B2204600F0D8F902218E
:1028C00006F5106000EB4510816008F0800080285C
:1028D00003D12946204601F0E7FC6D1C0298400810
:1028E0000290029800287FF461AF206804F057FB43
:1028F00000F00040B0F1004F1CD140F604008059B8
:1029000020F0010140F60400815194F8CC04012824
:1029100007D1002084F8CC0400212046FFF776FC84
:1029200002E0204600F0D6FA2068406900F000403E
:1029300021684861206804F032FB00F40060B0F5C3
:10294000006F0ED140F60800805900F0010010B170
:10295000204600F017FB2068406900F40060216801
:102960004861206804F01BFB00F48050B0F5805FE4
:102970007ED140F60400805920F0010140F60400A9
:1029800081511021206804F08EFA002732E04FF6C2
:102990007F3106F5106000EB4710816006F510608E
:1029A00000EB4710006820F4001106F5106000EB02
:1029B000471001604FF67F3106F5306000EB47109D
:1029C000816006F5306000EB4710006820F40011CC
:1029D00006F5306000EB4710016006F5306000EB53
:1029E0004710006840F0006106F5306000EB4710CA
:1029F00001607F1C2079B842C9D840F61C0080597C
:102A000040F0011140F61C008151E07B70B1D6F816
:102A1000840840F00B01C6F8841840F64400805941
:102A200040F00B0140F6440081510FE040F61400E5
:102A3000805942F22B01084340F614018851081FC7
:102A4000805940F00B014FF401608151D6F8000825
:102A500020F4FE60C6F80008A17904F29C422068C8
:102A600003F0D6FE2068406900F48050216800E041
:102A700000E04861206804F092FA00F40050B0F5DC
:102A8000005F17D1206803F079FC206804F035FA64
:102A9000E07100F053FB0090E2792068009904F0A7
:102AA00005FB204600F0FEF92068406900F4005064
:102AB00021684861206804F072FA00F008000828D4
:102AC00008D1204600F00DFA2068406900F00800A7
:102AD00021684861206804F062FA00F080008028D4
:102AE00018D1DBF8180020F08000CBF81800012581
:102AF0000DE005EBC50104F5157000EB8100C07811
:102B0000012803D1E9B22046FFF7DBFB6D1C2079D9
:102B1000A842EED8206804F042FA00F48010B0F524
:102B2000801F2DD1012522E006F5106000EB451035
:102B3000D0F8009005EBC50104F1140000EB810012
:102B40000079012812D109F00040B0F1004F0DD1F9
:102B5000012105EBC50204F1140000EB8200C170F5
:102B6000E8B240F080012046FFF7ABFB6D1C2079F6
:102B7000A842D9D82068406900F4801021684861D3
:102B8000206804F00CFA00F40010B0F5001F44D1E6
:102B9000012538E006F5306000EB4510D0F80090D4
:102BA00005EBC50104F5157000EB810000790128E3
:102BB00028D109F00040B0F1004F23D109F4803052
:102BC00094F8D41401F0010188421BD1012105EBD6
:102BD000C50204F5157000EB8200C170DBF8180027
:102BE00040F08000CBF81800DBF8140000F0800003
:102BF00040B940F60400805940F4007140F60400EA
:102C0000815103E06D1C2079A842C3D800BF206821
:102C1000406900F4001021684861206804F0BFF9A1
:102C200000F08040B0F1804F08D12046FFF71BFB39
:102C30002068406900F0804021684861206804F005
:102C4000AEF900F0040004280FD12068D0F80490F9
:102C500009F00400042802D12046FFF72BFB20686E
:102C6000406840EA09002168486000BFA9E470B5E7
:102C700004460D462946D4F8E00402F045FE70BD36
:102C800070B504460D462946D4F8E00402F060FE13
:102C900070BDF8B504460CB90120F8BD266894F85B
:102CA000950428B9002084F89404204600F0A0F888
:102CB000032084F89504B6F1A04F01D10021A17141
:102CC000206803F09DFD207C8DF8000094E80F0043
:102CD00003F068FB20B1022084F895040120DCE7B2
:102CE0000021206804F090F920B1022084F89504B6
:102CF0000120D2E7002531E0012105EBC50204F1F6
:102D0000140000EB8200417005EBC50104F11400D2
:102D100000F8215005EBC50100EB8100458300213F
:102D200005EBC50204F1140000EB8200017105EB14
:102D3000C50204F1140000EB8200816005EBC502BE
:102D400004F1140000EB8200C16005EBC50204F140
:102D5000140000EB82000161681CC5B22079A84212
:102D6000CADC00252AE0002105EBC50204F5157038
:102D700000EB8200417005EBC50104F5157000F809
:102D80002150002105EBC50200EB8200017105EB2B
:102D9000C50204F5157000EB8200816005EBC502E9
:102DA00004F5157000EB8200C16005EBC50204F567
:102DB000157000EB82000161681CC5B22079A84241
:102DC000D1DC207C8DF8000094E80F0003F024FC97
:102DD00020B1022084F8950401205EE70020607491
:102DE000012084F89504206803F004FC002054E7D7
:102DF00010B586B00446142101A8FDF728FB26492A
:102E00002068884246D100BF002000902348006817
:102E100040F00200214908600846006800F0020006
:102E2000009000BF00BF4FF440400190022002908C
:102E300000200390032004900C20059001A918485D
:102E4000FEF7E6FF00BF002000901448006840F045
:102E50000050124908600846006800F000500090D9
:102E600000BF00BF002205214A20FFF77DF94A205C
:102E7000FFF766F9002205214B20FFF775F94B207B
:102E8000FFF75EF9002205214D20FFF76DF94D2077
:102E9000FFF756F906B010BD00000440303802407C
:102EA0000004024070B504460125E07908B9002508
:102EB00006E0E079022801D1012501E0FEF70CFCD3
:102EC0002946D4F8E00402F0ECFDD4F8E00402F066
:102ED00093FD70BD10B50446D4F8E00402F0C2FDC5
:102EE00010BD10B50446D4F8E00402F0C6FD10BDD4
:102EF00070B504460D4600BF94F89404012801D132
:102F0000022070BD012084F8940400BF6574294636
:102F1000206804F0ADF800BF002084F8940400BFDE
:102F200000BFEEE710B5044604F29C41D4F8E0047B
:102F300002F0CEFD10BD70B50446256800BF94F8C0
:102F40009404012801D1022070BD012084F894046A
:102F500000BFE86800F0400030B1607B012803D179
:102F6000A86B40F48030A863206803F06DFF2068F0
:102F700003F02EFB00BF002084F8940400BF00BFC4
:102F8000E2E7000010B50446D4F8E00402F0FDFDCD
:102F90002068D0F8000E40F001002168C1F8000E52
:102FA000E07A28B10348006840F006000149086053
:102FB00010BD000010ED00E070B504460D460CB9E0
:102FC000012070BD5848006800F00F00A84209D2E7
:102FD00055490D700846006800F00F00A84201D066
:102FE0000120EEE7207800F0020002281DD12078B1
:102FF00000F00400042805D14C48006840F4E0507B
:103000004A490860207800F00800082805D14748A0
:10301000006840F46040454908604448006820F07A
:10302000F000A168084341490860207800F00100E1
:10303000A8B36068012807D13C4808380068C0F38D
:103040004040B8B90120BCE76068022802D060683F
:10305000032807D1354808380068C0F3406048B9F4
:103060000120AEE7314808380068C0F3400008B9D5
:103070000120A6E72D48006820F00300616808439E
:103080002A490860FEF7DCFF064609E0FEF7D8FF94
:10309000801B41F28831884202D9032091E707E082
:1030A0002248006800F00C006168B0EB810FEDD1A0
:1030B0001D48006800F00F00A84209D91A490D7098
:1030C0000846006800F00F00A84201D0012078E710
:1030D000207800F00400042807D11448006820F488
:1030E000E050E168084311490860207800F00800CA
:1030F000082808D10D48006820F46040216940EAA2
:10310000C1000A49086000F01FF808490968C1F3C6
:103110000311074A515CC840064908600648006828
:10312000FEF7BEFF00204CE7003C0240083802409A
:103130006C3102086001002058010020014800683D
:1031400070470000600100202DE9F04700240025B1
:103150000026A1462548006800F00C0020B1042894
:1031600005D008283AD105E0DFF8849039E0DFF88F
:10317000849036E01D48001F006800F03F041B48A3
:10318000001F006800F4800078B11A481749091F31
:103190000968C1F38811A0FB017001462246002393
:1031A0003846FDF79BF805460EE011480F49091F08
:1031B0000968C1F38811A0FB017001462246002373
:1031C0003846FDF78BF805460848001F0068C0F335
:1031D0000140401C4600B5FBF6F902E0DFF8109014
:1031E00000BF00BF4846BDE8F08700000838024035
:1031F0000024F40040787D01F8B504460CB90120A4
:10320000F8BD207800F00100002874D0F94800686B
:1032100000F00C0004280DD0F648006800F00C0007
:10322000082813D1F348001F006800F48000B0F5AF
:10323000800F0BD1EF4808380068C0F340400028E9
:1032400059D06068002856D10120D9E700BF6068D6
:10325000B0F5803F08D1E7480838006840F4803076
:10326000E449083908601EE06068B0F5A02F0DD170
:10327000E0480838006840F48020DE4908390860DA
:103280000846006840F4803008600CE0D9480838EF
:10329000006820F48030D749083908600846006883
:1032A00020F48020086000BF606890B1FEF7C8FE7F
:1032B000054606E0FEF7C4FE401B642801D9032042
:1032C0009EE7CC4808380068C0F340400028F1D0A1
:1032D00011E0FEF7B5FE054606E0FEF7B1FE401B25
:1032E000642801D903208BE7C24808380068C0F37E
:1032F00040400028F1D1207800F0020002285FD180
:10330000BC48006800F00C0058B1BA48006800F0F2
:103310000C0008281CD1B748001F006800F480008A
:10332000B0B9B44808380068C0F3400020B1E06884
:10333000012801D0012063E7AE480838006820F07A
:10334000F800216940EAC100AA490839086037E05D
:10335000E06800B30120A8490860FEF771FE054649
:1033600006E0FEF76DFE401B022801D9032047E767
:10337000A04808380068C0F340000028F1D09D48FC
:103380000838006820F0F800216940EAC100994936
:103390000839086014E0002097490860FEF750FEE5
:1033A000054606E0FEF74CFE401B022801D903202B
:1033B00026E7904808380068C0F340000028F1D1A3
:1033C000207800F0080008282CD16069A8B10120FD
:1033D0008A490860FEF734FE054606E0FEF730FE37
:1033E000401B022801D903200AE782486C3000689C
:1033F000C0F340000028F1D014E000207F490860AD
:10340000FEF71EFE054606E0FEF71AFE401B0228E8
:1034100001D90320F4E677486C300068C0F340001F
:103420000028F1D1207800F00400042870D1002792
:1034300070483830006800F0805090B900BF00201C
:1034400000906C483830006840F08050694938314D
:1034500008600846006800F08050009000BF00BF80
:1034600001276748006800F48070B0B964480068BC
:1034700040F4807062490860FEF7E2FD054606E010
:10348000FEF7DEFD401B022801D90320B8E65C48A8
:10349000006800F480700028F2D000BFA068012806
:1034A00008D154486830006840F001005149683143
:1034B00008601DE0A06805280DD14E4868300068FE
:1034C00040F004004B49683108600846006840F04D
:1034D000010008600CE047486830006820F00100F7
:1034E0004449683108600846006820F0040008601C
:1034F00000BFA068A8B1FEF7A3FD054609E0FEF7EE
:103500009FFD401B41F28831884202D9032077E6B3
:1035100026E0384868300068C0F340000028EED04C
:1035200013E0FEF78DFD054608E0FEF789FD401B20
:1035300041F28831884201D9032061E62D48683084
:103540000068C0F340000028EFD1012F07D12948BF
:103550003830006820F0805026493831086000BFBC
:10356000A069002845D02348006800F00C00082816
:103570005DD0A069022845D100201F490866FEF7EA
:103580005FFD054606E0FEF75BFD401B022801D902
:10359000032035E6174808380068C0F3406000286B
:1035A000F1D1D4E907010843616A40EA811101229F
:1035B000A06AC2EB500041EA00412C20005D41EAC4
:1035C00000600C49091F086001200B490866FEF7DE
:1035D00037FD054606E0FEF733FD401B022801D902
:1035E00003200DE6034808380068C0F34060002857
:1035F000F1D049E00838024000004742800E4742BF
:1036000000700040002021490866FEF719FD0546BC
:1036100006E0FEF715FD401B022801D90320EFE567
:103620001B480068C0F340600028F2D12CE0A0697C
:10363000012800D1E4E51648001D0668A0690128AC
:1036400020D006F48001E06981421BD106F03F01E1
:10365000206A814216D147F6C0703040616AB0EBF3
:10366000811F0FD106F440310122A06AC2EB500045
:10367000B1EB004F06D106F070612C20005DB1EB7C
:10368000006F01D00120BBE50020B9E500004742F2
:103690000038024010B504460CB9012010BD606A24
:1036A00038B96068B0F5827F00D105E00021E161A2
:1036B00002E0002121616161A06AB0F5005F00D1E4
:1036C00000BF94F8510028B9002084F8500020462B
:1036D00000F050F8022084F851002068006820F0C3
:1036E000400021680860A08800F48270218901F4FC
:1036F00004410843A18901F400610843217C01F0E1
:1037000002010843217D01F001010843218B01F4EE
:1037100000710843217F01F0380108432021095D31
:1037200001F080010843218D01F400510843216814
:1037300008600421A06901EA104094F8241001F007
:103740001001084321684860A06AB0F5005F03D10A
:10375000A08D80B2216808612068C06920F40060F3
:103760002168C86100206065012084F851000020B4
:1037700094E7000010B586B00446142101A8FCF7B8
:1037800066FE1B49206888422FD100BF00200090B0
:103790001848006840F480501649086008460068E0
:1037A00000F48050009000BF00BF00BF00200090D8
:1037B00010481438006840F001000E4914390860C0
:1037C0000846006800F00100009000BF00BFA02084
:1037D0000190022002900020039003200490052015
:1037E000059001A90448FEF713FB06B010BD0000C8
:1037F00000300140443802400000024070B50446E9
:103800002546681EB0F1807F01D301200FE0681EBD
:103810004FF0E02148610F214FF0FF3003F0CCFD65
:1038200000204FF0E021886107200861002070BD72
:1038300010B504460CB9012010BD94F83D0028B91C
:10384000002084F83C00204600F026F8022084F88E
:103850003D00211D206800F055FF012084F846003E
:1038600000BF84F83E0001213F2001554020015552
:103870004120015500BF00BF012084F842004320D1
:103880000155442001554520015500BF012084F811
:103890003D000020D0E7000008B50A4A01689142C7
:1038A0000FD100BF002100910749096841F40031A0
:1038B000054A11601146096801F40031009100BF0A
:1038C00000BF08BD0044014044380240014691F861
:1038D0003D00012801D001207047022081F83D0001
:1038E0000868C06840F001000B68D8601A4B08688F
:1038F00098421BD00868B0F1804F17D0174B08686A
:10390000984213D0164B086898420FD0154B0868A0
:1039100098420BD0144B0868984207D0134B0868A4
:10392000984203D0124B086898420CD1086880680E
:1039300000F00702062A0CD00868006840F0010079
:103940000B68186005E00868006840F001000B682B
:1039500018600020C0E700000000014000040040A3
:1039600000080040000C00400004014000400140FD
:103970000018004000BFFEE730B50B46002100BF35
:1039800016E00A24B4EB107F05D9302404EB107440
:1039900003F8114005E0412404EB10740A3C03F8DD
:1039A0001140000100254C00641C1D554C1CE1B267
:1039B0009142E6DB30BD000030B52DED048B83B0C5
:1039C000B0EE408AF0EE608A04460D46221C45F5B2
:1039D00000104FF48001524281410FD32046294606
:1039E000FCF7B9FF53EC182BFDF71AF804D80120A7
:1039F00003B0BDEC048B30BD0020F9E7022168461E
:103A0000B0EE480AF0EE680A14F064FF48B1DDE950
:103A10000010611A75EB000001DB0120E8E70020CF
:103A2000E6E79FED060B53EC102B51EC180BFCF75F
:103A3000DFFF01D20120DBE70020D9E70000000012
:103A40000000000030B52DED048B83B004460D4618
:103A5000B0EE408AF0EE608A221C45F500104FF46B
:103A60008001524281410FD320462946FCF773FF63
:103A700053EC182BFCF7BCFF04D8012003B0BDECBD
:103A8000048B30BD0020F9E701216846B0EE480AFA
:103A9000F0EE680A14F01EFF40B1DDE90010091BCA
:103AA000A84101DB0120E9E70020E7E79FED060BD5
:103AB00053EC102B51EC180BFCF7B2FF01D2012094
:103AC000DCE70020DAE70000000000000000000052
:103AD0002DE9F0412DED028B05460C46287A03288E
:103AE0001BD1D5E90067207A03280BD1D4E9001057
:103AF000891BB84104DB0120BDEC028BBDE8F081DD
:103B00000020F9E794ED001BB0EE410AF0EE610AE7
:103B100030463946FFF796FFEEE795ED000BB0EE25
:103B2000408AF0EE608A207A132810D194ED001BB1
:103B3000B0EE410AF0EE610A53EC102B51EC180B79
:103B4000FCF756FF01D80120D6E70020D4E7D4E9DE
:103B500000211046B0EE480AF0EE680AFFF72CFF8D
:103B6000CAE7000030B52DED048B83B0B0EE408A7B
:103B7000F0EE608A04460D46221C45F500104FF415
:103B80008001524281410FD320462946FCF7E3FED3
:103B900053EC182BFCF744FF04D2012003B0BDEC1A
:103BA000048B30BD0020F9E701216846B0EE480AD9
:103BB000F0EE680A14F08EFE40B1DDE90010091B3A
:103BC000A84101DA0120E9E70020E7E79FED060BB5
:103BD00053EC102B51EC180BFCF70AFF01D201201B
:103BE000DCE70020DAE70000000000000000000031
:103BF00030B52DED048B83B004460D46B0EE408AFF
:103C0000F0EE608A221C45F500104FF4800152420C
:103C100081410FD320462946FCF79DFE53EC182B1B
:103C2000FCF7E6FE04D2012003B0BDEC048B30BDEE
:103C30000020F9E702216846B0EE480AF0EE680A73
:103C400014F048FE48B1DDE90010611A75EB000080
:103C500001DA0120E8E70020E6E79FED060B53ECD0
:103C6000102B51EC180BFCF7DBFE01D20120DBE737
:103C70000020D9E700000000000000002DE9F0411D
:103C80002DED028B05460C46287A03281CD1D5E978
:103C90000067207A03280CD1D4E90010711A77EB61
:103CA000000004DA0120BDEC028BBDE8F0810020A9
:103CB000F9E794ED001BB0EE410AF0EE610A3046E0
:103CC0003946FFF795FFEEE795ED000BB0EE408A21
:103CD000F0EE608A207A132810D194ED001BB0EE2C
:103CE000410AF0EE610A53EC102B51EC180BFCF773
:103CF0007FFE01D20120D6E70020D4E7D4E90021DD
:103D00001046B0EE480AF0EE680AFFF72BFFCAE74C
:103D10001FB5002000900190029003903B483C4961
:103D2000086000204860002139488160012101615C
:103D30000021017680F82010C1623649816200219D
:103D4000C1600821C161012180F830104161FDF797
:103D500017FE08B1FDF7C0FC06200090012001907D
:103D60000620029069462A48FDF738FD08B1FDF7A4
:103D7000B3FC072000900220019069462448FDF71B
:103D80002DFD08B1FDF7A8FC05200090032001904F
:103D900069461F48FDF722FD08B1FDF79DFC042090
:103DA0000090019069461A48FDF718FD08B1FDF72B
:103DB00093FC0F2000900520019069461448FDF700
:103DC0000DFD08B1FDF788FC0E2000900620019043
:103DD00069460F48FDF702FD08B1FDF77DFC09209B
:103DE00000900720019069460948FDF7F7FC08B1EB
:103DF000FDF772FC08200090019069460448FDF729
:103E0000EDFC08B1FDF768FC1FBD00000022014079
:103E1000081102200100000F08B500BF002000902B
:103E20000A48006840F480000849086008460068B5
:103E300000F48000009000BF00BF00220521382060
:103E4000FEF792F93820FEF77BF908BD30380240C2
:103E500010B5144817F06BFD13490860134A04218C
:103E6000082017F0A3FC12490860124A00211248EA
:103E700017F0DDFD11490860114A0021114817F0C3
:103E8000D6FD11490860114A0021114817F0CFFDF5
:103E900010490860104A0021104817F0C8FD104969
:103EA000086010BD34310208280000201C310208CF
:103EB000240000208C30020817460008140000205F
:103EC000B03002086D17020818000020D430020834
:103ED0003D1902081C000020F83002086143000868
:103EE0002000002000B587B0142102A8FCF7AFFA2B
:103EF00000BF002001903548006840F004003349BD
:103F000008600846006800F00400019000BF00BF90
:103F100000BF002001900846006840F020000860C3
:103F20000846006800F02000019000BF00BF00BFFD
:103F3000002001900846006840F0800008600846B4
:103F4000006800F08000019000BF00BF00BF0020AB
:103F500001900846006840F00100086008460068CB
:103F600000F00100019000BF00BF00BF00200190E1
:103F70000846006840F0020008600846006800F04B
:103F80000200019000BF00BF00BF00200190084662
:103F9000006840F0080008600846006800F008006B
:103FA000019000BF00BF002289140948FEF742F8C3
:103FB0004FF480500290012003900020049005905F
:103FC00002A90348FDF724FF07B000BD30380240C6
:103FD000000C024010B51148114908604FF482707E
:103FE00048604FF400410E4881600911C160022110
:103FF0000161002141614FF4007181610821C161BB
:104000000021016241624FF4005181620721C162C7
:10401000FFF740FB08B1FDF75FFB10BD003001402A
:10402000B011022010B50A480A490860092048600A
:1040300000210848816040F25721C16000210161E0
:104040008161FFF7F5FB08B1FDF746FB10BD0000ED
:10405000004401400812022010B501220D490E480B
:1040600001F08AFA08B1FDF737FB0C490A4801F064
:10407000CDFD08B1FDF730FB0949074800F088FE87
:1040800008B1FDF729FB044801F0C2FE08B1FDF7B5
:1040900023FB10BDE8000020501202207401002014
:1040A0004001002000BFFEE700BFFEE74FF0E02028
:1040B00041698069081A70474FF0E0204069401C50
:1040C00070474FF0E0200069C0F3004070470000E7
:1040D00010B50248FEF766FA10BD00006C250220FC
:1040E00010B50248FEF75EFA10BD00006C250220F4
:1040F00010B50248FEF756FA10BD00006C250220EC
:104100002DE9F04704460D4626683746D6F840802C
:1041100007F5306000EB4510D0F808901048804556
:104120000BD909F40040B0F5004F06D14FF400411F
:1041300007F5306000EB451081602046FEF7F2FE87
:104140000748804508D9A079012805D104F29C428E
:104150000121206802F05CFB0020BDE8F087000030
:104160000A30544F2DE9F04705460C46D5F800902B
:104170004E46D9F840A006F5306000EB4410D0F868
:104180000880A879012855D108F0080008280FD127
:10419000434882450BD908F40040B0F5004F7BD16D
:1041A0004FF4004106F5306000EB4410816073E08D
:1041B00008F02000202806D1202106F5306000EB11
:1041C0004410816068E008F02800002864D1344879
:1041D00082450CD908F40040B0F5004F07D14FF4E8
:1041E000004106F5306000EB4410816054E004EBC0
:1041F000C40105F5157000EB810706F5306000EB92
:104200004410396A0069C0F31200081A786164B971
:10421000386930B905F29C420121286802F0F8FAA9
:1042200003E07969F8680844F860E1B22846FEF7CF
:1042300031F831E01B4882451BD108F40040B0F54D
:10424000004F07D14FF4004106F5306000EB4410F9
:10425000816021E008F02000202805D1202106F50A
:10426000306000EB44108160E1B22846FEF712F89E
:1042700012E06CB904EBC40105F5157000EB810088
:10428000006928B905F29C420021286802F0C0FAB2
:10429000E1B22846FDF7FEFF0020BDE8F0870000F0
:1042A0000A30544F0A31544F2DE9F84F07460E4655
:1042B000D7F80090C84606EBC60107F1140000EBE2
:1042C0008104D4E90410884202D90120BDE8F88FA6
:1042D000D4E90401451AA068A84200D2A568E81CE8
:1042E0004FEA900A17E0D4E90401451AA068A842F1
:1042F00000D2A568E81C4FEA900AB879ABB2F2B2D6
:1043000000904846E16802F045FFE0682844E0601C
:1043100060692844606108F5106000EB4610806910
:1043200080B2504506D3D4E90410884202D22069F5
:104330000028D8D1D4E9040188420ED806F00F0134
:10434000012000FA01FB40F6340050F8080020EA92
:104350000B0040F6340141F808000020B6E70000E9
:104360001CB50021234815F037FC04461CB122A0DF
:1043700002F0C6FF02E026A002F0C2FF00212046A4
:1043800015F067F920460FF0ABFB28A120460FF08F
:1043900065FB40B9002000900346421E0146019093
:1043A000204615F0EBFC88219FED260B20460FF0F0
:1043B0008FF902220021204615F090F800222349AF
:1043C00020460FF05BFC22A1204615F0F9FE25499E
:1043D00020460FF043FB40B9002000900346421EE8
:1043E00001460190204615F0C9FC00BF642017F07B
:1043F00025F9FBE7DDDF01084C756120537461741A
:104400006520437265617465642E0D0A000000002A
:104410004C756120537461746520437265617465E5
:10442000204661696C6564210D0A00007072696E36
:104430007428274E616973752C204C7561212729DA
:10444000000000000000000000807F4044310208AE
:1044500070726573737572655F746573746C69628D
:1044600000000000F839020870B504462046FCF749
:1044700003F8401CC5B223462A4600210846FCF733
:10448000DFFF70BD10B502F0A9FE10BD2DE9F041AF
:104490000746884600BF1A48007808B902F09EFE19
:1044A00000BFEFF311810846202181F3118800BF7E
:1044B00000BF07EB47021249183101EBC204E16863
:1044C0004D1CA168A94200D100256169022903D1D0
:1044D00000BF2169A942FCD02169A94206D0E26847
:1044E000616801F80280E560012600E00026C1B2A3
:1044F00081F3118800BF00BF3046BDE8F0810000A5
:104500004C7502202DE9F0470746894600BF3B481D
:10451000007808B902F062FE00BF102F68DADFF8F9
:10452000DC8008F118084846FBF7A6FF0646EFF3C3
:1045300011808246202080F3118800BF00BF4046D2
:1045400002F084FE054698F8140000F0030020B144
:10455000012817D0022840D12FE0301D854201D21A
:1045600000240EE03946404602F07EFE32464946BF
:10457000404602F08BFE044621480178404602F096
:1045800073FE2DE0042D02D24FF0FF3414E03946C3
:10459000404602F069FE281FB04201D9304600E0D3
:1045A000281F02464946404602F070FE0446144861
:1045B0000178404602F058FE12E03946404602F0CB
:1045C00053FE32464946404602F060FE04460C481F
:1045D0000178404602F048FE02E04FF0FF3400BF91
:1045E00000BF0AF0FF0080F3118800BF00BF01E0A8
:1045F0004FF0FF342046BDE8F08700004C750220E4
:104600009002002030B501460A461378521C1478F7
:1046100043EA042030BDFFF71FFD00BFC82017F09C
:104620000DF8FBE710B5FDF711FD1EF00BFA0128A0
:1046300001D01DF06DFC10BD00B593B0302107A86E
:10464000FBF705FF142102A8FBF701FF00BF0020C4
:1046500001902548006840F08050234908600846D2
:10466000006800F08050019000BF00BF00BF002034
:1046700001901E48006820F4404040F480401B49EF
:1046800008600846006800F44040019000BF00BF89
:10469000012007900004089002200D9041050E9122
:1046A0000F210F919021109102211191052112915A
:1046B00007A8FEF7A1FD08B1FDF70EF80F20029044
:1046C00002200390002004904FF4A05005904FF476
:1046D00080500690032102A8FEF76EFC08B1FCF79B
:1046E000FBFF13B000BD00004038024000700040E6
:1046F0000348006840F470000149086070470000FA
:1047000088ED00E010B502682D4B98420ED0B0F154
:10471000804F0BD02B4B984208D02B4B984205D0A2
:104720002A4B984202D02A4B984203D122F07002C1
:104730004B681A43224B984220D0B0F1804F1DD0D5
:10474000204B98421AD0204B984217D01F4B9842CA
:1047500014D01F4B984211D01E4B98420ED01E4BC6
:1047600098420BD01D4B984208D01D4B984205D063
:104770001C4B984202D01C4B984203D122F4407249
:10478000CB681A4322F080034C6943EA04020260BA
:104790008B68C3620B688362094B984202D00C4B52
:1047A000984201D10B69036301234361036903F05C
:1047B00001031BB1036923F00103036110BD000075
:1047C000000001400004004000080040000C0040D0
:1047D0000004014000400140004401400048014005
:1047E00000180040001C0040002000402DE9F0416E
:1047F00004460D46D4F8C87204F53070D4F8D412CB
:1048000050F8210010B90320BDE8F08104F53070A4
:10481000D4F8D41250F8216005F00F0000EB8001AD
:1048200004F1140000EB8100406838B305F00F007C
:1048300000EB800104F1140000EB8100416805F0F9
:104840000F0000EBC00207F1140000EB820080684B
:10485000B1FBF0F200FB121080B9002105F00F004F
:1048600000EB800204F1140000EB820041600023A1
:104870001A462946204601F096F917E00020C6F8AE
:10488000140204F53170D4F8D41250F821000069F4
:1048900060B1D6F8080204F53171D4F8D42251F889
:1048A00022102A460B6906F5047198470020ABE7F1
:1048B00070B504460E4604F53070D4F8D41250F8A2
:1048C0002150D4F8D41250F8210008B9032070BD4B
:1048D0003146204600F0AEFFC5F80C02D5F80402C0
:1048E00004F53171D4F8D42251F822103246CB6845
:1048F00005F5037198470020E9E7000070B504460C
:104900000D463B480178204600F066FE00213848FD
:10491000007800F00F0000EB800204F1140000EBBF
:104920008200018233480178204600F055FE0021C4
:104930003048007800F00F0000EB800204F5AA7008
:1049400000EB820001820321204600F045FE002199
:10495000A4F860108321204600F03EFE0021A4F858
:10496000A0118421204600F037FE0021A4F8B411E4
:1049700021480178204600F02FFE00211E480078D3
:1049800000F00F0000EB800204F1140000EB820045
:1049900001821948007800F00F0000EB800204F15A
:1049A000140000EB8200418204F53070D4F8D41278
:1049B00050F82100C8B104F53171D4F8D42251F86F
:1049C00022104868804704F53071D4F8D42251F899
:1049D000220001F063FC002104F53070D4F8D422E9
:1049E00040F822100020C4F8BC02002070BD000076
:1049F000F3010020F4010020F501002070B5044609
:104A000004F53070D4F8D41250F821500DB90320B9
:104A100070BD04F53170D4F8D41250F8210098B16B
:104A200095F80002FF280FD095F8012295F80002B2
:104A300004F53171D4F8D46251F826108B682946F8
:104A40009847FF2085F800020020E1E701460A2090
:104A50000880014870470000680100202DE9F041FE
:104A6000044682210D4800F059FC054601210B48FF
:104A700000F054FC06468121084800F04FFC074630
:104A80000DB11020A8710EB14020B0800FB14020B0
:104A9000B880432020800148BDE8F081B0010020AB
:104AA0002DE9F041044682210E4800F037FC05460E
:104AB00001210C4800F032FC06468121094800F033
:104AC0002DFC07460DB11020A87116B14FF40070EF
:104AD000B08017B14FF40070B880432020800148A7
:104AE000BDE8F081B00100202DE9F04104468221AB
:104AF0000D4800F013FC054601210B4800F00EFCA8
:104B000006468121084800F009FC07460DB1102037
:104B1000A8710EB14020B0800FB14020B880432072
:104B200020800148BDE8F081B001002070B5044646
:104B30000E464FF4077001F0B3FB054645B900215E
:104B400004F53070D4F8D42240F82210022070BD51
:104B50004FF407712846FBF77AFC04F53070D4F85F
:104B6000D41240F82150D4F8D41250F82100C4F8DF
:104B7000BC02207C00284ED14FF4007302226F4803
:104B80000178204600F008FF01216C48007800F011
:104B90000F0000EB800204F1140000EB82000182A0
:104BA0004B02022266480178204600F0F5FE012102
:104BB0006348007800F00F0000EB800204F5AA7053
:104BC00000EB820001824B0202220321204600F00A
:104BD000E3FE0121A4F8A0114B020222832120460A
:104BE00000F0DAFE0121A4F860104B0202228421B9
:104BF000204600F0D1FE0121A4F874101021514884
:104C0000007800F00F0000EB800204F1140000EBCC
:104C1000820041824DE04FF4007302224748017840
:104C2000204600F0B9FE01214448007800F00F0052
:104C300000EB800204F1140000EB820001824B02C1
:104C400002223F480178204600F0A6FE01213C48A0
:104C5000007800F00F0000EB800204F5AA7000EB72
:104C6000820001824B0202220321204600F094FEC2
:104C70000121A4F8A0114B0202228321204600F05A
:104C80008BFE0121A4F860104B02022284212046F1
:104C900000F082FE0121A4F8741010212948007848
:104CA00000F00F0000EB800204F1140000EB820022
:104CB00041820823032223480178204600F06CFE3D
:104CC00001212048007800F00F0000EB800204F181
:104CD000140000EB820001820020C5F8040204F5F4
:104CE0003171D4F8D42251F822100868804700208E
:104CF000C5F81402C5F81802D5F8040208B9022054
:104D000025E7207C48B94FF400730D480178204610
:104D1000D5F8042200F058FE0EE040230848017840
:104D20002046D5F8042200F04FFE40230321204600
:104D3000D5F8042200F048FE002008E7F301002027
:104D4000F4010020F501002070B504460E4604F57C
:104D50003070D4F8D41250F82150D4F8D41250F84E
:104D6000210008B9032070BD207C40B94FF40073C6
:104D700031462046D5F8042200F026FE06E0402306
:104D800031462046D5F8042200F01EFE0020EAE756
:104D9000024609B90320704702F53170D2F8D432C7
:104DA00040F823100020F6E710B5024602F53070F7
:104DB000D2F8D44250F824300BB9032010BDC3F808
:104DC00004120020FAE730B503460C4603F53070B4
:104DD000D3F8D45250F8251009B9032030BDC1F8DA
:104DE0000842C1F810220020F8E72DE9FC410546F1
:104DF0000C4605F53070D5F8D41250F8216000202B
:104E000001900090804616B90320BDE8FC8120780F
:104E100000F0600000283DD020287CD1E08868B3F5
:104E2000207800F08000B8B1E288607805F5317133
:104E3000D5F8D4C251F82C108B6831469847E088D9
:104E4000072801D9072000E0E08807463A463146A6
:104E5000284600F00DF91CE0607886F80002E08832
:104E6000402801D2E08800E0402086F8010296F850
:104E700001223146284600F0DAF80AE0607805F5AC
:104E80003171D5F8D42251F8221000228B682146C6
:104E9000984747E0607830B1012832D00A2813D013
:104EA0000B282FD121E095F89C02032805D102227E
:104EB0006946284600F0DCF805E02146284600F067
:104EC000AAF84FF0030824E095F89C02032805D1C6
:104ED000012201A9284600F0CBF805E0214628462A
:104EE00000F099F84FF0030813E095F89C020328AE
:104EF00005D02146284600F08EF84FF0030808E060
:104F000009E006E02146284600F085F84FF0030846
:104F100000BF00BF06E02146284600F07CF84FF0B5
:104F2000030800BF00BF40466FE72DE9F04105468A
:104F30000E4605F53070D5F8D41250F821400127FF
:104F400014B90320BDE8F081D4F81402B0B90120EF
:104F5000C4F8140206F00F0000EB800205F1140003
:104F600000EB8200D4F81012416031462846D4F894
:104F70001032D4F8082200F016FE00273846E1E788
:104F800070B504460D460026D4F8B802294642689A
:104F90002046904700B10326304670BD70B50446E8
:104FA0000D4694F89C02012804D0022803D003285F
:104FB0000CD101E000BF00BF6888012805D10020A6
:104FC000C4F8A402204600F064F804E02946204614
:104FD00000F021F800BF00BF70BD024600207047FE
:104FE00002460020704770B506460C4615462B4613
:104FF00022460021304600F0E7FC002070BD70B56D
:1050000006460C4615462B4622460021304600F047
:10501000CAFD002070BD70B504460D4680212046B3
:1050200000F091FD0021204600F08DFD70BD70B5AF
:1050300004460E4615460320C4F894024FF4AC70A3
:105040000551001D05512B4632460021204600F037
:10505000BBFC002070BD10B504460520C4F89402C6
:1050600000231A461946204600F0AEFC002010BD71
:1050700070B504460E4615460220C4F89402A56198
:10508000E5612B4632460021204600F08CFD0020D1
:1050900070BD10B504460420C4F8940200231A46DB
:1050A0001946204600F07FFD002010BD70B5044673
:1050B0000D46E888012804D029462046FFF7ABFFBB
:1050C0001EE094F89C02012804D0022803D0032893
:1050D00010D109E000BF0020A060012204F1080106
:1050E0002046FFF7C5FF0AE00122211D2046FFF7F9
:1050F000BFFF04E029462046FFF78DFF00BF00BF39
:1051000070BDF8B504460E4600200090002700252B
:1051100070880012082871D2DFE800F0D6040C2055
:10512000D6D6B4C4207CD4F8B4120A686946904735
:105130000746D0E0207C40B9D4F8B802816A6846BE
:10514000884707460220787007E0D4F8B802C16AA1
:1051500068468847074602207870BCE0B07803288C
:105160004DD005DC88B1012822D0022879D132E067
:10517000042857D0052868D0EE287AD1D4F8B80290
:10518000816B6846884707467AE0D4F8B4024068E5
:1051900038B1207CD4F8B4124A6869469047074673
:1051A00005E031462046FFF736FF681CC5B267E0D0
:1051B000D4F8B402806838B1207CD4F8B4128A687C
:1051C00069469047074605E031462046FFF723FF32
:1051D000681CC5B254E0D4F8B402C06838B1207C71
:1051E000D4F8B412CA6869469047074605E03146CC
:1051F0002046FFF710FF681CC5B241E064E0D4F818
:10520000B402006938B1207CD4F8B4120A69694646
:105210009047074605E031462046FFF7FCFE681C34
:10522000C5B22DE0D4F8B402406938B1207CD4F87E
:10523000B4124A6969469047074605E03146204660
:10524000FFF7E9FE681CC5B21AE0D4F8B402806921
:1052500040B1207CD4F8B4128A6969469047074669
:1052600006E006E031462046FFF7D5FE681CC5B2D1
:1052700006E031462046FFF7CEFE681CC5B200BFEF
:1052800000BF28E0207C30B9D4F8B802416B6846F2
:105290008847074605E031462046FFF7BCFE681CFC
:1052A000C5B218E0207C40B9D4F8B802016B68465A
:1052B000884707460720787005E031462046FFF70B
:1052C000AAFE681CC5B206E031462046FFF7A3FEE1
:1052D000681CC5B200BF00BF05B1F8BDF088C0B101
:1052E000BDF8000080B1F088BDF80010884202DDF2
:1052F000BDF8000000E0F0880090BDF800203946BD
:105300002046FFF7B5FE07E031462046FFF783FE53
:1053100002E02046FFF7BDFE00BFDEE72DE9F841C1
:1053200005460F462C462E464FF00008708831780F
:10533000884218DD307800900FE06946204600F082
:1053400020F804466078052807D1A04698F80200A6
:10535000B84200D106E04FF000087088BDF8001098
:105360008842EADC00BF4046BDE8F88101460020E3
:105370000A4602E0431CD8B2521C1378002BF9D124
:10538000704710B5024610460B88047823440B8002
:105390000378981810BD70B504460D4694F89C0229
:1053A000012804D0022803D003281AD101E000BF4D
:1053B00000BFE888022804D029462046FFF72BFECC
:1053C00014E00120E060D4F8A40218B1E06840F0D5
:1053D0000200E060022204F10C012046FFF748FEC3
:1053E00004E029462046FFF716FE00BF00BF70BD4F
:1053F0002DE9F04107460D46904600240FB9BDE85F
:10540000F0813E463046FFF7B1FF022101EB40003C
:10541000A8F8000098F800002855601CC4B20320CA
:105420002855601CC4B208E030782855761C601CF2
:10543000C4B200202855601CC4B230780028F3D1D3
:1054400000BFDCE70146002031B1012906D0022966
:1054500006D0032908D105E0002007E0032005E07D
:10546000012003E0032001E0032000BF00BF7047DC
:1054700070B505460C462DB92246064906A0FFF731
:10548000B7FF04E02246034903A0FFF7B1FF01483C
:1054900070BD00002C15022057494E555342204341
:1054A0006F6E66696700000002461220088001489E
:1054B000704700000C01002070B505460C462DB960
:1054C0002246064906A0FFF793FF04E0224603495F
:1054D00003A0FFF78DFF014870BD00002C150220CE
:1054E00057494E55534220496E7465726661636533
:1054F00000000000024604200880014870470000B8
:105500002001002070B505460C462246024903A042
:10551000FFF76EFF004870BD2C15022053544D69F3
:1055200063726F656C656374726F6E69637300009C
:1055300070B505460C462DB92246064906A0FFF770
:1055400057FF04E02246034903A0FFF751FF01483B
:1055500070BD00002C150220544149455200000046
:1055600070B505460C461A202080FCF725F9014845
:1055700070BD0000240100202DE9F04104460D46D5
:10558000164614B90320BDE8F0810020C4F8B80223
:10559000C4F8C402C4F8D0020DB1C4F8B45201205A
:1055A00084F89C022670204600F04EF907463846E3
:1055B000E9E72DE9F04104460D460026002729467B
:1055C000D4F8C802FCF7D3FE06463046FFF73AFF90
:1055D00007463846BDE8F0812DE9F04104460D4606
:1055E000002600272946D4F8C802FCF78BFE0646A1
:1055F0003046FFF727FF07463846BDE8F0812DE922
:10560000F04704460F469146002F56D104F1140589
:10561000D4F89402022846D1D5E9020188420FD974
:10562000D5E90201401AA86049462046AA68FFF75A
:10563000E6FC00231A461946204600F0C5F932E080
:10564000D5E90210884217D1E9686868884213D307
:105650006868D4F8981288420ED20022114620467B
:10566000FFF7CDFC0020C4F8980200231A46194623
:10567000204600F0A9F916E094F89C0203280BD10B
:10568000D4F8B802C06838B10020C4F8D402D4F805
:10569000B802C168204688478021204600F053FAAE
:1056A0002046FFF7D8FC94F8A00250B3204600F043
:1056B000D1FA002084F8A00223E047F080012046C0
:1056C000FFF78BFC0646FF2E1BD0D6B994F89C0240
:1056D000032816D104F52E7050F82600406980B1D9
:1056E000C4F8D46204F52E7050F826003946426999
:1056F000204690478046B8F1000F02D04046BDE8F2
:10570000F0870020FBE72DE9F04705460F4690465D
:105710004FF00009002F51D105F5AA76D5F8940273
:1057200003286FD1D6E90201884210D9D6E90201D7
:10573000401AB060D6E90201884201D2B06800E0A8
:10574000F068024641462846FFF74DFC5AE095F8BE
:10575000AA0200F01F0020B1012804D0022812D1B3
:1057600009E0002411E040F2AE20415D2846FFF739
:1057700037FC044609E040F2AE20415D2846FFF7C1
:105780002CFC044601E0002400BF00BF94B995F84A
:105790009C0203280ED105F52E7050F824000069F4
:1057A00040B1C5F8D44205F52E7050F824000169C7
:1057B000284688472846FFF76CFC23E007F07F0166
:1057C0002846FFF70AFC0446FF2C1BD0D4B995F8F5
:1057D0009C02032810D105F52E7050F82400806932
:1057E00050B1C5F8D44205F52E7050F82400394662
:1057F0008269284690478146B9F1000F02D0484699
:10580000BDE8F0870020FBE701460020704770B537
:1058100004460025012084F89C02D4F8B80238B16F
:105820002179D4F8B80242682046904700B1032598
:10583000284670BD70B504460D462946D4F8C80206
:10584000FCF7D3FD70BD000010B504462078012898
:1058500038D11D48C0F8E044C4F8C8021B481A49B2
:1058600008600620087102211748C171002181716A
:105870000221417200218172C17201738173C1736F
:105880000174FDF706FA08B1FBF726FF4FF400712B
:105890000D48FCF7BCFC802200210B48FCF7BCFC47
:1058A0004FF4BA7201210848FCF7B6FC4FF4BA7203
:1058B00003210548FCF7B0FC4FF4BA7204210248FA
:1058C000FCF7AAFC002010BD6C250220000004405B
:1058D00010B50246D2F8C83201F08000802809D104
:1058E00001F07F0000EBC00403F1140000EB840022
:1058F000807810BD01F07F0000EBC00403F5157047
:1059000000EB84008078F4E770B504460D4604F59A
:105910002E70D4F8D41250F8210008B9032070BDBD
:1059200094F89C02032811D104F52E70D4F8D412F7
:1059300050F82100006A48B104F52E70D4F8D41252
:1059400050F821002946026A204690470020E6E7E9
:1059500070B504460D4604F52E70D4F8D41250F8F4
:10596000210008B9032070BD94F89C02032811D1CE
:1059700004F52E70D4F8D41250F82100406A48B1D2
:1059800004F52E70D4F8D41250F821002946426A4A
:10599000204690470020E6E72DE9F04704460F46F1
:1059A00015461E464FF00008C1462B463246394682
:1059B000D4F8C802FCF724FD80464046FFF742FDBC
:1059C00081464846BDE8F0872DE9F04704460D467C
:1059D00016461F464FF00008C1463B463246294650
:1059E000D4F8C802FCF752FD80464046FFF72AFD76
:1059F00081464846BDE8F08770B504460025012081
:105A000084F89C020020C4F894026060C4F8A402E8
:105A100084F8A002D4F8B80258B1D4F8B8024068AB
:105A200038B12179D4F8B80242682046904700B1D5
:105A300003254023002211462046FFF7ADFF012138
:105A40004FF4B27001534021001F01514023002246
:105A500080212046FFF7A0FF0121A184402121627F
:105A6000284670BD014691F89C02042803D191F8A4
:105A70009D0281F89C020020704710B5044694F8FE
:105A80009C0203280BD1D4F8B80240B1D4F8B80274
:105A9000C06920B1D4F8B802C16920468847002007
:105AA00010BD02461174002070472DE9F0410446F4
:105AB0000D46002600272946D4F8C802FDF718FA3B
:105AC00006463046FFF7BEFC07463846BDE8F08183
:105AD00070B504460D46294604F2AA2000F07BF872
